{
	".learneth/ethereum/remix-workshops/3. Primitive Data Types/primitiveDataTypes.sol": {
		"Primitives": {
			"abi": [
				{
					"inputs": [],
					"name": "addr",
					"outputs": [
						{
							"internalType": "address",
							"name": "",
							"type": "address"
						}
					],
					"stateMutability": "view",
					"type": "function"
				},
				{
					"inputs": [],
					"name": "boo",
					"outputs": [
						{
							"internalType": "bool",
							"name": "",
							"type": "bool"
						}
					],
					"stateMutability": "view",
					"type": "function"
				},
				{
					"inputs": [],
					"name": "defaultAddr",
					"outputs": [
						{
							"internalType": "address",
							"name": "",
							"type": "address"
						}
					],
					"stateMutability": "view",
					"type": "function"
				},
				{
					"inputs": [],
					"name": "defaultBoo",
					"outputs": [
						{
							"internalType": "bool",
							"name": "",
							"type": "bool"
						}
					],
					"stateMutability": "view",
					"type": "function"
				},
				{
					"inputs": [],
					"name": "defaultInt",
					"outputs": [
						{
							"internalType": "int256",
							"name": "",
							"type": "int256"
						}
					],
					"stateMutability": "view",
					"type": "function"
				},
				{
					"inputs": [],
					"name": "defaultUint",
					"outputs": [
						{
							"internalType": "uint256",
							"name": "",
							"type": "uint256"
						}
					],
					"stateMutability": "view",
					"type": "function"
				},
				{
					"inputs": [],
					"name": "i",
					"outputs": [
						{
							"internalType": "int256",
							"name": "",
							"type": "int256"
						}
					],
					"stateMutability": "view",
					"type": "function"
				},
				{
					"inputs": [],
					"name": "i256",
					"outputs": [
						{
							"internalType": "int256",
							"name": "",
							"type": "int256"
						}
					],
					"stateMutability": "view",
					"type": "function"
				},
				{
					"inputs": [],
					"name": "i8",
					"outputs": [
						{
							"internalType": "int8",
							"name": "",
							"type": "int8"
						}
					],
					"stateMutability": "view",
					"type": "function"
				},
				{
					"inputs": [],
					"name": "neg",
					"outputs": [
						{
							"internalType": "int256",
							"name": "",
							"type": "int256"
						}
					],
					"stateMutability": "view",
					"type": "function"
				},
				{
					"inputs": [],
					"name": "newAddr",
					"outputs": [
						{
							"internalType": "address",
							"name": "",
							"type": "address"
						}
					],
					"stateMutability": "view",
					"type": "function"
				},
				{
					"inputs": [],
					"name": "newU",
					"outputs": [
						{
							"internalType": "uint8",
							"name": "",
							"type": "uint8"
						}
					],
					"stateMutability": "view",
					"type": "function"
				},
				{
					"inputs": [],
					"name": "u",
					"outputs": [
						{
							"internalType": "uint256",
							"name": "",
							"type": "uint256"
						}
					],
					"stateMutability": "view",
					"type": "function"
				},
				{
					"inputs": [],
					"name": "u256",
					"outputs": [
						{
							"internalType": "uint256",
							"name": "",
							"type": "uint256"
						}
					],
					"stateMutability": "view",
					"type": "function"
				},
				{
					"inputs": [],
					"name": "u8",
					"outputs": [
						{
							"internalType": "uint8",
							"name": "",
							"type": "uint8"
						}
					],
					"stateMutability": "view",
					"type": "function"
				}
			],
			"devdoc": {
				"kind": "dev",
				"methods": {},
				"version": 1
			},
			"evm": {
				"assembly": "    /* \".learneth/ethereum/remix-workshops/3. Primitive Data Types/primitiveDataTypes.sol\":57:1392  contract Primitives {... */\n  mstore(0x40, 0x80)\n    /* \".learneth/ethereum/remix-workshops/3. Primitive Data Types/primitiveDataTypes.sol\":101:105  true */\n  0x01\n    /* \".learneth/ethereum/remix-workshops/3. Primitive Data Types/primitiveDataTypes.sol\":83:105  bool public boo = true */\n  0x00\n  dup1\n  0x0100\n  exp\n  dup2\n  sload\n  dup2\n  0xff\n  mul\n  not\n  and\n  swap1\n  dup4\n  iszero\n  iszero\n  mul\n  or\n  swap1\n  sstore\n  pop\n    /* \".learneth/ethereum/remix-workshops/3. Primitive Data Types/primitiveDataTypes.sol\":385:386  1 */\n  0x01\n    /* \".learneth/ethereum/remix-workshops/3. Primitive Data Types/primitiveDataTypes.sol\":367:386  uint8 public u8 = 1 */\n  0x00\n  exp(0x0100, 0x01)\n  dup2\n  sload\n  dup2\n  0xff\n  mul\n  not\n  and\n  swap1\n  dup4\n  0xff\n  and\n  mul\n  or\n  swap1\n  sstore\n  pop\n    /* \".learneth/ethereum/remix-workshops/3. Primitive Data Types/primitiveDataTypes.sol\":411:414  456 */\n  0x01c8\n    /* \".learneth/ethereum/remix-workshops/3. Primitive Data Types/primitiveDataTypes.sol\":392:414  uint public u256 = 456 */\n  0x01\n  sstore\n    /* \".learneth/ethereum/remix-workshops/3. Primitive Data Types/primitiveDataTypes.sol\":436:439  123 */\n  0x7b\n    /* \".learneth/ethereum/remix-workshops/3. Primitive Data Types/primitiveDataTypes.sol\":420:439  uint public u = 123 */\n  0x02\n  sstore\n    /* \".learneth/ethereum/remix-workshops/3. Primitive Data Types/primitiveDataTypes.sol\":623:625  -1 */\n  0xffffffffffffffffffffffffffffffffffffffffffffffffffffffffffffffff\n    /* \".learneth/ethereum/remix-workshops/3. Primitive Data Types/primitiveDataTypes.sol\":606:625  int8 public i8 = -1 */\n  0x03\n  exp(0x0100, 0x00)\n  dup2\n  sload\n  dup2\n  0xff\n  mul\n  not\n  and\n  swap1\n  dup4\n  0x00\n  signextend\n  0xff\n  and\n  mul\n  or\n  swap1\n  sstore\n  pop\n    /* \".learneth/ethereum/remix-workshops/3. Primitive Data Types/primitiveDataTypes.sol\":649:652  456 */\n  0x01c8\n    /* \".learneth/ethereum/remix-workshops/3. Primitive Data Types/primitiveDataTypes.sol\":631:652  int public i256 = 456 */\n  0x04\n  sstore\n    /* \".learneth/ethereum/remix-workshops/3. Primitive Data Types/primitiveDataTypes.sol\":673:677  -123 */\n  0xffffffffffffffffffffffffffffffffffffffffffffffffffffffffffffff85\n    /* \".learneth/ethereum/remix-workshops/3. Primitive Data Types/primitiveDataTypes.sol\":658:677  int public i = -123 */\n  0x05\n  sstore\n    /* \".learneth/ethereum/remix-workshops/3. Primitive Data Types/primitiveDataTypes.sol\":731:773  0xCA35b7d915458EF540aDe6068dFe2F44E8fa733c */\n  0xca35b7d915458ef540ade6068dfe2f44e8fa733c\n    /* \".learneth/ethereum/remix-workshops/3. Primitive Data Types/primitiveDataTypes.sol\":709:773  address public addr = 0xCA35b7d915458EF540aDe6068dFe2F44E8fa733c */\n  0x06\n  exp(0x0100, 0x00)\n  dup2\n  sload\n  dup2\n  0xffffffffffffffffffffffffffffffffffffffff\n  mul\n  not\n  and\n  swap1\n  dup4\n  0xffffffffffffffffffffffffffffffffffffffff\n  and\n  mul\n  or\n  swap1\n  sstore\n  pop\n    /* \".learneth/ethereum/remix-workshops/3. Primitive Data Types/primitiveDataTypes.sol\":1177:1219  0xb27A31f1b0AF2946B7F582768f03239b1eC07c2c */\n  0xb27a31f1b0af2946b7f582768f03239b1ec07c2c\n    /* \".learneth/ethereum/remix-workshops/3. Primitive Data Types/primitiveDataTypes.sol\":1152:1219  address public newAddr = 0xb27A31f1b0AF2946B7F582768f03239b1eC07c2c */\n  0x0a\n  exp(0x0100, 0x00)\n  dup2\n  sload\n  dup2\n  0xffffffffffffffffffffffffffffffffffffffff\n  mul\n  not\n  and\n  swap1\n  dup4\n  0xffffffffffffffffffffffffffffffffffffffff\n  and\n  mul\n  or\n  swap1\n  sstore\n  pop\n    /* \".learneth/ethereum/remix-workshops/3. Primitive Data Types/primitiveDataTypes.sol\":1305:1307  -2 */\n  0xfffffffffffffffffffffffffffffffffffffffffffffffffffffffffffffffe\n    /* \".learneth/ethereum/remix-workshops/3. Primitive Data Types/primitiveDataTypes.sol\":1288:1307  int public neg = -2 */\n  0x0b\n  sstore\n    /* \".learneth/ethereum/remix-workshops/3. Primitive Data Types/primitiveDataTypes.sol\":1387:1388  0 */\n  0x00\n    /* \".learneth/ethereum/remix-workshops/3. Primitive Data Types/primitiveDataTypes.sol\":1366:1388  uint8 public newU  = 0 */\n  0x0c\n  exp(0x0100, 0x00)\n  dup2\n  sload\n  dup2\n  0xff\n  mul\n  not\n  and\n  swap1\n  dup4\n  0xff\n  and\n  mul\n  or\n  swap1\n  sstore\n  pop\n    /* \".learneth/ethereum/remix-workshops/3. Primitive Data Types/primitiveDataTypes.sol\":57:1392  contract Primitives {... */\n  callvalue\n  dup1\n  iszero\n  tag_1\n  jumpi\n  0x00\n  dup1\n  revert\ntag_1:\n  pop\n  dataSize(sub_0)\n  dup1\n  dataOffset(sub_0)\n  0x00\n  codecopy\n  0x00\n  return\nstop\n\nsub_0: assembly {\n        /* \".learneth/ethereum/remix-workshops/3. Primitive Data Types/primitiveDataTypes.sol\":57:1392  contract Primitives {... */\n      mstore(0x40, 0x80)\n      callvalue\n      dup1\n      iszero\n      tag_1\n      jumpi\n      0x00\n      dup1\n      revert\n    tag_1:\n      pop\n      jumpi(tag_2, lt(calldatasize, 0x04))\n      shr(0xe0, calldataload(0x00))\n      dup1\n      0x6a76e307\n      gt\n      tag_18\n      jumpi\n      dup1\n      0xab3a58a3\n      gt\n      tag_19\n      jumpi\n      dup1\n      0xab3a58a3\n      eq\n      tag_14\n      jumpi\n      dup1\n      0xc6a898c5\n      eq\n      tag_15\n      jumpi\n      dup1\n      0xe5aa3d58\n      eq\n      tag_16\n      jumpi\n      dup1\n      0xf2427d37\n      eq\n      tag_17\n      jumpi\n      jump(tag_2)\n    tag_19:\n      dup1\n      0x6a76e307\n      eq\n      tag_10\n      jumpi\n      dup1\n      0x767800de\n      eq\n      tag_11\n      jumpi\n      dup1\n      0x78063b1f\n      eq\n      tag_12\n      jumpi\n      dup1\n      0x921cda74\n      eq\n      tag_13\n      jumpi\n      jump(tag_2)\n    tag_18:\n      dup1\n      0x459b1acf\n      gt\n      tag_20\n      jumpi\n      dup1\n      0x459b1acf\n      eq\n      tag_6\n      jumpi\n      dup1\n      0x4b3df200\n      eq\n      tag_7\n      jumpi\n      dup1\n      0x4c27fd62\n      eq\n      tag_8\n      jumpi\n      dup1\n      0x5abe622b\n      eq\n      tag_9\n      jumpi\n      jump(tag_2)\n    tag_20:\n      dup1\n      0x074eef3f\n      eq\n      tag_3\n      jumpi\n      dup1\n      0x149d8ffc\n      eq\n      tag_4\n      jumpi\n      dup1\n      0x1570c2cb\n      eq\n      tag_5\n      jumpi\n    tag_2:\n      0x00\n      dup1\n      revert\n        /* \".learneth/ethereum/remix-workshops/3. Primitive Data Types/primitiveDataTypes.sol\":851:873  bool public defaultBoo */\n    tag_3:\n      tag_21\n      tag_22\n      jump\t// in\n    tag_21:\n      mload(0x40)\n      tag_23\n      swap2\n      swap1\n      tag_24\n      jump\t// in\n    tag_23:\n      mload(0x40)\n      dup1\n      swap2\n      sub\n      swap1\n      return\n        /* \".learneth/ethereum/remix-workshops/3. Primitive Data Types/primitiveDataTypes.sol\":1366:1388  uint8 public newU  = 0 */\n    tag_4:\n      tag_25\n      tag_26\n      jump\t// in\n    tag_25:\n      mload(0x40)\n      tag_27\n      swap2\n      swap1\n      tag_28\n      jump\t// in\n    tag_27:\n      mload(0x40)\n      dup1\n      swap2\n      sub\n      swap1\n      return\n        /* \".learneth/ethereum/remix-workshops/3. Primitive Data Types/primitiveDataTypes.sol\":888:911  uint public defaultUint */\n    tag_5:\n      tag_29\n      tag_30\n      jump\t// in\n    tag_29:\n      mload(0x40)\n      tag_31\n      swap2\n      swap1\n      tag_32\n      jump\t// in\n    tag_31:\n      mload(0x40)\n      dup1\n      swap2\n      sub\n      swap1\n      return\n        /* \".learneth/ethereum/remix-workshops/3. Primitive Data Types/primitiveDataTypes.sol\":392:414  uint public u256 = 456 */\n    tag_6:\n      tag_33\n      tag_34\n      jump\t// in\n    tag_33:\n      mload(0x40)\n      tag_35\n      swap2\n      swap1\n      tag_32\n      jump\t// in\n    tag_35:\n      mload(0x40)\n      dup1\n      swap2\n      sub\n      swap1\n      return\n        /* \".learneth/ethereum/remix-workshops/3. Primitive Data Types/primitiveDataTypes.sol\":83:105  bool public boo = true */\n    tag_7:\n      tag_36\n      tag_37\n      jump\t// in\n    tag_36:\n      mload(0x40)\n      tag_38\n      swap2\n      swap1\n      tag_24\n      jump\t// in\n    tag_38:\n      mload(0x40)\n      dup1\n      swap2\n      sub\n      swap1\n      return\n        /* \".learneth/ethereum/remix-workshops/3. Primitive Data Types/primitiveDataTypes.sol\":631:652  int public i256 = 456 */\n    tag_8:\n      tag_39\n      tag_40\n      jump\t// in\n    tag_39:\n      mload(0x40)\n      tag_41\n      swap2\n      swap1\n      tag_42\n      jump\t// in\n    tag_41:\n      mload(0x40)\n      dup1\n      swap2\n      sub\n      swap1\n      return\n        /* \".learneth/ethereum/remix-workshops/3. Primitive Data Types/primitiveDataTypes.sol\":922:943  int public defaultInt */\n    tag_9:\n      tag_43\n      tag_44\n      jump\t// in\n    tag_43:\n      mload(0x40)\n      tag_45\n      swap2\n      swap1\n      tag_42\n      jump\t// in\n    tag_45:\n      mload(0x40)\n      dup1\n      swap2\n      sub\n      swap1\n      return\n        /* \".learneth/ethereum/remix-workshops/3. Primitive Data Types/primitiveDataTypes.sol\":1152:1219  address public newAddr = 0xb27A31f1b0AF2946B7F582768f03239b1eC07c2c */\n    tag_10:\n      tag_46\n      tag_47\n      jump\t// in\n    tag_46:\n      mload(0x40)\n      tag_48\n      swap2\n      swap1\n      tag_49\n      jump\t// in\n    tag_48:\n      mload(0x40)\n      dup1\n      swap2\n      sub\n      swap1\n      return\n        /* \".learneth/ethereum/remix-workshops/3. Primitive Data Types/primitiveDataTypes.sol\":709:773  address public addr = 0xCA35b7d915458EF540aDe6068dFe2F44E8fa733c */\n    tag_11:\n      tag_50\n      tag_51\n      jump\t// in\n    tag_50:\n      mload(0x40)\n      tag_52\n      swap2\n      swap1\n      tag_49\n      jump\t// in\n    tag_52:\n      mload(0x40)\n      dup1\n      swap2\n      sub\n      swap1\n      return\n        /* \".learneth/ethereum/remix-workshops/3. Primitive Data Types/primitiveDataTypes.sol\":1288:1307  int public neg = -2 */\n    tag_12:\n      tag_53\n      tag_54\n      jump\t// in\n    tag_53:\n      mload(0x40)\n      tag_55\n      swap2\n      swap1\n      tag_42\n      jump\t// in\n    tag_55:\n      mload(0x40)\n      dup1\n      swap2\n      sub\n      swap1\n      return\n        /* \".learneth/ethereum/remix-workshops/3. Primitive Data Types/primitiveDataTypes.sol\":606:625  int8 public i8 = -1 */\n    tag_13:\n      tag_56\n      tag_57\n      jump\t// in\n    tag_56:\n      mload(0x40)\n      tag_58\n      swap2\n      swap1\n      tag_59\n      jump\t// in\n    tag_58:\n      mload(0x40)\n      dup1\n      swap2\n      sub\n      swap1\n      return\n        /* \".learneth/ethereum/remix-workshops/3. Primitive Data Types/primitiveDataTypes.sol\":367:386  uint8 public u8 = 1 */\n    tag_14:\n      tag_60\n      tag_61\n      jump\t// in\n    tag_60:\n      mload(0x40)\n      tag_62\n      swap2\n      swap1\n      tag_28\n      jump\t// in\n    tag_62:\n      mload(0x40)\n      dup1\n      swap2\n      sub\n      swap1\n      return\n        /* \".learneth/ethereum/remix-workshops/3. Primitive Data Types/primitiveDataTypes.sol\":420:439  uint public u = 123 */\n    tag_15:\n      tag_63\n      tag_64\n      jump\t// in\n    tag_63:\n      mload(0x40)\n      tag_65\n      swap2\n      swap1\n      tag_32\n      jump\t// in\n    tag_65:\n      mload(0x40)\n      dup1\n      swap2\n      sub\n      swap1\n      return\n        /* \".learneth/ethereum/remix-workshops/3. Primitive Data Types/primitiveDataTypes.sol\":658:677  int public i = -123 */\n    tag_16:\n      tag_66\n      tag_67\n      jump\t// in\n    tag_66:\n      mload(0x40)\n      tag_68\n      swap2\n      swap1\n      tag_42\n      jump\t// in\n    tag_68:\n      mload(0x40)\n      dup1\n      swap2\n      sub\n      swap1\n      return\n        /* \".learneth/ethereum/remix-workshops/3. Primitive Data Types/primitiveDataTypes.sol\":954:980  address public defaultAddr */\n    tag_17:\n      tag_69\n      tag_70\n      jump\t// in\n    tag_69:\n      mload(0x40)\n      tag_71\n      swap2\n      swap1\n      tag_49\n      jump\t// in\n    tag_71:\n      mload(0x40)\n      dup1\n      swap2\n      sub\n      swap1\n      return\n        /* \".learneth/ethereum/remix-workshops/3. Primitive Data Types/primitiveDataTypes.sol\":851:873  bool public defaultBoo */\n    tag_22:\n      0x06\n      0x14\n      swap1\n      sload\n      swap1\n      0x0100\n      exp\n      swap1\n      div\n      0xff\n      and\n      dup2\n      jump\t// out\n        /* \".learneth/ethereum/remix-workshops/3. Primitive Data Types/primitiveDataTypes.sol\":1366:1388  uint8 public newU  = 0 */\n    tag_26:\n      0x0c\n      0x00\n      swap1\n      sload\n      swap1\n      0x0100\n      exp\n      swap1\n      div\n      0xff\n      and\n      dup2\n      jump\t// out\n        /* \".learneth/ethereum/remix-workshops/3. Primitive Data Types/primitiveDataTypes.sol\":888:911  uint public defaultUint */\n    tag_30:\n      sload(0x07)\n      dup2\n      jump\t// out\n        /* \".learneth/ethereum/remix-workshops/3. Primitive Data Types/primitiveDataTypes.sol\":392:414  uint public u256 = 456 */\n    tag_34:\n      sload(0x01)\n      dup2\n      jump\t// out\n        /* \".learneth/ethereum/remix-workshops/3. Primitive Data Types/primitiveDataTypes.sol\":83:105  bool public boo = true */\n    tag_37:\n      0x00\n      dup1\n      sload\n      swap1\n      0x0100\n      exp\n      swap1\n      div\n      0xff\n      and\n      dup2\n      jump\t// out\n        /* \".learneth/ethereum/remix-workshops/3. Primitive Data Types/primitiveDataTypes.sol\":631:652  int public i256 = 456 */\n    tag_40:\n      sload(0x04)\n      dup2\n      jump\t// out\n        /* \".learneth/ethereum/remix-workshops/3. Primitive Data Types/primitiveDataTypes.sol\":922:943  int public defaultInt */\n    tag_44:\n      sload(0x08)\n      dup2\n      jump\t// out\n        /* \".learneth/ethereum/remix-workshops/3. Primitive Data Types/primitiveDataTypes.sol\":1152:1219  address public newAddr = 0xb27A31f1b0AF2946B7F582768f03239b1eC07c2c */\n    tag_47:\n      0x0a\n      0x00\n      swap1\n      sload\n      swap1\n      0x0100\n      exp\n      swap1\n      div\n      0xffffffffffffffffffffffffffffffffffffffff\n      and\n      dup2\n      jump\t// out\n        /* \".learneth/ethereum/remix-workshops/3. Primitive Data Types/primitiveDataTypes.sol\":709:773  address public addr = 0xCA35b7d915458EF540aDe6068dFe2F44E8fa733c */\n    tag_51:\n      0x06\n      0x00\n      swap1\n      sload\n      swap1\n      0x0100\n      exp\n      swap1\n      div\n      0xffffffffffffffffffffffffffffffffffffffff\n      and\n      dup2\n      jump\t// out\n        /* \".learneth/ethereum/remix-workshops/3. Primitive Data Types/primitiveDataTypes.sol\":1288:1307  int public neg = -2 */\n    tag_54:\n      sload(0x0b)\n      dup2\n      jump\t// out\n        /* \".learneth/ethereum/remix-workshops/3. Primitive Data Types/primitiveDataTypes.sol\":606:625  int8 public i8 = -1 */\n    tag_57:\n      0x03\n      0x00\n      swap1\n      sload\n      swap1\n      0x0100\n      exp\n      swap1\n      div\n      0x00\n      signextend\n      dup2\n      jump\t// out\n        /* \".learneth/ethereum/remix-workshops/3. Primitive Data Types/primitiveDataTypes.sol\":367:386  uint8 public u8 = 1 */\n    tag_61:\n      0x00\n      0x01\n      swap1\n      sload\n      swap1\n      0x0100\n      exp\n      swap1\n      div\n      0xff\n      and\n      dup2\n      jump\t// out\n        /* \".learneth/ethereum/remix-workshops/3. Primitive Data Types/primitiveDataTypes.sol\":420:439  uint public u = 123 */\n    tag_64:\n      sload(0x02)\n      dup2\n      jump\t// out\n        /* \".learneth/ethereum/remix-workshops/3. Primitive Data Types/primitiveDataTypes.sol\":658:677  int public i = -123 */\n    tag_67:\n      sload(0x05)\n      dup2\n      jump\t// out\n        /* \".learneth/ethereum/remix-workshops/3. Primitive Data Types/primitiveDataTypes.sol\":954:980  address public defaultAddr */\n    tag_70:\n      0x09\n      0x00\n      swap1\n      sload\n      swap1\n      0x0100\n      exp\n      swap1\n      div\n      0xffffffffffffffffffffffffffffffffffffffff\n      and\n      dup2\n      jump\t// out\n        /* \"#utility.yul\":7:97   */\n    tag_72:\n        /* \"#utility.yul\":41:48   */\n      0x00\n        /* \"#utility.yul\":84:89   */\n      dup2\n        /* \"#utility.yul\":77:90   */\n      iszero\n        /* \"#utility.yul\":70:91   */\n      iszero\n        /* \"#utility.yul\":59:91   */\n      swap1\n      pop\n        /* \"#utility.yul\":7:97   */\n      swap2\n      swap1\n      pop\n      jump\t// out\n        /* \"#utility.yul\":103:212   */\n    tag_73:\n        /* \"#utility.yul\":184:205   */\n      tag_88\n        /* \"#utility.yul\":199:204   */\n      dup2\n        /* \"#utility.yul\":184:205   */\n      tag_72\n      jump\t// in\n    tag_88:\n        /* \"#utility.yul\":179:182   */\n      dup3\n        /* \"#utility.yul\":172:206   */\n      mstore\n        /* \"#utility.yul\":103:212   */\n      pop\n      pop\n      jump\t// out\n        /* \"#utility.yul\":218:428   */\n    tag_24:\n        /* \"#utility.yul\":305:309   */\n      0x00\n        /* \"#utility.yul\":343:345   */\n      0x20\n        /* \"#utility.yul\":332:341   */\n      dup3\n        /* \"#utility.yul\":328:346   */\n      add\n        /* \"#utility.yul\":320:346   */\n      swap1\n      pop\n        /* \"#utility.yul\":356:421   */\n      tag_90\n        /* \"#utility.yul\":418:419   */\n      0x00\n        /* \"#utility.yul\":407:416   */\n      dup4\n        /* \"#utility.yul\":403:420   */\n      add\n        /* \"#utility.yul\":394:400   */\n      dup5\n        /* \"#utility.yul\":356:421   */\n      tag_73\n      jump\t// in\n    tag_90:\n        /* \"#utility.yul\":218:428   */\n      swap3\n      swap2\n      pop\n      pop\n      jump\t// out\n        /* \"#utility.yul\":434:520   */\n    tag_74:\n        /* \"#utility.yul\":469:476   */\n      0x00\n        /* \"#utility.yul\":509:513   */\n      0xff\n        /* \"#utility.yul\":502:507   */\n      dup3\n        /* \"#utility.yul\":498:514   */\n      and\n        /* \"#utility.yul\":487:514   */\n      swap1\n      pop\n        /* \"#utility.yul\":434:520   */\n      swap2\n      swap1\n      pop\n      jump\t// out\n        /* \"#utility.yul\":526:638   */\n    tag_75:\n        /* \"#utility.yul\":609:631   */\n      tag_93\n        /* \"#utility.yul\":625:630   */\n      dup2\n        /* \"#utility.yul\":609:631   */\n      tag_74\n      jump\t// in\n    tag_93:\n        /* \"#utility.yul\":604:607   */\n      dup3\n        /* \"#utility.yul\":597:632   */\n      mstore\n        /* \"#utility.yul\":526:638   */\n      pop\n      pop\n      jump\t// out\n        /* \"#utility.yul\":644:858   */\n    tag_28:\n        /* \"#utility.yul\":733:737   */\n      0x00\n        /* \"#utility.yul\":771:773   */\n      0x20\n        /* \"#utility.yul\":760:769   */\n      dup3\n        /* \"#utility.yul\":756:774   */\n      add\n        /* \"#utility.yul\":748:774   */\n      swap1\n      pop\n        /* \"#utility.yul\":784:851   */\n      tag_95\n        /* \"#utility.yul\":848:849   */\n      0x00\n        /* \"#utility.yul\":837:846   */\n      dup4\n        /* \"#utility.yul\":833:850   */\n      add\n        /* \"#utility.yul\":824:830   */\n      dup5\n        /* \"#utility.yul\":784:851   */\n      tag_75\n      jump\t// in\n    tag_95:\n        /* \"#utility.yul\":644:858   */\n      swap3\n      swap2\n      pop\n      pop\n      jump\t// out\n        /* \"#utility.yul\":864:941   */\n    tag_76:\n        /* \"#utility.yul\":901:908   */\n      0x00\n        /* \"#utility.yul\":930:935   */\n      dup2\n        /* \"#utility.yul\":919:935   */\n      swap1\n      pop\n        /* \"#utility.yul\":864:941   */\n      swap2\n      swap1\n      pop\n      jump\t// out\n        /* \"#utility.yul\":947:1065   */\n    tag_77:\n        /* \"#utility.yul\":1034:1058   */\n      tag_98\n        /* \"#utility.yul\":1052:1057   */\n      dup2\n        /* \"#utility.yul\":1034:1058   */\n      tag_76\n      jump\t// in\n    tag_98:\n        /* \"#utility.yul\":1029:1032   */\n      dup3\n        /* \"#utility.yul\":1022:1059   */\n      mstore\n        /* \"#utility.yul\":947:1065   */\n      pop\n      pop\n      jump\t// out\n        /* \"#utility.yul\":1071:1293   */\n    tag_32:\n        /* \"#utility.yul\":1164:1168   */\n      0x00\n        /* \"#utility.yul\":1202:1204   */\n      0x20\n        /* \"#utility.yul\":1191:1200   */\n      dup3\n        /* \"#utility.yul\":1187:1205   */\n      add\n        /* \"#utility.yul\":1179:1205   */\n      swap1\n      pop\n        /* \"#utility.yul\":1215:1286   */\n      tag_100\n        /* \"#utility.yul\":1283:1284   */\n      0x00\n        /* \"#utility.yul\":1272:1281   */\n      dup4\n        /* \"#utility.yul\":1268:1285   */\n      add\n        /* \"#utility.yul\":1259:1265   */\n      dup5\n        /* \"#utility.yul\":1215:1286   */\n      tag_77\n      jump\t// in\n    tag_100:\n        /* \"#utility.yul\":1071:1293   */\n      swap3\n      swap2\n      pop\n      pop\n      jump\t// out\n        /* \"#utility.yul\":1299:1375   */\n    tag_78:\n        /* \"#utility.yul\":1335:1342   */\n      0x00\n        /* \"#utility.yul\":1364:1369   */\n      dup2\n        /* \"#utility.yul\":1353:1369   */\n      swap1\n      pop\n        /* \"#utility.yul\":1299:1375   */\n      swap2\n      swap1\n      pop\n      jump\t// out\n        /* \"#utility.yul\":1381:1496   */\n    tag_79:\n        /* \"#utility.yul\":1466:1489   */\n      tag_103\n        /* \"#utility.yul\":1483:1488   */\n      dup2\n        /* \"#utility.yul\":1466:1489   */\n      tag_78\n      jump\t// in\n    tag_103:\n        /* \"#utility.yul\":1461:1464   */\n      dup3\n        /* \"#utility.yul\":1454:1490   */\n      mstore\n        /* \"#utility.yul\":1381:1496   */\n      pop\n      pop\n      jump\t// out\n        /* \"#utility.yul\":1502:1720   */\n    tag_42:\n        /* \"#utility.yul\":1593:1597   */\n      0x00\n        /* \"#utility.yul\":1631:1633   */\n      0x20\n        /* \"#utility.yul\":1620:1629   */\n      dup3\n        /* \"#utility.yul\":1616:1634   */\n      add\n        /* \"#utility.yul\":1608:1634   */\n      swap1\n      pop\n        /* \"#utility.yul\":1644:1713   */\n      tag_105\n        /* \"#utility.yul\":1710:1711   */\n      0x00\n        /* \"#utility.yul\":1699:1708   */\n      dup4\n        /* \"#utility.yul\":1695:1712   */\n      add\n        /* \"#utility.yul\":1686:1692   */\n      dup5\n        /* \"#utility.yul\":1644:1713   */\n      tag_79\n      jump\t// in\n    tag_105:\n        /* \"#utility.yul\":1502:1720   */\n      swap3\n      swap2\n      pop\n      pop\n      jump\t// out\n        /* \"#utility.yul\":1726:1852   */\n    tag_80:\n        /* \"#utility.yul\":1763:1770   */\n      0x00\n        /* \"#utility.yul\":1803:1845   */\n      0xffffffffffffffffffffffffffffffffffffffff\n        /* \"#utility.yul\":1796:1801   */\n      dup3\n        /* \"#utility.yul\":1792:1846   */\n      and\n        /* \"#utility.yul\":1781:1846   */\n      swap1\n      pop\n        /* \"#utility.yul\":1726:1852   */\n      swap2\n      swap1\n      pop\n      jump\t// out\n        /* \"#utility.yul\":1858:1954   */\n    tag_81:\n        /* \"#utility.yul\":1895:1902   */\n      0x00\n        /* \"#utility.yul\":1924:1948   */\n      tag_108\n        /* \"#utility.yul\":1942:1947   */\n      dup3\n        /* \"#utility.yul\":1924:1948   */\n      tag_80\n      jump\t// in\n    tag_108:\n        /* \"#utility.yul\":1913:1948   */\n      swap1\n      pop\n        /* \"#utility.yul\":1858:1954   */\n      swap2\n      swap1\n      pop\n      jump\t// out\n        /* \"#utility.yul\":1960:2078   */\n    tag_82:\n        /* \"#utility.yul\":2047:2071   */\n      tag_110\n        /* \"#utility.yul\":2065:2070   */\n      dup2\n        /* \"#utility.yul\":2047:2071   */\n      tag_81\n      jump\t// in\n    tag_110:\n        /* \"#utility.yul\":2042:2045   */\n      dup3\n        /* \"#utility.yul\":2035:2072   */\n      mstore\n        /* \"#utility.yul\":1960:2078   */\n      pop\n      pop\n      jump\t// out\n        /* \"#utility.yul\":2084:2306   */\n    tag_49:\n        /* \"#utility.yul\":2177:2181   */\n      0x00\n        /* \"#utility.yul\":2215:2217   */\n      0x20\n        /* \"#utility.yul\":2204:2213   */\n      dup3\n        /* \"#utility.yul\":2200:2218   */\n      add\n        /* \"#utility.yul\":2192:2218   */\n      swap1\n      pop\n        /* \"#utility.yul\":2228:2299   */\n      tag_112\n        /* \"#utility.yul\":2296:2297   */\n      0x00\n        /* \"#utility.yul\":2285:2294   */\n      dup4\n        /* \"#utility.yul\":2281:2298   */\n      add\n        /* \"#utility.yul\":2272:2278   */\n      dup5\n        /* \"#utility.yul\":2228:2299   */\n      tag_82\n      jump\t// in\n    tag_112:\n        /* \"#utility.yul\":2084:2306   */\n      swap3\n      swap2\n      pop\n      pop\n      jump\t// out\n        /* \"#utility.yul\":2312:2401   */\n    tag_83:\n        /* \"#utility.yul\":2346:2353   */\n      0x00\n        /* \"#utility.yul\":2389:2394   */\n      dup2\n        /* \"#utility.yul\":2386:2387   */\n      0x00\n        /* \"#utility.yul\":2375:2395   */\n      signextend\n        /* \"#utility.yul\":2364:2395   */\n      swap1\n      pop\n        /* \"#utility.yul\":2312:2401   */\n      swap2\n      swap1\n      pop\n      jump\t// out\n        /* \"#utility.yul\":2407:2516   */\n    tag_84:\n        /* \"#utility.yul\":2488:2509   */\n      tag_115\n        /* \"#utility.yul\":2503:2508   */\n      dup2\n        /* \"#utility.yul\":2488:2509   */\n      tag_83\n      jump\t// in\n    tag_115:\n        /* \"#utility.yul\":2483:2486   */\n      dup3\n        /* \"#utility.yul\":2476:2510   */\n      mstore\n        /* \"#utility.yul\":2407:2516   */\n      pop\n      pop\n      jump\t// out\n        /* \"#utility.yul\":2522:2732   */\n    tag_59:\n        /* \"#utility.yul\":2609:2613   */\n      0x00\n        /* \"#utility.yul\":2647:2649   */\n      0x20\n        /* \"#utility.yul\":2636:2645   */\n      dup3\n        /* \"#utility.yul\":2632:2650   */\n      add\n        /* \"#utility.yul\":2624:2650   */\n      swap1\n      pop\n        /* \"#utility.yul\":2660:2725   */\n      tag_117\n        /* \"#utility.yul\":2722:2723   */\n      0x00\n        /* \"#utility.yul\":2711:2720   */\n      dup4\n        /* \"#utility.yul\":2707:2724   */\n      add\n        /* \"#utility.yul\":2698:2704   */\n      dup5\n        /* \"#utility.yul\":2660:2725   */\n      tag_84\n      jump\t// in\n    tag_117:\n        /* \"#utility.yul\":2522:2732   */\n      swap3\n      swap2\n      pop\n      pop\n      jump\t// out\n\n    auxdata: 0xa2646970667358221220babd18b465c2219e4a2e8993d3009c9e97beed6b54fae220bad3ca0e7897ed8564736f6c634300081a0033\n}\n",
				"bytecode": {
					"linkReferences": {},
					"object": "608060405260015f806101000a81548160ff02191690831515021790555060015f60016101000a81548160ff021916908360ff1602179055506101c8600155607b6002557fffffffffffffffffffffffffffffffffffffffffffffffffffffffffffffffff60035f6101000a81548160ff02191690835f0b60ff1602179055506101c86004557fffffffffffffffffffffffffffffffffffffffffffffffffffffffffffffff8560055573ca35b7d915458ef540ade6068dfe2f44e8fa733c60065f6101000a81548173ffffffffffffffffffffffffffffffffffffffff021916908373ffffffffffffffffffffffffffffffffffffffff16021790555073b27a31f1b0af2946b7f582768f03239b1ec07c2c600a5f6101000a81548173ffffffffffffffffffffffffffffffffffffffff021916908373ffffffffffffffffffffffffffffffffffffffff1602179055507ffffffffffffffffffffffffffffffffffffffffffffffffffffffffffffffffe600b555f600c5f6101000a81548160ff021916908360ff16021790555034801561019a575f80fd5b50610534806101a85f395ff3fe608060405234801561000f575f80fd5b50600436106100f3575f3560e01c80636a76e30711610095578063ab3a58a311610064578063ab3a58a314610241578063c6a898c51461025f578063e5aa3d581461027d578063f2427d371461029b576100f3565b80636a76e307146101c9578063767800de146101e757806378063b1f14610205578063921cda7414610223576100f3565b8063459b1acf116100d1578063459b1acf146101515780634b3df2001461016f5780634c27fd621461018d5780635abe622b146101ab576100f3565b8063074eef3f146100f7578063149d8ffc146101155780631570c2cb14610133575b5f80fd5b6100ff6102b9565b60405161010c91906103c4565b60405180910390f35b61011d6102cc565b60405161012a91906103f8565b60405180910390f35b61013b6102de565b6040516101489190610429565b60405180910390f35b6101596102e4565b6040516101669190610429565b60405180910390f35b6101776102ea565b60405161018491906103c4565b60405180910390f35b6101956102fa565b6040516101a2919061045a565b60405180910390f35b6101b3610300565b6040516101c0919061045a565b60405180910390f35b6101d1610306565b6040516101de91906104b2565b60405180910390f35b6101ef61032b565b6040516101fc91906104b2565b60405180910390f35b61020d610350565b60405161021a919061045a565b60405180910390f35b61022b610356565b60405161023891906104e5565b60405180910390f35b610249610367565b60405161025691906103f8565b60405180910390f35b610267610379565b6040516102749190610429565b60405180910390f35b61028561037f565b604051610292919061045a565b60405180910390f35b6102a3610385565b6040516102b091906104b2565b60405180910390f35b600660149054906101000a900460ff1681565b600c5f9054906101000a900460ff1681565b60075481565b60015481565b5f8054906101000a900460ff1681565b60045481565b60085481565b600a5f9054906101000a900473ffffffffffffffffffffffffffffffffffffffff1681565b60065f9054906101000a900473ffffffffffffffffffffffffffffffffffffffff1681565b600b5481565b60035f9054906101000a90045f0b81565b5f60019054906101000a900460ff1681565b60025481565b60055481565b60095f9054906101000a900473ffffffffffffffffffffffffffffffffffffffff1681565b5f8115159050919050565b6103be816103aa565b82525050565b5f6020820190506103d75f8301846103b5565b92915050565b5f60ff82169050919050565b6103f2816103dd565b82525050565b5f60208201905061040b5f8301846103e9565b92915050565b5f819050919050565b61042381610411565b82525050565b5f60208201905061043c5f83018461041a565b92915050565b5f819050919050565b61045481610442565b82525050565b5f60208201905061046d5f83018461044b565b92915050565b5f73ffffffffffffffffffffffffffffffffffffffff82169050919050565b5f61049c82610473565b9050919050565b6104ac81610492565b82525050565b5f6020820190506104c55f8301846104a3565b92915050565b5f815f0b9050919050565b6104df816104cb565b82525050565b5f6020820190506104f85f8301846104d6565b9291505056fea2646970667358221220babd18b465c2219e4a2e8993d3009c9e97beed6b54fae220bad3ca0e7897ed8564736f6c634300081a0033",
					"opcodes": "PUSH1 0x80 PUSH1 0x40 MSTORE PUSH1 0x1 PUSH0 DUP1 PUSH2 0x100 EXP DUP2 SLOAD DUP2 PUSH1 0xFF MUL NOT AND SWAP1 DUP4 ISZERO ISZERO MUL OR SWAP1 SSTORE POP PUSH1 0x1 PUSH0 PUSH1 0x1 PUSH2 0x100 EXP DUP2 SLOAD DUP2 PUSH1 0xFF MUL NOT AND SWAP1 DUP4 PUSH1 0xFF AND MUL OR SWAP1 SSTORE POP PUSH2 0x1C8 PUSH1 0x1 SSTORE PUSH1 0x7B PUSH1 0x2 SSTORE PUSH32 0xFFFFFFFFFFFFFFFFFFFFFFFFFFFFFFFFFFFFFFFFFFFFFFFFFFFFFFFFFFFFFFFF PUSH1 0x3 PUSH0 PUSH2 0x100 EXP DUP2 SLOAD DUP2 PUSH1 0xFF MUL NOT AND SWAP1 DUP4 PUSH0 SIGNEXTEND PUSH1 0xFF AND MUL OR SWAP1 SSTORE POP PUSH2 0x1C8 PUSH1 0x4 SSTORE PUSH32 0xFFFFFFFFFFFFFFFFFFFFFFFFFFFFFFFFFFFFFFFFFFFFFFFFFFFFFFFFFFFFFF85 PUSH1 0x5 SSTORE PUSH20 0xCA35B7D915458EF540ADE6068DFE2F44E8FA733C PUSH1 0x6 PUSH0 PUSH2 0x100 EXP DUP2 SLOAD DUP2 PUSH20 0xFFFFFFFFFFFFFFFFFFFFFFFFFFFFFFFFFFFFFFFF MUL NOT AND SWAP1 DUP4 PUSH20 0xFFFFFFFFFFFFFFFFFFFFFFFFFFFFFFFFFFFFFFFF AND MUL OR SWAP1 SSTORE POP PUSH20 0xB27A31F1B0AF2946B7F582768F03239B1EC07C2C PUSH1 0xA PUSH0 PUSH2 0x100 EXP DUP2 SLOAD DUP2 PUSH20 0xFFFFFFFFFFFFFFFFFFFFFFFFFFFFFFFFFFFFFFFF MUL NOT AND SWAP1 DUP4 PUSH20 0xFFFFFFFFFFFFFFFFFFFFFFFFFFFFFFFFFFFFFFFF AND MUL OR SWAP1 SSTORE POP PUSH32 0xFFFFFFFFFFFFFFFFFFFFFFFFFFFFFFFFFFFFFFFFFFFFFFFFFFFFFFFFFFFFFFFE PUSH1 0xB SSTORE PUSH0 PUSH1 0xC PUSH0 PUSH2 0x100 EXP DUP2 SLOAD DUP2 PUSH1 0xFF MUL NOT AND SWAP1 DUP4 PUSH1 0xFF AND MUL OR SWAP1 SSTORE POP CALLVALUE DUP1 ISZERO PUSH2 0x19A JUMPI PUSH0 DUP1 REVERT JUMPDEST POP PUSH2 0x534 DUP1 PUSH2 0x1A8 PUSH0 CODECOPY PUSH0 RETURN INVALID PUSH1 0x80 PUSH1 0x40 MSTORE CALLVALUE DUP1 ISZERO PUSH2 0xF JUMPI PUSH0 DUP1 REVERT JUMPDEST POP PUSH1 0x4 CALLDATASIZE LT PUSH2 0xF3 JUMPI PUSH0 CALLDATALOAD PUSH1 0xE0 SHR DUP1 PUSH4 0x6A76E307 GT PUSH2 0x95 JUMPI DUP1 PUSH4 0xAB3A58A3 GT PUSH2 0x64 JUMPI DUP1 PUSH4 0xAB3A58A3 EQ PUSH2 0x241 JUMPI DUP1 PUSH4 0xC6A898C5 EQ PUSH2 0x25F JUMPI DUP1 PUSH4 0xE5AA3D58 EQ PUSH2 0x27D JUMPI DUP1 PUSH4 0xF2427D37 EQ PUSH2 0x29B JUMPI PUSH2 0xF3 JUMP JUMPDEST DUP1 PUSH4 0x6A76E307 EQ PUSH2 0x1C9 JUMPI DUP1 PUSH4 0x767800DE EQ PUSH2 0x1E7 JUMPI DUP1 PUSH4 0x78063B1F EQ PUSH2 0x205 JUMPI DUP1 PUSH4 0x921CDA74 EQ PUSH2 0x223 JUMPI PUSH2 0xF3 JUMP JUMPDEST DUP1 PUSH4 0x459B1ACF GT PUSH2 0xD1 JUMPI DUP1 PUSH4 0x459B1ACF EQ PUSH2 0x151 JUMPI DUP1 PUSH4 0x4B3DF200 EQ PUSH2 0x16F JUMPI DUP1 PUSH4 0x4C27FD62 EQ PUSH2 0x18D JUMPI DUP1 PUSH4 0x5ABE622B EQ PUSH2 0x1AB JUMPI PUSH2 0xF3 JUMP JUMPDEST DUP1 PUSH4 0x74EEF3F EQ PUSH2 0xF7 JUMPI DUP1 PUSH4 0x149D8FFC EQ PUSH2 0x115 JUMPI DUP1 PUSH4 0x1570C2CB EQ PUSH2 0x133 JUMPI JUMPDEST PUSH0 DUP1 REVERT JUMPDEST PUSH2 0xFF PUSH2 0x2B9 JUMP JUMPDEST PUSH1 0x40 MLOAD PUSH2 0x10C SWAP2 SWAP1 PUSH2 0x3C4 JUMP JUMPDEST PUSH1 0x40 MLOAD DUP1 SWAP2 SUB SWAP1 RETURN JUMPDEST PUSH2 0x11D PUSH2 0x2CC JUMP JUMPDEST PUSH1 0x40 MLOAD PUSH2 0x12A SWAP2 SWAP1 PUSH2 0x3F8 JUMP JUMPDEST PUSH1 0x40 MLOAD DUP1 SWAP2 SUB SWAP1 RETURN JUMPDEST PUSH2 0x13B PUSH2 0x2DE JUMP JUMPDEST PUSH1 0x40 MLOAD PUSH2 0x148 SWAP2 SWAP1 PUSH2 0x429 JUMP JUMPDEST PUSH1 0x40 MLOAD DUP1 SWAP2 SUB SWAP1 RETURN JUMPDEST PUSH2 0x159 PUSH2 0x2E4 JUMP JUMPDEST PUSH1 0x40 MLOAD PUSH2 0x166 SWAP2 SWAP1 PUSH2 0x429 JUMP JUMPDEST PUSH1 0x40 MLOAD DUP1 SWAP2 SUB SWAP1 RETURN JUMPDEST PUSH2 0x177 PUSH2 0x2EA JUMP JUMPDEST PUSH1 0x40 MLOAD PUSH2 0x184 SWAP2 SWAP1 PUSH2 0x3C4 JUMP JUMPDEST PUSH1 0x40 MLOAD DUP1 SWAP2 SUB SWAP1 RETURN JUMPDEST PUSH2 0x195 PUSH2 0x2FA JUMP JUMPDEST PUSH1 0x40 MLOAD PUSH2 0x1A2 SWAP2 SWAP1 PUSH2 0x45A JUMP JUMPDEST PUSH1 0x40 MLOAD DUP1 SWAP2 SUB SWAP1 RETURN JUMPDEST PUSH2 0x1B3 PUSH2 0x300 JUMP JUMPDEST PUSH1 0x40 MLOAD PUSH2 0x1C0 SWAP2 SWAP1 PUSH2 0x45A JUMP JUMPDEST PUSH1 0x40 MLOAD DUP1 SWAP2 SUB SWAP1 RETURN JUMPDEST PUSH2 0x1D1 PUSH2 0x306 JUMP JUMPDEST PUSH1 0x40 MLOAD PUSH2 0x1DE SWAP2 SWAP1 PUSH2 0x4B2 JUMP JUMPDEST PUSH1 0x40 MLOAD DUP1 SWAP2 SUB SWAP1 RETURN JUMPDEST PUSH2 0x1EF PUSH2 0x32B JUMP JUMPDEST PUSH1 0x40 MLOAD PUSH2 0x1FC SWAP2 SWAP1 PUSH2 0x4B2 JUMP JUMPDEST PUSH1 0x40 MLOAD DUP1 SWAP2 SUB SWAP1 RETURN JUMPDEST PUSH2 0x20D PUSH2 0x350 JUMP JUMPDEST PUSH1 0x40 MLOAD PUSH2 0x21A SWAP2 SWAP1 PUSH2 0x45A JUMP JUMPDEST PUSH1 0x40 MLOAD DUP1 SWAP2 SUB SWAP1 RETURN JUMPDEST PUSH2 0x22B PUSH2 0x356 JUMP JUMPDEST PUSH1 0x40 MLOAD PUSH2 0x238 SWAP2 SWAP1 PUSH2 0x4E5 JUMP JUMPDEST PUSH1 0x40 MLOAD DUP1 SWAP2 SUB SWAP1 RETURN JUMPDEST PUSH2 0x249 PUSH2 0x367 JUMP JUMPDEST PUSH1 0x40 MLOAD PUSH2 0x256 SWAP2 SWAP1 PUSH2 0x3F8 JUMP JUMPDEST PUSH1 0x40 MLOAD DUP1 SWAP2 SUB SWAP1 RETURN JUMPDEST PUSH2 0x267 PUSH2 0x379 JUMP JUMPDEST PUSH1 0x40 MLOAD PUSH2 0x274 SWAP2 SWAP1 PUSH2 0x429 JUMP JUMPDEST PUSH1 0x40 MLOAD DUP1 SWAP2 SUB SWAP1 RETURN JUMPDEST PUSH2 0x285 PUSH2 0x37F JUMP JUMPDEST PUSH1 0x40 MLOAD PUSH2 0x292 SWAP2 SWAP1 PUSH2 0x45A JUMP JUMPDEST PUSH1 0x40 MLOAD DUP1 SWAP2 SUB SWAP1 RETURN JUMPDEST PUSH2 0x2A3 PUSH2 0x385 JUMP JUMPDEST PUSH1 0x40 MLOAD PUSH2 0x2B0 SWAP2 SWAP1 PUSH2 0x4B2 JUMP JUMPDEST PUSH1 0x40 MLOAD DUP1 SWAP2 SUB SWAP1 RETURN JUMPDEST PUSH1 0x6 PUSH1 0x14 SWAP1 SLOAD SWAP1 PUSH2 0x100 EXP SWAP1 DIV PUSH1 0xFF AND DUP2 JUMP JUMPDEST PUSH1 0xC PUSH0 SWAP1 SLOAD SWAP1 PUSH2 0x100 EXP SWAP1 DIV PUSH1 0xFF AND DUP2 JUMP JUMPDEST PUSH1 0x7 SLOAD DUP2 JUMP JUMPDEST PUSH1 0x1 SLOAD DUP2 JUMP JUMPDEST PUSH0 DUP1 SLOAD SWAP1 PUSH2 0x100 EXP SWAP1 DIV PUSH1 0xFF AND DUP2 JUMP JUMPDEST PUSH1 0x4 SLOAD DUP2 JUMP JUMPDEST PUSH1 0x8 SLOAD DUP2 JUMP JUMPDEST PUSH1 0xA PUSH0 SWAP1 SLOAD SWAP1 PUSH2 0x100 EXP SWAP1 DIV PUSH20 0xFFFFFFFFFFFFFFFFFFFFFFFFFFFFFFFFFFFFFFFF AND DUP2 JUMP JUMPDEST PUSH1 0x6 PUSH0 SWAP1 SLOAD SWAP1 PUSH2 0x100 EXP SWAP1 DIV PUSH20 0xFFFFFFFFFFFFFFFFFFFFFFFFFFFFFFFFFFFFFFFF AND DUP2 JUMP JUMPDEST PUSH1 0xB SLOAD DUP2 JUMP JUMPDEST PUSH1 0x3 PUSH0 SWAP1 SLOAD SWAP1 PUSH2 0x100 EXP SWAP1 DIV PUSH0 SIGNEXTEND DUP2 JUMP JUMPDEST PUSH0 PUSH1 0x1 SWAP1 SLOAD SWAP1 PUSH2 0x100 EXP SWAP1 DIV PUSH1 0xFF AND DUP2 JUMP JUMPDEST PUSH1 0x2 SLOAD DUP2 JUMP JUMPDEST PUSH1 0x5 SLOAD DUP2 JUMP JUMPDEST PUSH1 0x9 PUSH0 SWAP1 SLOAD SWAP1 PUSH2 0x100 EXP SWAP1 DIV PUSH20 0xFFFFFFFFFFFFFFFFFFFFFFFFFFFFFFFFFFFFFFFF AND DUP2 JUMP JUMPDEST PUSH0 DUP2 ISZERO ISZERO SWAP1 POP SWAP2 SWAP1 POP JUMP JUMPDEST PUSH2 0x3BE DUP2 PUSH2 0x3AA JUMP JUMPDEST DUP3 MSTORE POP POP JUMP JUMPDEST PUSH0 PUSH1 0x20 DUP3 ADD SWAP1 POP PUSH2 0x3D7 PUSH0 DUP4 ADD DUP5 PUSH2 0x3B5 JUMP JUMPDEST SWAP3 SWAP2 POP POP JUMP JUMPDEST PUSH0 PUSH1 0xFF DUP3 AND SWAP1 POP SWAP2 SWAP1 POP JUMP JUMPDEST PUSH2 0x3F2 DUP2 PUSH2 0x3DD JUMP JUMPDEST DUP3 MSTORE POP POP JUMP JUMPDEST PUSH0 PUSH1 0x20 DUP3 ADD SWAP1 POP PUSH2 0x40B PUSH0 DUP4 ADD DUP5 PUSH2 0x3E9 JUMP JUMPDEST SWAP3 SWAP2 POP POP JUMP JUMPDEST PUSH0 DUP2 SWAP1 POP SWAP2 SWAP1 POP JUMP JUMPDEST PUSH2 0x423 DUP2 PUSH2 0x411 JUMP JUMPDEST DUP3 MSTORE POP POP JUMP JUMPDEST PUSH0 PUSH1 0x20 DUP3 ADD SWAP1 POP PUSH2 0x43C PUSH0 DUP4 ADD DUP5 PUSH2 0x41A JUMP JUMPDEST SWAP3 SWAP2 POP POP JUMP JUMPDEST PUSH0 DUP2 SWAP1 POP SWAP2 SWAP1 POP JUMP JUMPDEST PUSH2 0x454 DUP2 PUSH2 0x442 JUMP JUMPDEST DUP3 MSTORE POP POP JUMP JUMPDEST PUSH0 PUSH1 0x20 DUP3 ADD SWAP1 POP PUSH2 0x46D PUSH0 DUP4 ADD DUP5 PUSH2 0x44B JUMP JUMPDEST SWAP3 SWAP2 POP POP JUMP JUMPDEST PUSH0 PUSH20 0xFFFFFFFFFFFFFFFFFFFFFFFFFFFFFFFFFFFFFFFF DUP3 AND SWAP1 POP SWAP2 SWAP1 POP JUMP JUMPDEST PUSH0 PUSH2 0x49C DUP3 PUSH2 0x473 JUMP JUMPDEST SWAP1 POP SWAP2 SWAP1 POP JUMP JUMPDEST PUSH2 0x4AC DUP2 PUSH2 0x492 JUMP JUMPDEST DUP3 MSTORE POP POP JUMP JUMPDEST PUSH0 PUSH1 0x20 DUP3 ADD SWAP1 POP PUSH2 0x4C5 PUSH0 DUP4 ADD DUP5 PUSH2 0x4A3 JUMP JUMPDEST SWAP3 SWAP2 POP POP JUMP JUMPDEST PUSH0 DUP2 PUSH0 SIGNEXTEND SWAP1 POP SWAP2 SWAP1 POP JUMP JUMPDEST PUSH2 0x4DF DUP2 PUSH2 0x4CB JUMP JUMPDEST DUP3 MSTORE POP POP JUMP JUMPDEST PUSH0 PUSH1 0x20 DUP3 ADD SWAP1 POP PUSH2 0x4F8 PUSH0 DUP4 ADD DUP5 PUSH2 0x4D6 JUMP JUMPDEST SWAP3 SWAP2 POP POP JUMP INVALID LOG2 PUSH5 0x6970667358 0x22 SLT KECCAK256 0xBA 0xBD XOR 0xB4 PUSH6 0xC2219E4A2E89 SWAP4 0xD3 STOP SWAP13 SWAP15 SWAP8 0xBE 0xED PUSH12 0x54FAE220BAD3CA0E7897ED85 PUSH5 0x736F6C6343 STOP ADDMOD BYTE STOP CALLER "
				},
				"gasEstimates": {
					"creation": {
						"codeDepositCost": "266400",
						"executionCost": "256486",
						"totalCost": "522886"
					},
					"external": {
						"addr()": "2553",
						"boo()": "2508",
						"defaultAddr()": "2596",
						"defaultBoo()": "2541",
						"defaultInt()": "2514",
						"defaultUint()": "2493",
						"i()": "2491",
						"i256()": "2492",
						"i8()": "2557",
						"neg()": "2492",
						"newAddr()": "2531",
						"newU()": "2512",
						"u()": "2469",
						"u256()": "2448",
						"u8()": "2538"
					}
				},
				"methodIdentifiers": {
					"addr()": "767800de",
					"boo()": "4b3df200",
					"defaultAddr()": "f2427d37",
					"defaultBoo()": "074eef3f",
					"defaultInt()": "5abe622b",
					"defaultUint()": "1570c2cb",
					"i()": "e5aa3d58",
					"i256()": "4c27fd62",
					"i8()": "921cda74",
					"neg()": "78063b1f",
					"newAddr()": "6a76e307",
					"newU()": "149d8ffc",
					"u()": "c6a898c5",
					"u256()": "459b1acf",
					"u8()": "ab3a58a3"
				}
			},
			"storageLayout": {
				"storage": [
					{
						"astId": 4,
						"contract": ".learneth/ethereum/remix-workshops/3. Primitive Data Types/primitiveDataTypes.sol:Primitives",
						"label": "boo",
						"offset": 0,
						"slot": "0",
						"type": "t_bool"
					},
					{
						"astId": 7,
						"contract": ".learneth/ethereum/remix-workshops/3. Primitive Data Types/primitiveDataTypes.sol:Primitives",
						"label": "u8",
						"offset": 1,
						"slot": "0",
						"type": "t_uint8"
					},
					{
						"astId": 10,
						"contract": ".learneth/ethereum/remix-workshops/3. Primitive Data Types/primitiveDataTypes.sol:Primitives",
						"label": "u256",
						"offset": 0,
						"slot": "1",
						"type": "t_uint256"
					},
					{
						"astId": 13,
						"contract": ".learneth/ethereum/remix-workshops/3. Primitive Data Types/primitiveDataTypes.sol:Primitives",
						"label": "u",
						"offset": 0,
						"slot": "2",
						"type": "t_uint256"
					},
					{
						"astId": 17,
						"contract": ".learneth/ethereum/remix-workshops/3. Primitive Data Types/primitiveDataTypes.sol:Primitives",
						"label": "i8",
						"offset": 0,
						"slot": "3",
						"type": "t_int8"
					},
					{
						"astId": 20,
						"contract": ".learneth/ethereum/remix-workshops/3. Primitive Data Types/primitiveDataTypes.sol:Primitives",
						"label": "i256",
						"offset": 0,
						"slot": "4",
						"type": "t_int256"
					},
					{
						"astId": 24,
						"contract": ".learneth/ethereum/remix-workshops/3. Primitive Data Types/primitiveDataTypes.sol:Primitives",
						"label": "i",
						"offset": 0,
						"slot": "5",
						"type": "t_int256"
					},
					{
						"astId": 27,
						"contract": ".learneth/ethereum/remix-workshops/3. Primitive Data Types/primitiveDataTypes.sol:Primitives",
						"label": "addr",
						"offset": 0,
						"slot": "6",
						"type": "t_address"
					},
					{
						"astId": 29,
						"contract": ".learneth/ethereum/remix-workshops/3. Primitive Data Types/primitiveDataTypes.sol:Primitives",
						"label": "defaultBoo",
						"offset": 20,
						"slot": "6",
						"type": "t_bool"
					},
					{
						"astId": 31,
						"contract": ".learneth/ethereum/remix-workshops/3. Primitive Data Types/primitiveDataTypes.sol:Primitives",
						"label": "defaultUint",
						"offset": 0,
						"slot": "7",
						"type": "t_uint256"
					},
					{
						"astId": 33,
						"contract": ".learneth/ethereum/remix-workshops/3. Primitive Data Types/primitiveDataTypes.sol:Primitives",
						"label": "defaultInt",
						"offset": 0,
						"slot": "8",
						"type": "t_int256"
					},
					{
						"astId": 35,
						"contract": ".learneth/ethereum/remix-workshops/3. Primitive Data Types/primitiveDataTypes.sol:Primitives",
						"label": "defaultAddr",
						"offset": 0,
						"slot": "9",
						"type": "t_address"
					},
					{
						"astId": 38,
						"contract": ".learneth/ethereum/remix-workshops/3. Primitive Data Types/primitiveDataTypes.sol:Primitives",
						"label": "newAddr",
						"offset": 0,
						"slot": "10",
						"type": "t_address"
					},
					{
						"astId": 42,
						"contract": ".learneth/ethereum/remix-workshops/3. Primitive Data Types/primitiveDataTypes.sol:Primitives",
						"label": "neg",
						"offset": 0,
						"slot": "11",
						"type": "t_int256"
					},
					{
						"astId": 45,
						"contract": ".learneth/ethereum/remix-workshops/3. Primitive Data Types/primitiveDataTypes.sol:Primitives",
						"label": "newU",
						"offset": 0,
						"slot": "12",
						"type": "t_uint8"
					}
				],
				"types": {
					"t_address": {
						"encoding": "inplace",
						"label": "address",
						"numberOfBytes": "20"
					},
					"t_bool": {
						"encoding": "inplace",
						"label": "bool",
						"numberOfBytes": "1"
					},
					"t_int256": {
						"encoding": "inplace",
						"label": "int256",
						"numberOfBytes": "32"
					},
					"t_int8": {
						"encoding": "inplace",
						"label": "int8",
						"numberOfBytes": "1"
					},
					"t_uint256": {
						"encoding": "inplace",
						"label": "uint256",
						"numberOfBytes": "32"
					},
					"t_uint8": {
						"encoding": "inplace",
						"label": "uint8",
						"numberOfBytes": "1"
					}
				}
			},
			"userdoc": {
				"kind": "user",
				"methods": {},
				"version": 1
			}
		}
	}
}