{
	".learneth/ethereum/remix-workshops/9. Data Locations/dataLocations_answer.sol": {
		"DataLocations": {
			"abi": [
				{
					"inputs": [
						{
							"internalType": "uint256",
							"name": "",
							"type": "uint256"
						}
					],
					"name": "arr",
					"outputs": [
						{
							"internalType": "uint256",
							"name": "",
							"type": "uint256"
						}
					],
					"stateMutability": "view",
					"type": "function"
				},
				{
					"inputs": [],
					"name": "f",
					"outputs": [
						{
							"components": [
								{
									"internalType": "uint256",
									"name": "foo",
									"type": "uint256"
								}
							],
							"internalType": "struct DataLocations.MyStruct",
							"name": "",
							"type": "tuple"
						},
						{
							"components": [
								{
									"internalType": "uint256",
									"name": "foo",
									"type": "uint256"
								}
							],
							"internalType": "struct DataLocations.MyStruct",
							"name": "",
							"type": "tuple"
						},
						{
							"components": [
								{
									"internalType": "uint256",
									"name": "foo",
									"type": "uint256"
								}
							],
							"internalType": "struct DataLocations.MyStruct",
							"name": "",
							"type": "tuple"
						}
					],
					"stateMutability": "nonpayable",
					"type": "function"
				},
				{
					"inputs": [
						{
							"internalType": "uint256[]",
							"name": "_arr",
							"type": "uint256[]"
						}
					],
					"name": "g",
					"outputs": [
						{
							"internalType": "uint256[]",
							"name": "",
							"type": "uint256[]"
						}
					],
					"stateMutability": "pure",
					"type": "function"
				},
				{
					"inputs": [
						{
							"internalType": "uint256[]",
							"name": "_arr",
							"type": "uint256[]"
						}
					],
					"name": "h",
					"outputs": [],
					"stateMutability": "nonpayable",
					"type": "function"
				},
				{
					"inputs": [
						{
							"internalType": "uint256",
							"name": "",
							"type": "uint256"
						}
					],
					"name": "myStructs",
					"outputs": [
						{
							"internalType": "uint256",
							"name": "foo",
							"type": "uint256"
						}
					],
					"stateMutability": "view",
					"type": "function"
				}
			],
			"devdoc": {
				"kind": "dev",
				"methods": {},
				"version": 1
			},
			"evm": {
				"assembly": "    /* \".learneth/ethereum/remix-workshops/9. Data Locations/dataLocations_answer.sol\":57:1359  contract DataLocations {... */\n  mstore(0x40, 0x80)\n  callvalue\n  dup1\n  iszero\n  tag_1\n  jumpi\n  0x00\n  dup1\n  revert\ntag_1:\n  pop\n  dataSize(sub_0)\n  dup1\n  dataOffset(sub_0)\n  0x00\n  codecopy\n  0x00\n  return\nstop\n\nsub_0: assembly {\n        /* \".learneth/ethereum/remix-workshops/9. Data Locations/dataLocations_answer.sol\":57:1359  contract DataLocations {... */\n      mstore(0x40, 0x80)\n      callvalue\n      dup1\n      iszero\n      tag_1\n      jumpi\n      0x00\n      dup1\n      revert\n    tag_1:\n      pop\n      jumpi(tag_2, lt(calldatasize, 0x04))\n      shr(0xe0, calldataload(0x00))\n      dup1\n      0x26121ff0\n      eq\n      tag_3\n      jumpi\n      dup1\n      0x40dcbb08\n      eq\n      tag_4\n      jumpi\n      dup1\n      0x71e5ee5f\n      eq\n      tag_5\n      jumpi\n      dup1\n      0xbaf71609\n      eq\n      tag_6\n      jumpi\n      dup1\n      0xdf90c8d3\n      eq\n      tag_7\n      jumpi\n    tag_2:\n      0x00\n      dup1\n      revert\n        /* \".learneth/ethereum/remix-workshops/9. Data Locations/dataLocations_answer.sol\":238:853  function f() public returns (MyStruct memory, MyStruct memory, MyStruct memory){... */\n    tag_3:\n      tag_8\n      tag_9\n      jump\t// in\n    tag_8:\n      mload(0x40)\n      tag_10\n      swap4\n      swap3\n      swap2\n      swap1\n      tag_11\n      jump\t// in\n    tag_10:\n      mload(0x40)\n      dup1\n      swap2\n      sub\n      swap1\n      return\n        /* \".learneth/ethereum/remix-workshops/9. Data Locations/dataLocations_answer.sol\":1240:1357  function h(uint[] calldata _arr) external {... */\n    tag_4:\n      tag_12\n      0x04\n      dup1\n      calldatasize\n      sub\n      dup2\n      add\n      swap1\n      tag_13\n      swap2\n      swap1\n      tag_14\n      jump\t// in\n    tag_13:\n      tag_15\n      jump\t// in\n    tag_12:\n      stop\n        /* \".learneth/ethereum/remix-workshops/9. Data Locations/dataLocations_answer.sol\":86:103  uint[] public arr */\n    tag_5:\n      tag_16\n      0x04\n      dup1\n      calldatasize\n      sub\n      dup2\n      add\n      swap1\n      tag_17\n      swap2\n      swap1\n      tag_18\n      jump\t// in\n    tag_17:\n      tag_19\n      jump\t// in\n    tag_16:\n      mload(0x40)\n      tag_20\n      swap2\n      swap1\n      tag_21\n      jump\t// in\n    tag_20:\n      mload(0x40)\n      dup1\n      swap2\n      sub\n      swap1\n      return\n        /* \".learneth/ethereum/remix-workshops/9. Data Locations/dataLocations_answer.sol\":1097:1234  function g(uint[] memory _arr) public pure returns (uint[] memory) {... */\n    tag_6:\n      tag_22\n      0x04\n      dup1\n      calldatasize\n      sub\n      dup2\n      add\n      swap1\n      tag_23\n      swap2\n      swap1\n      tag_24\n      jump\t// in\n    tag_23:\n      tag_25\n      jump\t// in\n    tag_22:\n      mload(0x40)\n      tag_26\n      swap2\n      swap1\n      tag_27\n      jump\t// in\n    tag_26:\n      mload(0x40)\n      dup1\n      swap2\n      sub\n      swap1\n      return\n        /* \".learneth/ethereum/remix-workshops/9. Data Locations/dataLocations_answer.sol\":189:231  mapping(uint => MyStruct) public myStructs */\n    tag_7:\n      tag_28\n      0x04\n      dup1\n      calldatasize\n      sub\n      dup2\n      add\n      swap1\n      tag_29\n      swap2\n      swap1\n      tag_18\n      jump\t// in\n    tag_29:\n      tag_30\n      jump\t// in\n    tag_28:\n      mload(0x40)\n      tag_31\n      swap2\n      swap1\n      tag_21\n      jump\t// in\n    tag_31:\n      mload(0x40)\n      dup1\n      swap2\n      sub\n      swap1\n      return\n        /* \".learneth/ethereum/remix-workshops/9. Data Locations/dataLocations_answer.sol\":238:853  function f() public returns (MyStruct memory, MyStruct memory, MyStruct memory){... */\n    tag_9:\n        /* \".learneth/ethereum/remix-workshops/9. Data Locations/dataLocations_answer.sol\":267:282  MyStruct memory */\n      tag_32\n      tag_33\n      jump\t// in\n    tag_32:\n        /* \".learneth/ethereum/remix-workshops/9. Data Locations/dataLocations_answer.sol\":284:299  MyStruct memory */\n      tag_34\n      tag_33\n      jump\t// in\n    tag_34:\n        /* \".learneth/ethereum/remix-workshops/9. Data Locations/dataLocations_answer.sol\":301:316  MyStruct memory */\n      tag_35\n      tag_33\n      jump\t// in\n    tag_35:\n        /* \".learneth/ethereum/remix-workshops/9. Data Locations/dataLocations_answer.sol\":367:393  _f(arr, map, myStructs[1]) */\n      tag_37\n        /* \".learneth/ethereum/remix-workshops/9. Data Locations/dataLocations_answer.sol\":370:373  arr */\n      0x00\n        /* \".learneth/ethereum/remix-workshops/9. Data Locations/dataLocations_answer.sol\":375:378  map */\n      0x01\n        /* \".learneth/ethereum/remix-workshops/9. Data Locations/dataLocations_answer.sol\":380:389  myStructs */\n      0x02\n        /* \".learneth/ethereum/remix-workshops/9. Data Locations/dataLocations_answer.sol\":380:392  myStructs[1] */\n      0x00\n        /* \".learneth/ethereum/remix-workshops/9. Data Locations/dataLocations_answer.sol\":390:391  1 */\n      0x01\n        /* \".learneth/ethereum/remix-workshops/9. Data Locations/dataLocations_answer.sol\":380:392  myStructs[1] */\n      dup2\n      mstore\n      0x20\n      add\n      swap1\n      dup2\n      mstore\n      0x20\n      add\n      0x00\n      keccak256\n        /* \".learneth/ethereum/remix-workshops/9. Data Locations/dataLocations_answer.sol\":367:369  _f */\n      tag_38\n        /* \".learneth/ethereum/remix-workshops/9. Data Locations/dataLocations_answer.sol\":367:393  _f(arr, map, myStructs[1]) */\n      jump\t// in\n    tag_37:\n        /* \".learneth/ethereum/remix-workshops/9. Data Locations/dataLocations_answer.sol\":443:468  MyStruct storage myStruct */\n      0x00\n        /* \".learneth/ethereum/remix-workshops/9. Data Locations/dataLocations_answer.sol\":471:480  myStructs */\n      0x02\n        /* \".learneth/ethereum/remix-workshops/9. Data Locations/dataLocations_answer.sol\":471:483  myStructs[1] */\n      0x00\n        /* \".learneth/ethereum/remix-workshops/9. Data Locations/dataLocations_answer.sol\":481:482  1 */\n      0x01\n        /* \".learneth/ethereum/remix-workshops/9. Data Locations/dataLocations_answer.sol\":471:483  myStructs[1] */\n      dup2\n      mstore\n      0x20\n      add\n      swap1\n      dup2\n      mstore\n      0x20\n      add\n      0x00\n      keccak256\n        /* \".learneth/ethereum/remix-workshops/9. Data Locations/dataLocations_answer.sol\":443:483  MyStruct storage myStruct = myStructs[1] */\n      swap1\n      pop\n        /* \".learneth/ethereum/remix-workshops/9. Data Locations/dataLocations_answer.sol\":530:557  MyStruct memory myMemStruct */\n      0x00\n        /* \".learneth/ethereum/remix-workshops/9. Data Locations/dataLocations_answer.sol\":560:571  MyStruct(0) */\n      mload(0x40)\n      dup1\n      0x20\n      add\n      0x40\n      mstore\n      dup1\n        /* \".learneth/ethereum/remix-workshops/9. Data Locations/dataLocations_answer.sol\":569:570  0 */\n      0x00\n        /* \".learneth/ethereum/remix-workshops/9. Data Locations/dataLocations_answer.sol\":560:571  MyStruct(0) */\n      dup2\n      mstore\n      pop\n        /* \".learneth/ethereum/remix-workshops/9. Data Locations/dataLocations_answer.sol\":530:571  MyStruct memory myMemStruct = MyStruct(0) */\n      swap1\n      pop\n        /* \".learneth/ethereum/remix-workshops/9. Data Locations/dataLocations_answer.sol\":618:619  4 */\n      0x04\n        /* \".learneth/ethereum/remix-workshops/9. Data Locations/dataLocations_answer.sol\":603:611  myStruct */\n      dup3\n        /* \".learneth/ethereum/remix-workshops/9. Data Locations/dataLocations_answer.sol\":603:615  myStruct.foo */\n      0x00\n      add\n        /* \".learneth/ethereum/remix-workshops/9. Data Locations/dataLocations_answer.sol\":603:619  myStruct.foo = 4 */\n      dup2\n      swap1\n      sstore\n      pop\n        /* \".learneth/ethereum/remix-workshops/9. Data Locations/dataLocations_answer.sol\":629:657  MyStruct memory myMemStruct2 */\n      0x00\n        /* \".learneth/ethereum/remix-workshops/9. Data Locations/dataLocations_answer.sol\":660:671  myMemStruct */\n      dup2\n        /* \".learneth/ethereum/remix-workshops/9. Data Locations/dataLocations_answer.sol\":629:671  MyStruct memory myMemStruct2 = myMemStruct */\n      swap1\n      pop\n        /* \".learneth/ethereum/remix-workshops/9. Data Locations/dataLocations_answer.sol\":700:701  1 */\n      0x01\n        /* \".learneth/ethereum/remix-workshops/9. Data Locations/dataLocations_answer.sol\":681:693  myMemStruct2 */\n      dup2\n        /* \".learneth/ethereum/remix-workshops/9. Data Locations/dataLocations_answer.sol\":681:697  myMemStruct2.foo */\n      0x00\n      add\n        /* \".learneth/ethereum/remix-workshops/9. Data Locations/dataLocations_answer.sol\":681:701  myMemStruct2.foo = 1 */\n      dup2\n      dup2\n      mstore\n      pop\n      pop\n        /* \".learneth/ethereum/remix-workshops/9. Data Locations/dataLocations_answer.sol\":720:748  MyStruct memory myMemStruct3 */\n      0x00\n        /* \".learneth/ethereum/remix-workshops/9. Data Locations/dataLocations_answer.sol\":751:759  myStruct */\n      dup4\n        /* \".learneth/ethereum/remix-workshops/9. Data Locations/dataLocations_answer.sol\":720:759  MyStruct memory myMemStruct3 = myStruct */\n      mload(0x40)\n      dup1\n      0x20\n      add\n      0x40\n      mstore\n      swap1\n      dup2\n      0x00\n      dup3\n      add\n      sload\n      dup2\n      mstore\n      pop\n      pop\n      swap1\n      pop\n        /* \".learneth/ethereum/remix-workshops/9. Data Locations/dataLocations_answer.sol\":788:789  3 */\n      0x03\n        /* \".learneth/ethereum/remix-workshops/9. Data Locations/dataLocations_answer.sol\":769:781  myMemStruct3 */\n      dup2\n        /* \".learneth/ethereum/remix-workshops/9. Data Locations/dataLocations_answer.sol\":769:785  myMemStruct3.foo */\n      0x00\n      add\n        /* \".learneth/ethereum/remix-workshops/9. Data Locations/dataLocations_answer.sol\":769:789  myMemStruct3.foo = 3 */\n      dup2\n      dup2\n      mstore\n      pop\n      pop\n        /* \".learneth/ethereum/remix-workshops/9. Data Locations/dataLocations_answer.sol\":809:817  myStruct */\n      dup4\n        /* \".learneth/ethereum/remix-workshops/9. Data Locations/dataLocations_answer.sol\":819:831  myMemStruct2 */\n      dup3\n        /* \".learneth/ethereum/remix-workshops/9. Data Locations/dataLocations_answer.sol\":833:845  myMemStruct3 */\n      dup3\n        /* \".learneth/ethereum/remix-workshops/9. Data Locations/dataLocations_answer.sol\":801:846  return (myStruct, myMemStruct2, myMemStruct3) */\n      dup3\n      mload(0x40)\n      dup1\n      0x20\n      add\n      0x40\n      mstore\n      swap1\n      dup2\n      0x00\n      dup3\n      add\n      sload\n      dup2\n      mstore\n      pop\n      pop\n      swap3\n      pop\n      swap7\n      pop\n      swap7\n      pop\n      swap7\n      pop\n      pop\n      pop\n      pop\n      pop\n        /* \".learneth/ethereum/remix-workshops/9. Data Locations/dataLocations_answer.sol\":238:853  function f() public returns (MyStruct memory, MyStruct memory, MyStruct memory){... */\n      swap1\n      swap2\n      swap3\n      jump\t// out\n        /* \".learneth/ethereum/remix-workshops/9. Data Locations/dataLocations_answer.sol\":1240:1357  function h(uint[] calldata _arr) external {... */\n    tag_15:\n      pop\n      pop\n      jump\t// out\n        /* \".learneth/ethereum/remix-workshops/9. Data Locations/dataLocations_answer.sol\":86:103  uint[] public arr */\n    tag_19:\n      0x00\n      dup2\n      dup2\n      sload\n      dup2\n      lt\n      tag_40\n      jumpi\n      0x00\n      dup1\n      revert\n    tag_40:\n      swap1\n      0x00\n      mstore\n      keccak256(0x00, 0x20)\n      add\n      0x00\n      swap2\n      pop\n      swap1\n      pop\n      sload\n      dup2\n      jump\t// out\n        /* \".learneth/ethereum/remix-workshops/9. Data Locations/dataLocations_answer.sol\":1097:1234  function g(uint[] memory _arr) public pure returns (uint[] memory) {... */\n    tag_25:\n        /* \".learneth/ethereum/remix-workshops/9. Data Locations/dataLocations_answer.sol\":1149:1162  uint[] memory */\n      0x60\n        /* \".learneth/ethereum/remix-workshops/9. Data Locations/dataLocations_answer.sol\":1226:1227  1 */\n      0x01\n        /* \".learneth/ethereum/remix-workshops/9. Data Locations/dataLocations_answer.sol\":1216:1220  _arr */\n      dup3\n        /* \".learneth/ethereum/remix-workshops/9. Data Locations/dataLocations_answer.sol\":1221:1222  0 */\n      0x00\n        /* \".learneth/ethereum/remix-workshops/9. Data Locations/dataLocations_answer.sol\":1216:1223  _arr[0] */\n      dup2\n      mload\n      dup2\n      lt\n      tag_43\n      jumpi\n      tag_44\n      tag_45\n      jump\t// in\n    tag_44:\n    tag_43:\n      0x20\n      mul\n      0x20\n      add\n      add\n        /* \".learneth/ethereum/remix-workshops/9. Data Locations/dataLocations_answer.sol\":1216:1227  _arr[0] = 1 */\n      dup2\n      dup2\n      mstore\n      pop\n      pop\n        /* \".learneth/ethereum/remix-workshops/9. Data Locations/dataLocations_answer.sol\":1097:1234  function g(uint[] memory _arr) public pure returns (uint[] memory) {... */\n      swap2\n      swap1\n      pop\n      jump\t// out\n        /* \".learneth/ethereum/remix-workshops/9. Data Locations/dataLocations_answer.sol\":189:231  mapping(uint => MyStruct) public myStructs */\n    tag_30:\n      mstore(0x20, 0x02)\n      dup1\n      0x00\n      mstore\n      keccak256(0x00, 0x40)\n      0x00\n      swap2\n      pop\n      swap1\n      pop\n      dup1\n      0x00\n      add\n      sload\n      swap1\n      pop\n      dup2\n      jump\t// out\n        /* \".learneth/ethereum/remix-workshops/9. Data Locations/dataLocations_answer.sol\":859:1052  function _f(... */\n    tag_38:\n      pop\n      pop\n      pop\n      jump\t// out\n    tag_33:\n      mload(0x40)\n      dup1\n      0x20\n      add\n      0x40\n      mstore\n      dup1\n      0x00\n      dup2\n      mstore\n      pop\n      swap1\n      jump\t// out\n        /* \"#utility.yul\":7:84   */\n    tag_47:\n        /* \"#utility.yul\":44:51   */\n      0x00\n        /* \"#utility.yul\":73:78   */\n      dup2\n        /* \"#utility.yul\":62:78   */\n      swap1\n      pop\n        /* \"#utility.yul\":7:84   */\n      swap2\n      swap1\n      pop\n      jump\t// out\n        /* \"#utility.yul\":90:198   */\n    tag_48:\n        /* \"#utility.yul\":167:191   */\n      tag_76\n        /* \"#utility.yul\":185:190   */\n      dup2\n        /* \"#utility.yul\":167:191   */\n      tag_47\n      jump\t// in\n    tag_76:\n        /* \"#utility.yul\":162:165   */\n      dup3\n        /* \"#utility.yul\":155:192   */\n      mstore\n        /* \"#utility.yul\":90:198   */\n      pop\n      pop\n      jump\t// out\n        /* \"#utility.yul\":274:604   */\n    tag_49:\n        /* \"#utility.yul\":419:423   */\n      0x20\n        /* \"#utility.yul\":414:417   */\n      dup3\n        /* \"#utility.yul\":410:424   */\n      add\n        /* \"#utility.yul\":505:509   */\n      0x00\n        /* \"#utility.yul\":498:503   */\n      dup3\n        /* \"#utility.yul\":494:510   */\n      add\n        /* \"#utility.yul\":488:511   */\n      mload\n        /* \"#utility.yul\":524:587   */\n      tag_78\n        /* \"#utility.yul\":581:585   */\n      0x00\n        /* \"#utility.yul\":576:579   */\n      dup6\n        /* \"#utility.yul\":572:586   */\n      add\n        /* \"#utility.yul\":558:570   */\n      dup3\n        /* \"#utility.yul\":524:587   */\n      tag_48\n      jump\t// in\n    tag_78:\n        /* \"#utility.yul\":434:597   */\n      pop\n        /* \"#utility.yul\":388:604   */\n      pop\n        /* \"#utility.yul\":274:604   */\n      pop\n      pop\n      jump\t// out\n        /* \"#utility.yul\":610:1340   */\n    tag_11:\n        /* \"#utility.yul\":903:907   */\n      0x00\n        /* \"#utility.yul\":941:943   */\n      0x60\n        /* \"#utility.yul\":930:939   */\n      dup3\n        /* \"#utility.yul\":926:944   */\n      add\n        /* \"#utility.yul\":918:944   */\n      swap1\n      pop\n        /* \"#utility.yul\":954:1073   */\n      tag_80\n        /* \"#utility.yul\":1070:1071   */\n      0x00\n        /* \"#utility.yul\":1059:1068   */\n      dup4\n        /* \"#utility.yul\":1055:1072   */\n      add\n        /* \"#utility.yul\":1046:1052   */\n      dup7\n        /* \"#utility.yul\":954:1073   */\n      tag_49\n      jump\t// in\n    tag_80:\n        /* \"#utility.yul\":1083:1203   */\n      tag_81\n        /* \"#utility.yul\":1199:1201   */\n      0x20\n        /* \"#utility.yul\":1188:1197   */\n      dup4\n        /* \"#utility.yul\":1184:1202   */\n      add\n        /* \"#utility.yul\":1175:1181   */\n      dup6\n        /* \"#utility.yul\":1083:1203   */\n      tag_49\n      jump\t// in\n    tag_81:\n        /* \"#utility.yul\":1213:1333   */\n      tag_82\n        /* \"#utility.yul\":1329:1331   */\n      0x40\n        /* \"#utility.yul\":1318:1327   */\n      dup4\n        /* \"#utility.yul\":1314:1332   */\n      add\n        /* \"#utility.yul\":1305:1311   */\n      dup5\n        /* \"#utility.yul\":1213:1333   */\n      tag_49\n      jump\t// in\n    tag_82:\n        /* \"#utility.yul\":610:1340   */\n      swap5\n      swap4\n      pop\n      pop\n      pop\n      pop\n      jump\t// out\n        /* \"#utility.yul\":1346:1421   */\n    tag_50:\n        /* \"#utility.yul\":1379:1385   */\n      0x00\n        /* \"#utility.yul\":1412:1414   */\n      0x40\n        /* \"#utility.yul\":1406:1415   */\n      mload\n        /* \"#utility.yul\":1396:1415   */\n      swap1\n      pop\n        /* \"#utility.yul\":1346:1421   */\n      swap1\n      jump\t// out\n        /* \"#utility.yul\":1427:1544   */\n    tag_51:\n        /* \"#utility.yul\":1536:1537   */\n      0x00\n        /* \"#utility.yul\":1533:1534   */\n      dup1\n        /* \"#utility.yul\":1526:1538   */\n      revert\n        /* \"#utility.yul\":1550:1667   */\n    tag_52:\n        /* \"#utility.yul\":1659:1660   */\n      0x00\n        /* \"#utility.yul\":1656:1657   */\n      dup1\n        /* \"#utility.yul\":1649:1661   */\n      revert\n        /* \"#utility.yul\":1673:1790   */\n    tag_53:\n        /* \"#utility.yul\":1782:1783   */\n      0x00\n        /* \"#utility.yul\":1779:1780   */\n      dup1\n        /* \"#utility.yul\":1772:1784   */\n      revert\n        /* \"#utility.yul\":1796:1913   */\n    tag_54:\n        /* \"#utility.yul\":1905:1906   */\n      0x00\n        /* \"#utility.yul\":1902:1903   */\n      dup1\n        /* \"#utility.yul\":1895:1907   */\n      revert\n        /* \"#utility.yul\":1919:2036   */\n    tag_55:\n        /* \"#utility.yul\":2028:2029   */\n      0x00\n        /* \"#utility.yul\":2025:2026   */\n      dup1\n        /* \"#utility.yul\":2018:2030   */\n      revert\n        /* \"#utility.yul\":2059:2627   */\n    tag_56:\n        /* \"#utility.yul\":2132:2140   */\n      0x00\n        /* \"#utility.yul\":2142:2148   */\n      dup1\n        /* \"#utility.yul\":2192:2195   */\n      dup4\n        /* \"#utility.yul\":2185:2189   */\n      0x1f\n        /* \"#utility.yul\":2177:2183   */\n      dup5\n        /* \"#utility.yul\":2173:2190   */\n      add\n        /* \"#utility.yul\":2169:2196   */\n      slt\n        /* \"#utility.yul\":2159:2281   */\n      tag_90\n      jumpi\n        /* \"#utility.yul\":2200:2279   */\n      tag_91\n      tag_53\n      jump\t// in\n    tag_91:\n        /* \"#utility.yul\":2159:2281   */\n    tag_90:\n        /* \"#utility.yul\":2313:2319   */\n      dup3\n        /* \"#utility.yul\":2300:2320   */\n      calldataload\n        /* \"#utility.yul\":2290:2320   */\n      swap1\n      pop\n        /* \"#utility.yul\":2343:2361   */\n      0xffffffffffffffff\n        /* \"#utility.yul\":2335:2341   */\n      dup2\n        /* \"#utility.yul\":2332:2362   */\n      gt\n        /* \"#utility.yul\":2329:2446   */\n      iszero\n      tag_92\n      jumpi\n        /* \"#utility.yul\":2365:2444   */\n      tag_93\n      tag_54\n      jump\t// in\n    tag_93:\n        /* \"#utility.yul\":2329:2446   */\n    tag_92:\n        /* \"#utility.yul\":2479:2483   */\n      0x20\n        /* \"#utility.yul\":2471:2477   */\n      dup4\n        /* \"#utility.yul\":2467:2484   */\n      add\n        /* \"#utility.yul\":2455:2484   */\n      swap2\n      pop\n        /* \"#utility.yul\":2533:2536   */\n      dup4\n        /* \"#utility.yul\":2525:2529   */\n      0x20\n        /* \"#utility.yul\":2517:2523   */\n      dup3\n        /* \"#utility.yul\":2513:2530   */\n      mul\n        /* \"#utility.yul\":2503:2511   */\n      dup4\n        /* \"#utility.yul\":2499:2531   */\n      add\n        /* \"#utility.yul\":2496:2537   */\n      gt\n        /* \"#utility.yul\":2493:2621   */\n      iszero\n      tag_94\n      jumpi\n        /* \"#utility.yul\":2540:2619   */\n      tag_95\n      tag_55\n      jump\t// in\n    tag_95:\n        /* \"#utility.yul\":2493:2621   */\n    tag_94:\n        /* \"#utility.yul\":2059:2627   */\n      swap3\n      pop\n      swap3\n      swap1\n      pop\n      jump\t// out\n        /* \"#utility.yul\":2633:3192   */\n    tag_14:\n        /* \"#utility.yul\":2719:2725   */\n      0x00\n        /* \"#utility.yul\":2727:2733   */\n      dup1\n        /* \"#utility.yul\":2776:2778   */\n      0x20\n        /* \"#utility.yul\":2764:2773   */\n      dup4\n        /* \"#utility.yul\":2755:2762   */\n      dup6\n        /* \"#utility.yul\":2751:2774   */\n      sub\n        /* \"#utility.yul\":2747:2779   */\n      slt\n        /* \"#utility.yul\":2744:2863   */\n      iszero\n      tag_97\n      jumpi\n        /* \"#utility.yul\":2782:2861   */\n      tag_98\n      tag_51\n      jump\t// in\n    tag_98:\n        /* \"#utility.yul\":2744:2863   */\n    tag_97:\n        /* \"#utility.yul\":2930:2931   */\n      0x00\n        /* \"#utility.yul\":2919:2928   */\n      dup4\n        /* \"#utility.yul\":2915:2932   */\n      add\n        /* \"#utility.yul\":2902:2933   */\n      calldataload\n        /* \"#utility.yul\":2960:2978   */\n      0xffffffffffffffff\n        /* \"#utility.yul\":2952:2958   */\n      dup2\n        /* \"#utility.yul\":2949:2979   */\n      gt\n        /* \"#utility.yul\":2946:3063   */\n      iszero\n      tag_99\n      jumpi\n        /* \"#utility.yul\":2982:3061   */\n      tag_100\n      tag_52\n      jump\t// in\n    tag_100:\n        /* \"#utility.yul\":2946:3063   */\n    tag_99:\n        /* \"#utility.yul\":3095:3175   */\n      tag_101\n        /* \"#utility.yul\":3167:3174   */\n      dup6\n        /* \"#utility.yul\":3158:3164   */\n      dup3\n        /* \"#utility.yul\":3147:3156   */\n      dup7\n        /* \"#utility.yul\":3143:3165   */\n      add\n        /* \"#utility.yul\":3095:3175   */\n      tag_56\n      jump\t// in\n    tag_101:\n        /* \"#utility.yul\":3077:3175   */\n      swap3\n      pop\n      swap3\n      pop\n        /* \"#utility.yul\":2873:3185   */\n      pop\n        /* \"#utility.yul\":2633:3192   */\n      swap3\n      pop\n      swap3\n      swap1\n      pop\n      jump\t// out\n        /* \"#utility.yul\":3198:3320   */\n    tag_57:\n        /* \"#utility.yul\":3271:3295   */\n      tag_103\n        /* \"#utility.yul\":3289:3294   */\n      dup2\n        /* \"#utility.yul\":3271:3295   */\n      tag_47\n      jump\t// in\n    tag_103:\n        /* \"#utility.yul\":3264:3269   */\n      dup2\n        /* \"#utility.yul\":3261:3296   */\n      eq\n        /* \"#utility.yul\":3251:3314   */\n      tag_104\n      jumpi\n        /* \"#utility.yul\":3310:3311   */\n      0x00\n        /* \"#utility.yul\":3307:3308   */\n      dup1\n        /* \"#utility.yul\":3300:3312   */\n      revert\n        /* \"#utility.yul\":3251:3314   */\n    tag_104:\n        /* \"#utility.yul\":3198:3320   */\n      pop\n      jump\t// out\n        /* \"#utility.yul\":3326:3465   */\n    tag_58:\n        /* \"#utility.yul\":3372:3377   */\n      0x00\n        /* \"#utility.yul\":3410:3416   */\n      dup2\n        /* \"#utility.yul\":3397:3417   */\n      calldataload\n        /* \"#utility.yul\":3388:3417   */\n      swap1\n      pop\n        /* \"#utility.yul\":3426:3459   */\n      tag_106\n        /* \"#utility.yul\":3453:3458   */\n      dup2\n        /* \"#utility.yul\":3426:3459   */\n      tag_57\n      jump\t// in\n    tag_106:\n        /* \"#utility.yul\":3326:3465   */\n      swap3\n      swap2\n      pop\n      pop\n      jump\t// out\n        /* \"#utility.yul\":3471:3800   */\n    tag_18:\n        /* \"#utility.yul\":3530:3536   */\n      0x00\n        /* \"#utility.yul\":3579:3581   */\n      0x20\n        /* \"#utility.yul\":3567:3576   */\n      dup3\n        /* \"#utility.yul\":3558:3565   */\n      dup5\n        /* \"#utility.yul\":3554:3577   */\n      sub\n        /* \"#utility.yul\":3550:3582   */\n      slt\n        /* \"#utility.yul\":3547:3666   */\n      iszero\n      tag_108\n      jumpi\n        /* \"#utility.yul\":3585:3664   */\n      tag_109\n      tag_51\n      jump\t// in\n    tag_109:\n        /* \"#utility.yul\":3547:3666   */\n    tag_108:\n        /* \"#utility.yul\":3705:3706   */\n      0x00\n        /* \"#utility.yul\":3730:3783   */\n      tag_110\n        /* \"#utility.yul\":3775:3782   */\n      dup5\n        /* \"#utility.yul\":3766:3772   */\n      dup3\n        /* \"#utility.yul\":3755:3764   */\n      dup6\n        /* \"#utility.yul\":3751:3773   */\n      add\n        /* \"#utility.yul\":3730:3783   */\n      tag_58\n      jump\t// in\n    tag_110:\n        /* \"#utility.yul\":3720:3783   */\n      swap2\n      pop\n        /* \"#utility.yul\":3676:3793   */\n      pop\n        /* \"#utility.yul\":3471:3800   */\n      swap3\n      swap2\n      pop\n      pop\n      jump\t// out\n        /* \"#utility.yul\":3806:3924   */\n    tag_59:\n        /* \"#utility.yul\":3893:3917   */\n      tag_112\n        /* \"#utility.yul\":3911:3916   */\n      dup2\n        /* \"#utility.yul\":3893:3917   */\n      tag_47\n      jump\t// in\n    tag_112:\n        /* \"#utility.yul\":3888:3891   */\n      dup3\n        /* \"#utility.yul\":3881:3918   */\n      mstore\n        /* \"#utility.yul\":3806:3924   */\n      pop\n      pop\n      jump\t// out\n        /* \"#utility.yul\":3930:4152   */\n    tag_21:\n        /* \"#utility.yul\":4023:4027   */\n      0x00\n        /* \"#utility.yul\":4061:4063   */\n      0x20\n        /* \"#utility.yul\":4050:4059   */\n      dup3\n        /* \"#utility.yul\":4046:4064   */\n      add\n        /* \"#utility.yul\":4038:4064   */\n      swap1\n      pop\n        /* \"#utility.yul\":4074:4145   */\n      tag_114\n        /* \"#utility.yul\":4142:4143   */\n      0x00\n        /* \"#utility.yul\":4131:4140   */\n      dup4\n        /* \"#utility.yul\":4127:4144   */\n      add\n        /* \"#utility.yul\":4118:4124   */\n      dup5\n        /* \"#utility.yul\":4074:4145   */\n      tag_59\n      jump\t// in\n    tag_114:\n        /* \"#utility.yul\":3930:4152   */\n      swap3\n      swap2\n      pop\n      pop\n      jump\t// out\n        /* \"#utility.yul\":4158:4260   */\n    tag_60:\n        /* \"#utility.yul\":4199:4205   */\n      0x00\n        /* \"#utility.yul\":4250:4252   */\n      0x1f\n        /* \"#utility.yul\":4246:4253   */\n      not\n        /* \"#utility.yul\":4241:4243   */\n      0x1f\n        /* \"#utility.yul\":4234:4239   */\n      dup4\n        /* \"#utility.yul\":4230:4244   */\n      add\n        /* \"#utility.yul\":4226:4254   */\n      and\n        /* \"#utility.yul\":4216:4254   */\n      swap1\n      pop\n        /* \"#utility.yul\":4158:4260   */\n      swap2\n      swap1\n      pop\n      jump\t// out\n        /* \"#utility.yul\":4266:4446   */\n    tag_61:\n        /* \"#utility.yul\":4314:4391   */\n      0x4e487b7100000000000000000000000000000000000000000000000000000000\n        /* \"#utility.yul\":4311:4312   */\n      0x00\n        /* \"#utility.yul\":4304:4392   */\n      mstore\n        /* \"#utility.yul\":4411:4415   */\n      0x41\n        /* \"#utility.yul\":4408:4409   */\n      0x04\n        /* \"#utility.yul\":4401:4416   */\n      mstore\n        /* \"#utility.yul\":4435:4439   */\n      0x24\n        /* \"#utility.yul\":4432:4433   */\n      0x00\n        /* \"#utility.yul\":4425:4440   */\n      revert\n        /* \"#utility.yul\":4452:4733   */\n    tag_62:\n        /* \"#utility.yul\":4535:4562   */\n      tag_118\n        /* \"#utility.yul\":4557:4561   */\n      dup3\n        /* \"#utility.yul\":4535:4562   */\n      tag_60\n      jump\t// in\n    tag_118:\n        /* \"#utility.yul\":4527:4533   */\n      dup2\n        /* \"#utility.yul\":4523:4563   */\n      add\n        /* \"#utility.yul\":4665:4671   */\n      dup2\n        /* \"#utility.yul\":4653:4663   */\n      dup2\n        /* \"#utility.yul\":4650:4672   */\n      lt\n        /* \"#utility.yul\":4629:4647   */\n      0xffffffffffffffff\n        /* \"#utility.yul\":4617:4627   */\n      dup3\n        /* \"#utility.yul\":4614:4648   */\n      gt\n        /* \"#utility.yul\":4611:4673   */\n      or\n        /* \"#utility.yul\":4608:4696   */\n      iszero\n      tag_119\n      jumpi\n        /* \"#utility.yul\":4676:4694   */\n      tag_120\n      tag_61\n      jump\t// in\n    tag_120:\n        /* \"#utility.yul\":4608:4696   */\n    tag_119:\n        /* \"#utility.yul\":4716:4726   */\n      dup1\n        /* \"#utility.yul\":4712:4714   */\n      0x40\n        /* \"#utility.yul\":4705:4727   */\n      mstore\n        /* \"#utility.yul\":4495:4733   */\n      pop\n        /* \"#utility.yul\":4452:4733   */\n      pop\n      pop\n      jump\t// out\n        /* \"#utility.yul\":4739:4868   */\n    tag_63:\n        /* \"#utility.yul\":4773:4779   */\n      0x00\n        /* \"#utility.yul\":4800:4820   */\n      tag_122\n      tag_50\n      jump\t// in\n    tag_122:\n        /* \"#utility.yul\":4790:4820   */\n      swap1\n      pop\n        /* \"#utility.yul\":4829:4862   */\n      tag_123\n        /* \"#utility.yul\":4857:4861   */\n      dup3\n        /* \"#utility.yul\":4849:4855   */\n      dup3\n        /* \"#utility.yul\":4829:4862   */\n      tag_62\n      jump\t// in\n    tag_123:\n        /* \"#utility.yul\":4739:4868   */\n      swap2\n      swap1\n      pop\n      jump\t// out\n        /* \"#utility.yul\":4874:5185   */\n    tag_64:\n        /* \"#utility.yul\":4951:4955   */\n      0x00\n        /* \"#utility.yul\":5041:5059   */\n      0xffffffffffffffff\n        /* \"#utility.yul\":5033:5039   */\n      dup3\n        /* \"#utility.yul\":5030:5060   */\n      gt\n        /* \"#utility.yul\":5027:5083   */\n      iszero\n      tag_125\n      jumpi\n        /* \"#utility.yul\":5063:5081   */\n      tag_126\n      tag_61\n      jump\t// in\n    tag_126:\n        /* \"#utility.yul\":5027:5083   */\n    tag_125:\n        /* \"#utility.yul\":5113:5117   */\n      0x20\n        /* \"#utility.yul\":5105:5111   */\n      dup3\n        /* \"#utility.yul\":5101:5118   */\n      mul\n        /* \"#utility.yul\":5093:5118   */\n      swap1\n      pop\n        /* \"#utility.yul\":5173:5177   */\n      0x20\n        /* \"#utility.yul\":5167:5171   */\n      dup2\n        /* \"#utility.yul\":5163:5178   */\n      add\n        /* \"#utility.yul\":5155:5178   */\n      swap1\n      pop\n        /* \"#utility.yul\":4874:5185   */\n      swap2\n      swap1\n      pop\n      jump\t// out\n        /* \"#utility.yul\":5208:5918   */\n    tag_65:\n        /* \"#utility.yul\":5304:5309   */\n      0x00\n        /* \"#utility.yul\":5329:5410   */\n      tag_128\n        /* \"#utility.yul\":5345:5409   */\n      tag_129\n        /* \"#utility.yul\":5402:5408   */\n      dup5\n        /* \"#utility.yul\":5345:5409   */\n      tag_64\n      jump\t// in\n    tag_129:\n        /* \"#utility.yul\":5329:5410   */\n      tag_63\n      jump\t// in\n    tag_128:\n        /* \"#utility.yul\":5320:5410   */\n      swap1\n      pop\n        /* \"#utility.yul\":5430:5435   */\n      dup1\n        /* \"#utility.yul\":5459:5465   */\n      dup4\n        /* \"#utility.yul\":5452:5457   */\n      dup3\n        /* \"#utility.yul\":5445:5466   */\n      mstore\n        /* \"#utility.yul\":5493:5497   */\n      0x20\n        /* \"#utility.yul\":5486:5491   */\n      dup3\n        /* \"#utility.yul\":5482:5498   */\n      add\n        /* \"#utility.yul\":5475:5498   */\n      swap1\n      pop\n        /* \"#utility.yul\":5546:5550   */\n      0x20\n        /* \"#utility.yul\":5538:5544   */\n      dup5\n        /* \"#utility.yul\":5534:5551   */\n      mul\n        /* \"#utility.yul\":5526:5532   */\n      dup4\n        /* \"#utility.yul\":5522:5552   */\n      add\n        /* \"#utility.yul\":5575:5578   */\n      dup6\n        /* \"#utility.yul\":5567:5573   */\n      dup2\n        /* \"#utility.yul\":5564:5579   */\n      gt\n        /* \"#utility.yul\":5561:5683   */\n      iszero\n      tag_130\n      jumpi\n        /* \"#utility.yul\":5594:5673   */\n      tag_131\n      tag_55\n      jump\t// in\n    tag_131:\n        /* \"#utility.yul\":5561:5683   */\n    tag_130:\n        /* \"#utility.yul\":5709:5715   */\n      dup4\n        /* \"#utility.yul\":5692:5912   */\n    tag_132:\n        /* \"#utility.yul\":5726:5732   */\n      dup2\n        /* \"#utility.yul\":5721:5724   */\n      dup2\n        /* \"#utility.yul\":5718:5733   */\n      lt\n        /* \"#utility.yul\":5692:5912   */\n      iszero\n      tag_134\n      jumpi\n        /* \"#utility.yul\":5801:5804   */\n      dup1\n        /* \"#utility.yul\":5830:5867   */\n      tag_135\n        /* \"#utility.yul\":5863:5866   */\n      dup9\n        /* \"#utility.yul\":5851:5861   */\n      dup3\n        /* \"#utility.yul\":5830:5867   */\n      tag_58\n      jump\t// in\n    tag_135:\n        /* \"#utility.yul\":5825:5828   */\n      dup5\n        /* \"#utility.yul\":5818:5868   */\n      mstore\n        /* \"#utility.yul\":5897:5901   */\n      0x20\n        /* \"#utility.yul\":5892:5895   */\n      dup5\n        /* \"#utility.yul\":5888:5902   */\n      add\n        /* \"#utility.yul\":5881:5902   */\n      swap4\n      pop\n        /* \"#utility.yul\":5768:5912   */\n      pop\n        /* \"#utility.yul\":5752:5756   */\n      0x20\n        /* \"#utility.yul\":5747:5750   */\n      dup2\n        /* \"#utility.yul\":5743:5757   */\n      add\n        /* \"#utility.yul\":5736:5757   */\n      swap1\n      pop\n        /* \"#utility.yul\":5692:5912   */\n      jump(tag_132)\n    tag_134:\n        /* \"#utility.yul\":5696:5717   */\n      pop\n        /* \"#utility.yul\":5310:5918   */\n      pop\n      pop\n        /* \"#utility.yul\":5208:5918   */\n      swap4\n      swap3\n      pop\n      pop\n      pop\n      jump\t// out\n        /* \"#utility.yul\":5941:6311   */\n    tag_66:\n        /* \"#utility.yul\":6012:6017   */\n      0x00\n        /* \"#utility.yul\":6061:6064   */\n      dup3\n        /* \"#utility.yul\":6054:6058   */\n      0x1f\n        /* \"#utility.yul\":6046:6052   */\n      dup4\n        /* \"#utility.yul\":6042:6059   */\n      add\n        /* \"#utility.yul\":6038:6065   */\n      slt\n        /* \"#utility.yul\":6028:6150   */\n      tag_137\n      jumpi\n        /* \"#utility.yul\":6069:6148   */\n      tag_138\n      tag_53\n      jump\t// in\n    tag_138:\n        /* \"#utility.yul\":6028:6150   */\n    tag_137:\n        /* \"#utility.yul\":6186:6192   */\n      dup2\n        /* \"#utility.yul\":6173:6193   */\n      calldataload\n        /* \"#utility.yul\":6211:6305   */\n      tag_139\n        /* \"#utility.yul\":6301:6304   */\n      dup5\n        /* \"#utility.yul\":6293:6299   */\n      dup3\n        /* \"#utility.yul\":6286:6290   */\n      0x20\n        /* \"#utility.yul\":6278:6284   */\n      dup7\n        /* \"#utility.yul\":6274:6291   */\n      add\n        /* \"#utility.yul\":6211:6305   */\n      tag_65\n      jump\t// in\n    tag_139:\n        /* \"#utility.yul\":6202:6305   */\n      swap2\n      pop\n        /* \"#utility.yul\":6018:6311   */\n      pop\n        /* \"#utility.yul\":5941:6311   */\n      swap3\n      swap2\n      pop\n      pop\n      jump\t// out\n        /* \"#utility.yul\":6317:6856   */\n    tag_24:\n        /* \"#utility.yul\":6401:6407   */\n      0x00\n        /* \"#utility.yul\":6450:6452   */\n      0x20\n        /* \"#utility.yul\":6438:6447   */\n      dup3\n        /* \"#utility.yul\":6429:6436   */\n      dup5\n        /* \"#utility.yul\":6425:6448   */\n      sub\n        /* \"#utility.yul\":6421:6453   */\n      slt\n        /* \"#utility.yul\":6418:6537   */\n      iszero\n      tag_141\n      jumpi\n        /* \"#utility.yul\":6456:6535   */\n      tag_142\n      tag_51\n      jump\t// in\n    tag_142:\n        /* \"#utility.yul\":6418:6537   */\n    tag_141:\n        /* \"#utility.yul\":6604:6605   */\n      0x00\n        /* \"#utility.yul\":6593:6602   */\n      dup3\n        /* \"#utility.yul\":6589:6606   */\n      add\n        /* \"#utility.yul\":6576:6607   */\n      calldataload\n        /* \"#utility.yul\":6634:6652   */\n      0xffffffffffffffff\n        /* \"#utility.yul\":6626:6632   */\n      dup2\n        /* \"#utility.yul\":6623:6653   */\n      gt\n        /* \"#utility.yul\":6620:6737   */\n      iszero\n      tag_143\n      jumpi\n        /* \"#utility.yul\":6656:6735   */\n      tag_144\n      tag_52\n      jump\t// in\n    tag_144:\n        /* \"#utility.yul\":6620:6737   */\n    tag_143:\n        /* \"#utility.yul\":6761:6839   */\n      tag_145\n        /* \"#utility.yul\":6831:6838   */\n      dup5\n        /* \"#utility.yul\":6822:6828   */\n      dup3\n        /* \"#utility.yul\":6811:6820   */\n      dup6\n        /* \"#utility.yul\":6807:6829   */\n      add\n        /* \"#utility.yul\":6761:6839   */\n      tag_66\n      jump\t// in\n    tag_145:\n        /* \"#utility.yul\":6751:6839   */\n      swap2\n      pop\n        /* \"#utility.yul\":6547:6849   */\n      pop\n        /* \"#utility.yul\":6317:6856   */\n      swap3\n      swap2\n      pop\n      pop\n      jump\t// out\n        /* \"#utility.yul\":6862:6976   */\n    tag_67:\n        /* \"#utility.yul\":6929:6935   */\n      0x00\n        /* \"#utility.yul\":6963:6968   */\n      dup2\n        /* \"#utility.yul\":6957:6969   */\n      mload\n        /* \"#utility.yul\":6947:6969   */\n      swap1\n      pop\n        /* \"#utility.yul\":6862:6976   */\n      swap2\n      swap1\n      pop\n      jump\t// out\n        /* \"#utility.yul\":6982:7166   */\n    tag_68:\n        /* \"#utility.yul\":7081:7092   */\n      0x00\n        /* \"#utility.yul\":7115:7121   */\n      dup3\n        /* \"#utility.yul\":7110:7113   */\n      dup3\n        /* \"#utility.yul\":7103:7122   */\n      mstore\n        /* \"#utility.yul\":7155:7159   */\n      0x20\n        /* \"#utility.yul\":7150:7153   */\n      dup3\n        /* \"#utility.yul\":7146:7160   */\n      add\n        /* \"#utility.yul\":7131:7160   */\n      swap1\n      pop\n        /* \"#utility.yul\":6982:7166   */\n      swap3\n      swap2\n      pop\n      pop\n      jump\t// out\n        /* \"#utility.yul\":7172:7304   */\n    tag_69:\n        /* \"#utility.yul\":7239:7243   */\n      0x00\n        /* \"#utility.yul\":7262:7265   */\n      dup2\n        /* \"#utility.yul\":7254:7265   */\n      swap1\n      pop\n        /* \"#utility.yul\":7292:7296   */\n      0x20\n        /* \"#utility.yul\":7287:7290   */\n      dup3\n        /* \"#utility.yul\":7283:7297   */\n      add\n        /* \"#utility.yul\":7275:7297   */\n      swap1\n      pop\n        /* \"#utility.yul\":7172:7304   */\n      swap2\n      swap1\n      pop\n      jump\t// out\n        /* \"#utility.yul\":7310:7489   */\n    tag_70:\n        /* \"#utility.yul\":7379:7389   */\n      0x00\n        /* \"#utility.yul\":7400:7446   */\n      tag_150\n        /* \"#utility.yul\":7442:7445   */\n      dup4\n        /* \"#utility.yul\":7434:7440   */\n      dup4\n        /* \"#utility.yul\":7400:7446   */\n      tag_48\n      jump\t// in\n    tag_150:\n        /* \"#utility.yul\":7478:7482   */\n      0x20\n        /* \"#utility.yul\":7473:7476   */\n      dup4\n        /* \"#utility.yul\":7469:7483   */\n      add\n        /* \"#utility.yul\":7455:7483   */\n      swap1\n      pop\n        /* \"#utility.yul\":7310:7489   */\n      swap3\n      swap2\n      pop\n      pop\n      jump\t// out\n        /* \"#utility.yul\":7495:7608   */\n    tag_71:\n        /* \"#utility.yul\":7565:7569   */\n      0x00\n        /* \"#utility.yul\":7597:7601   */\n      0x20\n        /* \"#utility.yul\":7592:7595   */\n      dup3\n        /* \"#utility.yul\":7588:7602   */\n      add\n        /* \"#utility.yul\":7580:7602   */\n      swap1\n      pop\n        /* \"#utility.yul\":7495:7608   */\n      swap2\n      swap1\n      pop\n      jump\t// out\n        /* \"#utility.yul\":7644:8376   */\n    tag_72:\n        /* \"#utility.yul\":7763:7766   */\n      0x00\n        /* \"#utility.yul\":7792:7846   */\n      tag_153\n        /* \"#utility.yul\":7840:7845   */\n      dup3\n        /* \"#utility.yul\":7792:7846   */\n      tag_67\n      jump\t// in\n    tag_153:\n        /* \"#utility.yul\":7862:7948   */\n      tag_154\n        /* \"#utility.yul\":7941:7947   */\n      dup2\n        /* \"#utility.yul\":7936:7939   */\n      dup6\n        /* \"#utility.yul\":7862:7948   */\n      tag_68\n      jump\t// in\n    tag_154:\n        /* \"#utility.yul\":7855:7948   */\n      swap4\n      pop\n        /* \"#utility.yul\":7972:8028   */\n      tag_155\n        /* \"#utility.yul\":8022:8027   */\n      dup4\n        /* \"#utility.yul\":7972:8028   */\n      tag_69\n      jump\t// in\n    tag_155:\n        /* \"#utility.yul\":8051:8058   */\n      dup1\n        /* \"#utility.yul\":8082:8083   */\n      0x00\n        /* \"#utility.yul\":8067:8351   */\n    tag_156:\n        /* \"#utility.yul\":8092:8098   */\n      dup4\n        /* \"#utility.yul\":8089:8090   */\n      dup2\n        /* \"#utility.yul\":8086:8099   */\n      lt\n        /* \"#utility.yul\":8067:8351   */\n      iszero\n      tag_158\n      jumpi\n        /* \"#utility.yul\":8168:8174   */\n      dup2\n        /* \"#utility.yul\":8162:8175   */\n      mload\n        /* \"#utility.yul\":8195:8258   */\n      tag_159\n        /* \"#utility.yul\":8254:8257   */\n      dup9\n        /* \"#utility.yul\":8239:8252   */\n      dup3\n        /* \"#utility.yul\":8195:8258   */\n      tag_70\n      jump\t// in\n    tag_159:\n        /* \"#utility.yul\":8188:8258   */\n      swap8\n      pop\n        /* \"#utility.yul\":8281:8341   */\n      tag_160\n        /* \"#utility.yul\":8334:8340   */\n      dup4\n        /* \"#utility.yul\":8281:8341   */\n      tag_71\n      jump\t// in\n    tag_160:\n        /* \"#utility.yul\":8271:8341   */\n      swap3\n      pop\n        /* \"#utility.yul\":8127:8351   */\n      pop\n        /* \"#utility.yul\":8114:8115   */\n      0x01\n        /* \"#utility.yul\":8111:8112   */\n      dup2\n        /* \"#utility.yul\":8107:8116   */\n      add\n        /* \"#utility.yul\":8102:8116   */\n      swap1\n      pop\n        /* \"#utility.yul\":8067:8351   */\n      jump(tag_156)\n    tag_158:\n        /* \"#utility.yul\":8071:8085   */\n      pop\n        /* \"#utility.yul\":8367:8370   */\n      dup6\n        /* \"#utility.yul\":8360:8370   */\n      swap4\n      pop\n        /* \"#utility.yul\":7768:8376   */\n      pop\n      pop\n      pop\n        /* \"#utility.yul\":7644:8376   */\n      swap3\n      swap2\n      pop\n      pop\n      jump\t// out\n        /* \"#utility.yul\":8382:8755   */\n    tag_27:\n        /* \"#utility.yul\":8525:8529   */\n      0x00\n        /* \"#utility.yul\":8563:8565   */\n      0x20\n        /* \"#utility.yul\":8552:8561   */\n      dup3\n        /* \"#utility.yul\":8548:8566   */\n      add\n        /* \"#utility.yul\":8540:8566   */\n      swap1\n      pop\n        /* \"#utility.yul\":8612:8621   */\n      dup2\n        /* \"#utility.yul\":8606:8610   */\n      dup2\n        /* \"#utility.yul\":8602:8622   */\n      sub\n        /* \"#utility.yul\":8598:8599   */\n      0x00\n        /* \"#utility.yul\":8587:8596   */\n      dup4\n        /* \"#utility.yul\":8583:8600   */\n      add\n        /* \"#utility.yul\":8576:8623   */\n      mstore\n        /* \"#utility.yul\":8640:8748   */\n      tag_162\n        /* \"#utility.yul\":8743:8747   */\n      dup2\n        /* \"#utility.yul\":8734:8740   */\n      dup5\n        /* \"#utility.yul\":8640:8748   */\n      tag_72\n      jump\t// in\n    tag_162:\n        /* \"#utility.yul\":8632:8748   */\n      swap1\n      pop\n        /* \"#utility.yul\":8382:8755   */\n      swap3\n      swap2\n      pop\n      pop\n      jump\t// out\n        /* \"#utility.yul\":8761:8941   */\n    tag_45:\n        /* \"#utility.yul\":8809:8886   */\n      0x4e487b7100000000000000000000000000000000000000000000000000000000\n        /* \"#utility.yul\":8806:8807   */\n      0x00\n        /* \"#utility.yul\":8799:8887   */\n      mstore\n        /* \"#utility.yul\":8906:8910   */\n      0x32\n        /* \"#utility.yul\":8903:8904   */\n      0x04\n        /* \"#utility.yul\":8896:8911   */\n      mstore\n        /* \"#utility.yul\":8930:8934   */\n      0x24\n        /* \"#utility.yul\":8927:8928   */\n      0x00\n        /* \"#utility.yul\":8920:8935   */\n      revert\n\n    auxdata: 0xa2646970667358221220f6651864743847eb9e8d93d3dd994d1f3b5b527126a561b9caebdb497dc0f8f064736f6c634300081a0033\n}\n",
				"bytecode": {
					"linkReferences": {},
					"object": "6080604052348015600e575f80fd5b506106ba8061001c5f395ff3fe608060405234801561000f575f80fd5b5060043610610055575f3560e01c806326121ff01461005957806340dcbb081461007957806371e5ee5f14610095578063baf71609146100c5578063df90c8d3146100f5575b5f80fd5b610061610125565b60405161007093929190610291565b60405180910390f35b610093600480360381019061008e9190610338565b6101e3565b005b6100af60048036038101906100aa91906103ad565b6101e7565b6040516100bc91906103e7565b60405180910390f35b6100df60048036038101906100da9190610548565b610206565b6040516100ec9190610637565b60405180910390f35b61010f600480360381019061010a91906103ad565b61022e565b60405161011c91906103e7565b60405180910390f35b61012d61024d565b61013561024d565b61013d61024d565b61015a5f600160025f600181526020019081526020015f20610248565b5f60025f600181526020019081526020015f2090505f60405180602001604052805f81525090506004825f01819055505f8190506001815f0181815250505f836040518060200160405290815f8201548152505090506003815f018181525050838282826040518060200160405290815f82015481525050925096509650965050505050909192565b5050565b5f81815481106101f5575f80fd5b905f5260205f20015f915090505481565b60606001825f8151811061021d5761021c610657565b5b602002602001018181525050919050565b6002602052805f5260405f205f91509050805f0154905081565b505050565b60405180602001604052805f81525090565b5f819050919050565b6102718161025f565b82525050565b602082015f82015161028b5f850182610268565b50505050565b5f6060820190506102a45f830186610277565b6102b16020830185610277565b6102be6040830184610277565b949350505050565b5f604051905090565b5f80fd5b5f80fd5b5f80fd5b5f80fd5b5f80fd5b5f8083601f8401126102f8576102f76102d7565b5b8235905067ffffffffffffffff811115610315576103146102db565b5b602083019150836020820283011115610331576103306102df565b5b9250929050565b5f806020838503121561034e5761034d6102cf565b5b5f83013567ffffffffffffffff81111561036b5761036a6102d3565b5b610377858286016102e3565b92509250509250929050565b61038c8161025f565b8114610396575f80fd5b50565b5f813590506103a781610383565b92915050565b5f602082840312156103c2576103c16102cf565b5b5f6103cf84828501610399565b91505092915050565b6103e18161025f565b82525050565b5f6020820190506103fa5f8301846103d8565b92915050565b5f601f19601f8301169050919050565b7f4e487b71000000000000000000000000000000000000000000000000000000005f52604160045260245ffd5b61044682610400565b810181811067ffffffffffffffff8211171561046557610464610410565b5b80604052505050565b5f6104776102c6565b9050610483828261043d565b919050565b5f67ffffffffffffffff8211156104a2576104a1610410565b5b602082029050602081019050919050565b5f6104c56104c084610488565b61046e565b905080838252602082019050602084028301858111156104e8576104e76102df565b5b835b8181101561051157806104fd8882610399565b8452602084019350506020810190506104ea565b5050509392505050565b5f82601f83011261052f5761052e6102d7565b5b813561053f8482602086016104b3565b91505092915050565b5f6020828403121561055d5761055c6102cf565b5b5f82013567ffffffffffffffff81111561057a576105796102d3565b5b6105868482850161051b565b91505092915050565b5f81519050919050565b5f82825260208201905092915050565b5f819050602082019050919050565b5f6105c38383610268565b60208301905092915050565b5f602082019050919050565b5f6105e58261058f565b6105ef8185610599565b93506105fa836105a9565b805f5b8381101561062a57815161061188826105b8565b975061061c836105cf565b9250506001810190506105fd565b5085935050505092915050565b5f6020820190508181035f83015261064f81846105db565b905092915050565b7f4e487b71000000000000000000000000000000000000000000000000000000005f52603260045260245ffdfea2646970667358221220f6651864743847eb9e8d93d3dd994d1f3b5b527126a561b9caebdb497dc0f8f064736f6c634300081a0033",
					"opcodes": "PUSH1 0x80 PUSH1 0x40 MSTORE CALLVALUE DUP1 ISZERO PUSH1 0xE JUMPI PUSH0 DUP1 REVERT JUMPDEST POP PUSH2 0x6BA DUP1 PUSH2 0x1C PUSH0 CODECOPY PUSH0 RETURN INVALID PUSH1 0x80 PUSH1 0x40 MSTORE CALLVALUE DUP1 ISZERO PUSH2 0xF JUMPI PUSH0 DUP1 REVERT JUMPDEST POP PUSH1 0x4 CALLDATASIZE LT PUSH2 0x55 JUMPI PUSH0 CALLDATALOAD PUSH1 0xE0 SHR DUP1 PUSH4 0x26121FF0 EQ PUSH2 0x59 JUMPI DUP1 PUSH4 0x40DCBB08 EQ PUSH2 0x79 JUMPI DUP1 PUSH4 0x71E5EE5F EQ PUSH2 0x95 JUMPI DUP1 PUSH4 0xBAF71609 EQ PUSH2 0xC5 JUMPI DUP1 PUSH4 0xDF90C8D3 EQ PUSH2 0xF5 JUMPI JUMPDEST PUSH0 DUP1 REVERT JUMPDEST PUSH2 0x61 PUSH2 0x125 JUMP JUMPDEST PUSH1 0x40 MLOAD PUSH2 0x70 SWAP4 SWAP3 SWAP2 SWAP1 PUSH2 0x291 JUMP JUMPDEST PUSH1 0x40 MLOAD DUP1 SWAP2 SUB SWAP1 RETURN JUMPDEST PUSH2 0x93 PUSH1 0x4 DUP1 CALLDATASIZE SUB DUP2 ADD SWAP1 PUSH2 0x8E SWAP2 SWAP1 PUSH2 0x338 JUMP JUMPDEST PUSH2 0x1E3 JUMP JUMPDEST STOP JUMPDEST PUSH2 0xAF PUSH1 0x4 DUP1 CALLDATASIZE SUB DUP2 ADD SWAP1 PUSH2 0xAA SWAP2 SWAP1 PUSH2 0x3AD JUMP JUMPDEST PUSH2 0x1E7 JUMP JUMPDEST PUSH1 0x40 MLOAD PUSH2 0xBC SWAP2 SWAP1 PUSH2 0x3E7 JUMP JUMPDEST PUSH1 0x40 MLOAD DUP1 SWAP2 SUB SWAP1 RETURN JUMPDEST PUSH2 0xDF PUSH1 0x4 DUP1 CALLDATASIZE SUB DUP2 ADD SWAP1 PUSH2 0xDA SWAP2 SWAP1 PUSH2 0x548 JUMP JUMPDEST PUSH2 0x206 JUMP JUMPDEST PUSH1 0x40 MLOAD PUSH2 0xEC SWAP2 SWAP1 PUSH2 0x637 JUMP JUMPDEST PUSH1 0x40 MLOAD DUP1 SWAP2 SUB SWAP1 RETURN JUMPDEST PUSH2 0x10F PUSH1 0x4 DUP1 CALLDATASIZE SUB DUP2 ADD SWAP1 PUSH2 0x10A SWAP2 SWAP1 PUSH2 0x3AD JUMP JUMPDEST PUSH2 0x22E JUMP JUMPDEST PUSH1 0x40 MLOAD PUSH2 0x11C SWAP2 SWAP1 PUSH2 0x3E7 JUMP JUMPDEST PUSH1 0x40 MLOAD DUP1 SWAP2 SUB SWAP1 RETURN JUMPDEST PUSH2 0x12D PUSH2 0x24D JUMP JUMPDEST PUSH2 0x135 PUSH2 0x24D JUMP JUMPDEST PUSH2 0x13D PUSH2 0x24D JUMP JUMPDEST PUSH2 0x15A PUSH0 PUSH1 0x1 PUSH1 0x2 PUSH0 PUSH1 0x1 DUP2 MSTORE PUSH1 0x20 ADD SWAP1 DUP2 MSTORE PUSH1 0x20 ADD PUSH0 KECCAK256 PUSH2 0x248 JUMP JUMPDEST PUSH0 PUSH1 0x2 PUSH0 PUSH1 0x1 DUP2 MSTORE PUSH1 0x20 ADD SWAP1 DUP2 MSTORE PUSH1 0x20 ADD PUSH0 KECCAK256 SWAP1 POP PUSH0 PUSH1 0x40 MLOAD DUP1 PUSH1 0x20 ADD PUSH1 0x40 MSTORE DUP1 PUSH0 DUP2 MSTORE POP SWAP1 POP PUSH1 0x4 DUP3 PUSH0 ADD DUP2 SWAP1 SSTORE POP PUSH0 DUP2 SWAP1 POP PUSH1 0x1 DUP2 PUSH0 ADD DUP2 DUP2 MSTORE POP POP PUSH0 DUP4 PUSH1 0x40 MLOAD DUP1 PUSH1 0x20 ADD PUSH1 0x40 MSTORE SWAP1 DUP2 PUSH0 DUP3 ADD SLOAD DUP2 MSTORE POP POP SWAP1 POP PUSH1 0x3 DUP2 PUSH0 ADD DUP2 DUP2 MSTORE POP POP DUP4 DUP3 DUP3 DUP3 PUSH1 0x40 MLOAD DUP1 PUSH1 0x20 ADD PUSH1 0x40 MSTORE SWAP1 DUP2 PUSH0 DUP3 ADD SLOAD DUP2 MSTORE POP POP SWAP3 POP SWAP7 POP SWAP7 POP SWAP7 POP POP POP POP POP SWAP1 SWAP2 SWAP3 JUMP JUMPDEST POP POP JUMP JUMPDEST PUSH0 DUP2 DUP2 SLOAD DUP2 LT PUSH2 0x1F5 JUMPI PUSH0 DUP1 REVERT JUMPDEST SWAP1 PUSH0 MSTORE PUSH1 0x20 PUSH0 KECCAK256 ADD PUSH0 SWAP2 POP SWAP1 POP SLOAD DUP2 JUMP JUMPDEST PUSH1 0x60 PUSH1 0x1 DUP3 PUSH0 DUP2 MLOAD DUP2 LT PUSH2 0x21D JUMPI PUSH2 0x21C PUSH2 0x657 JUMP JUMPDEST JUMPDEST PUSH1 0x20 MUL PUSH1 0x20 ADD ADD DUP2 DUP2 MSTORE POP POP SWAP2 SWAP1 POP JUMP JUMPDEST PUSH1 0x2 PUSH1 0x20 MSTORE DUP1 PUSH0 MSTORE PUSH1 0x40 PUSH0 KECCAK256 PUSH0 SWAP2 POP SWAP1 POP DUP1 PUSH0 ADD SLOAD SWAP1 POP DUP2 JUMP JUMPDEST POP POP POP JUMP JUMPDEST PUSH1 0x40 MLOAD DUP1 PUSH1 0x20 ADD PUSH1 0x40 MSTORE DUP1 PUSH0 DUP2 MSTORE POP SWAP1 JUMP JUMPDEST PUSH0 DUP2 SWAP1 POP SWAP2 SWAP1 POP JUMP JUMPDEST PUSH2 0x271 DUP2 PUSH2 0x25F JUMP JUMPDEST DUP3 MSTORE POP POP JUMP JUMPDEST PUSH1 0x20 DUP3 ADD PUSH0 DUP3 ADD MLOAD PUSH2 0x28B PUSH0 DUP6 ADD DUP3 PUSH2 0x268 JUMP JUMPDEST POP POP POP POP JUMP JUMPDEST PUSH0 PUSH1 0x60 DUP3 ADD SWAP1 POP PUSH2 0x2A4 PUSH0 DUP4 ADD DUP7 PUSH2 0x277 JUMP JUMPDEST PUSH2 0x2B1 PUSH1 0x20 DUP4 ADD DUP6 PUSH2 0x277 JUMP JUMPDEST PUSH2 0x2BE PUSH1 0x40 DUP4 ADD DUP5 PUSH2 0x277 JUMP JUMPDEST SWAP5 SWAP4 POP POP POP POP JUMP JUMPDEST PUSH0 PUSH1 0x40 MLOAD SWAP1 POP SWAP1 JUMP JUMPDEST PUSH0 DUP1 REVERT JUMPDEST PUSH0 DUP1 REVERT JUMPDEST PUSH0 DUP1 REVERT JUMPDEST PUSH0 DUP1 REVERT JUMPDEST PUSH0 DUP1 REVERT JUMPDEST PUSH0 DUP1 DUP4 PUSH1 0x1F DUP5 ADD SLT PUSH2 0x2F8 JUMPI PUSH2 0x2F7 PUSH2 0x2D7 JUMP JUMPDEST JUMPDEST DUP3 CALLDATALOAD SWAP1 POP PUSH8 0xFFFFFFFFFFFFFFFF DUP2 GT ISZERO PUSH2 0x315 JUMPI PUSH2 0x314 PUSH2 0x2DB JUMP JUMPDEST JUMPDEST PUSH1 0x20 DUP4 ADD SWAP2 POP DUP4 PUSH1 0x20 DUP3 MUL DUP4 ADD GT ISZERO PUSH2 0x331 JUMPI PUSH2 0x330 PUSH2 0x2DF JUMP JUMPDEST JUMPDEST SWAP3 POP SWAP3 SWAP1 POP JUMP JUMPDEST PUSH0 DUP1 PUSH1 0x20 DUP4 DUP6 SUB SLT ISZERO PUSH2 0x34E JUMPI PUSH2 0x34D PUSH2 0x2CF JUMP JUMPDEST JUMPDEST PUSH0 DUP4 ADD CALLDATALOAD PUSH8 0xFFFFFFFFFFFFFFFF DUP2 GT ISZERO PUSH2 0x36B JUMPI PUSH2 0x36A PUSH2 0x2D3 JUMP JUMPDEST JUMPDEST PUSH2 0x377 DUP6 DUP3 DUP7 ADD PUSH2 0x2E3 JUMP JUMPDEST SWAP3 POP SWAP3 POP POP SWAP3 POP SWAP3 SWAP1 POP JUMP JUMPDEST PUSH2 0x38C DUP2 PUSH2 0x25F JUMP JUMPDEST DUP2 EQ PUSH2 0x396 JUMPI PUSH0 DUP1 REVERT JUMPDEST POP JUMP JUMPDEST PUSH0 DUP2 CALLDATALOAD SWAP1 POP PUSH2 0x3A7 DUP2 PUSH2 0x383 JUMP JUMPDEST SWAP3 SWAP2 POP POP JUMP JUMPDEST PUSH0 PUSH1 0x20 DUP3 DUP5 SUB SLT ISZERO PUSH2 0x3C2 JUMPI PUSH2 0x3C1 PUSH2 0x2CF JUMP JUMPDEST JUMPDEST PUSH0 PUSH2 0x3CF DUP5 DUP3 DUP6 ADD PUSH2 0x399 JUMP JUMPDEST SWAP2 POP POP SWAP3 SWAP2 POP POP JUMP JUMPDEST PUSH2 0x3E1 DUP2 PUSH2 0x25F JUMP JUMPDEST DUP3 MSTORE POP POP JUMP JUMPDEST PUSH0 PUSH1 0x20 DUP3 ADD SWAP1 POP PUSH2 0x3FA PUSH0 DUP4 ADD DUP5 PUSH2 0x3D8 JUMP JUMPDEST SWAP3 SWAP2 POP POP JUMP JUMPDEST PUSH0 PUSH1 0x1F NOT PUSH1 0x1F DUP4 ADD AND SWAP1 POP SWAP2 SWAP1 POP JUMP JUMPDEST PUSH32 0x4E487B7100000000000000000000000000000000000000000000000000000000 PUSH0 MSTORE PUSH1 0x41 PUSH1 0x4 MSTORE PUSH1 0x24 PUSH0 REVERT JUMPDEST PUSH2 0x446 DUP3 PUSH2 0x400 JUMP JUMPDEST DUP2 ADD DUP2 DUP2 LT PUSH8 0xFFFFFFFFFFFFFFFF DUP3 GT OR ISZERO PUSH2 0x465 JUMPI PUSH2 0x464 PUSH2 0x410 JUMP JUMPDEST JUMPDEST DUP1 PUSH1 0x40 MSTORE POP POP POP JUMP JUMPDEST PUSH0 PUSH2 0x477 PUSH2 0x2C6 JUMP JUMPDEST SWAP1 POP PUSH2 0x483 DUP3 DUP3 PUSH2 0x43D JUMP JUMPDEST SWAP2 SWAP1 POP JUMP JUMPDEST PUSH0 PUSH8 0xFFFFFFFFFFFFFFFF DUP3 GT ISZERO PUSH2 0x4A2 JUMPI PUSH2 0x4A1 PUSH2 0x410 JUMP JUMPDEST JUMPDEST PUSH1 0x20 DUP3 MUL SWAP1 POP PUSH1 0x20 DUP2 ADD SWAP1 POP SWAP2 SWAP1 POP JUMP JUMPDEST PUSH0 PUSH2 0x4C5 PUSH2 0x4C0 DUP5 PUSH2 0x488 JUMP JUMPDEST PUSH2 0x46E JUMP JUMPDEST SWAP1 POP DUP1 DUP4 DUP3 MSTORE PUSH1 0x20 DUP3 ADD SWAP1 POP PUSH1 0x20 DUP5 MUL DUP4 ADD DUP6 DUP2 GT ISZERO PUSH2 0x4E8 JUMPI PUSH2 0x4E7 PUSH2 0x2DF JUMP JUMPDEST JUMPDEST DUP4 JUMPDEST DUP2 DUP2 LT ISZERO PUSH2 0x511 JUMPI DUP1 PUSH2 0x4FD DUP9 DUP3 PUSH2 0x399 JUMP JUMPDEST DUP5 MSTORE PUSH1 0x20 DUP5 ADD SWAP4 POP POP PUSH1 0x20 DUP2 ADD SWAP1 POP PUSH2 0x4EA JUMP JUMPDEST POP POP POP SWAP4 SWAP3 POP POP POP JUMP JUMPDEST PUSH0 DUP3 PUSH1 0x1F DUP4 ADD SLT PUSH2 0x52F JUMPI PUSH2 0x52E PUSH2 0x2D7 JUMP JUMPDEST JUMPDEST DUP2 CALLDATALOAD PUSH2 0x53F DUP5 DUP3 PUSH1 0x20 DUP7 ADD PUSH2 0x4B3 JUMP JUMPDEST SWAP2 POP POP SWAP3 SWAP2 POP POP JUMP JUMPDEST PUSH0 PUSH1 0x20 DUP3 DUP5 SUB SLT ISZERO PUSH2 0x55D JUMPI PUSH2 0x55C PUSH2 0x2CF JUMP JUMPDEST JUMPDEST PUSH0 DUP3 ADD CALLDATALOAD PUSH8 0xFFFFFFFFFFFFFFFF DUP2 GT ISZERO PUSH2 0x57A JUMPI PUSH2 0x579 PUSH2 0x2D3 JUMP JUMPDEST JUMPDEST PUSH2 0x586 DUP5 DUP3 DUP6 ADD PUSH2 0x51B JUMP JUMPDEST SWAP2 POP POP SWAP3 SWAP2 POP POP JUMP JUMPDEST PUSH0 DUP2 MLOAD SWAP1 POP SWAP2 SWAP1 POP JUMP JUMPDEST PUSH0 DUP3 DUP3 MSTORE PUSH1 0x20 DUP3 ADD SWAP1 POP SWAP3 SWAP2 POP POP JUMP JUMPDEST PUSH0 DUP2 SWAP1 POP PUSH1 0x20 DUP3 ADD SWAP1 POP SWAP2 SWAP1 POP JUMP JUMPDEST PUSH0 PUSH2 0x5C3 DUP4 DUP4 PUSH2 0x268 JUMP JUMPDEST PUSH1 0x20 DUP4 ADD SWAP1 POP SWAP3 SWAP2 POP POP JUMP JUMPDEST PUSH0 PUSH1 0x20 DUP3 ADD SWAP1 POP SWAP2 SWAP1 POP JUMP JUMPDEST PUSH0 PUSH2 0x5E5 DUP3 PUSH2 0x58F JUMP JUMPDEST PUSH2 0x5EF DUP2 DUP6 PUSH2 0x599 JUMP JUMPDEST SWAP4 POP PUSH2 0x5FA DUP4 PUSH2 0x5A9 JUMP JUMPDEST DUP1 PUSH0 JUMPDEST DUP4 DUP2 LT ISZERO PUSH2 0x62A JUMPI DUP2 MLOAD PUSH2 0x611 DUP9 DUP3 PUSH2 0x5B8 JUMP JUMPDEST SWAP8 POP PUSH2 0x61C DUP4 PUSH2 0x5CF JUMP JUMPDEST SWAP3 POP POP PUSH1 0x1 DUP2 ADD SWAP1 POP PUSH2 0x5FD JUMP JUMPDEST POP DUP6 SWAP4 POP POP POP POP SWAP3 SWAP2 POP POP JUMP JUMPDEST PUSH0 PUSH1 0x20 DUP3 ADD SWAP1 POP DUP2 DUP2 SUB PUSH0 DUP4 ADD MSTORE PUSH2 0x64F DUP2 DUP5 PUSH2 0x5DB JUMP JUMPDEST SWAP1 POP SWAP3 SWAP2 POP POP JUMP JUMPDEST PUSH32 0x4E487B7100000000000000000000000000000000000000000000000000000000 PUSH0 MSTORE PUSH1 0x32 PUSH1 0x4 MSTORE PUSH1 0x24 PUSH0 REVERT INVALID LOG2 PUSH5 0x6970667358 0x22 SLT KECCAK256 0xF6 PUSH6 0x1864743847EB SWAP15 DUP14 SWAP4 0xD3 0xDD SWAP10 0x4D 0x1F EXTCODESIZE JUMPDEST MSTORE PUSH18 0x26A561B9CAEBDB497DC0F8F064736F6C6343 STOP ADDMOD BYTE STOP CALLER "
				},
				"gasEstimates": {
					"creation": {
						"codeDepositCost": "344400",
						"executionCost": "378",
						"totalCost": "344778"
					},
					"external": {
						"arr(uint256)": "infinite",
						"f()": "infinite",
						"g(uint256[])": "infinite",
						"h(uint256[])": "470",
						"myStructs(uint256)": "infinite"
					},
					"internal": {
						"_f(uint256[] storage pointer,mapping(uint256 => address),struct DataLocations.MyStruct storage pointer)": "15"
					}
				},
				"methodIdentifiers": {
					"arr(uint256)": "71e5ee5f",
					"f()": "26121ff0",
					"g(uint256[])": "baf71609",
					"h(uint256[])": "40dcbb08",
					"myStructs(uint256)": "df90c8d3"
				}
			},
			"storageLayout": {
				"storage": [
					{
						"astId": 4,
						"contract": ".learneth/ethereum/remix-workshops/9. Data Locations/dataLocations_answer.sol:DataLocations",
						"label": "arr",
						"offset": 0,
						"slot": "0",
						"type": "t_array(t_uint256)dyn_storage"
					},
					{
						"astId": 8,
						"contract": ".learneth/ethereum/remix-workshops/9. Data Locations/dataLocations_answer.sol:DataLocations",
						"label": "map",
						"offset": 0,
						"slot": "1",
						"type": "t_mapping(t_uint256,t_address)"
					},
					{
						"astId": 16,
						"contract": ".learneth/ethereum/remix-workshops/9. Data Locations/dataLocations_answer.sol:DataLocations",
						"label": "myStructs",
						"offset": 0,
						"slot": "2",
						"type": "t_mapping(t_uint256,t_struct(MyStruct)11_storage)"
					}
				],
				"types": {
					"t_address": {
						"encoding": "inplace",
						"label": "address",
						"numberOfBytes": "20"
					},
					"t_array(t_uint256)dyn_storage": {
						"base": "t_uint256",
						"encoding": "dynamic_array",
						"label": "uint256[]",
						"numberOfBytes": "32"
					},
					"t_mapping(t_uint256,t_address)": {
						"encoding": "mapping",
						"key": "t_uint256",
						"label": "mapping(uint256 => address)",
						"numberOfBytes": "32",
						"value": "t_address"
					},
					"t_mapping(t_uint256,t_struct(MyStruct)11_storage)": {
						"encoding": "mapping",
						"key": "t_uint256",
						"label": "mapping(uint256 => struct DataLocations.MyStruct)",
						"numberOfBytes": "32",
						"value": "t_struct(MyStruct)11_storage"
					},
					"t_struct(MyStruct)11_storage": {
						"encoding": "inplace",
						"label": "struct DataLocations.MyStruct",
						"members": [
							{
								"astId": 10,
								"contract": ".learneth/ethereum/remix-workshops/9. Data Locations/dataLocations_answer.sol:DataLocations",
								"label": "foo",
								"offset": 0,
								"slot": "0",
								"type": "t_uint256"
							}
						],
						"numberOfBytes": "32"
					},
					"t_uint256": {
						"encoding": "inplace",
						"label": "uint256",
						"numberOfBytes": "32"
					}
				}
			},
			"userdoc": {
				"kind": "user",
				"methods": {},
				"version": 1
			}
		}
	}
}