{
	".learneth/ethereum/remix-workshops/5.4 Functions - Inputs and Outputs/inputsAndOutputs.sol": {
		"Function": {
			"abi": [
				{
					"inputs": [
						{
							"internalType": "uint256",
							"name": "",
							"type": "uint256"
						}
					],
					"name": "arr",
					"outputs": [
						{
							"internalType": "uint256",
							"name": "",
							"type": "uint256"
						}
					],
					"stateMutability": "view",
					"type": "function"
				},
				{
					"inputs": [
						{
							"internalType": "uint256[]",
							"name": "_arr",
							"type": "uint256[]"
						}
					],
					"name": "arrayInput",
					"outputs": [],
					"stateMutability": "nonpayable",
					"type": "function"
				},
				{
					"inputs": [],
					"name": "arrayOutput",
					"outputs": [
						{
							"internalType": "uint256[]",
							"name": "",
							"type": "uint256[]"
						}
					],
					"stateMutability": "view",
					"type": "function"
				},
				{
					"inputs": [],
					"name": "assigned",
					"outputs": [
						{
							"internalType": "uint256",
							"name": "x",
							"type": "uint256"
						},
						{
							"internalType": "bool",
							"name": "b",
							"type": "bool"
						},
						{
							"internalType": "uint256",
							"name": "y",
							"type": "uint256"
						}
					],
					"stateMutability": "pure",
					"type": "function"
				},
				{
					"inputs": [],
					"name": "destructingAssigments",
					"outputs": [
						{
							"internalType": "uint256",
							"name": "",
							"type": "uint256"
						},
						{
							"internalType": "bool",
							"name": "",
							"type": "bool"
						},
						{
							"internalType": "uint256",
							"name": "",
							"type": "uint256"
						},
						{
							"internalType": "uint256",
							"name": "",
							"type": "uint256"
						},
						{
							"internalType": "uint256",
							"name": "",
							"type": "uint256"
						}
					],
					"stateMutability": "pure",
					"type": "function"
				},
				{
					"inputs": [],
					"name": "named",
					"outputs": [
						{
							"internalType": "uint256",
							"name": "x",
							"type": "uint256"
						},
						{
							"internalType": "bool",
							"name": "b",
							"type": "bool"
						},
						{
							"internalType": "uint256",
							"name": "y",
							"type": "uint256"
						}
					],
					"stateMutability": "pure",
					"type": "function"
				},
				{
					"inputs": [],
					"name": "returnMany",
					"outputs": [
						{
							"internalType": "uint256",
							"name": "",
							"type": "uint256"
						},
						{
							"internalType": "bool",
							"name": "",
							"type": "bool"
						},
						{
							"internalType": "uint256",
							"name": "",
							"type": "uint256"
						}
					],
					"stateMutability": "pure",
					"type": "function"
				},
				{
					"inputs": [],
					"name": "returnTwo",
					"outputs": [
						{
							"internalType": "int256",
							"name": "a",
							"type": "int256"
						},
						{
							"internalType": "bool",
							"name": "b",
							"type": "bool"
						}
					],
					"stateMutability": "pure",
					"type": "function"
				}
			],
			"devdoc": {
				"kind": "dev",
				"methods": {},
				"version": 1
			},
			"evm": {
				"assembly": "    /* \".learneth/ethereum/remix-workshops/5.4 Functions - Inputs and Outputs/inputsAndOutputs.sol\":57:1757  contract Function {... */\n  mstore(0x40, 0x80)\n  callvalue\n  dup1\n  iszero\n  tag_1\n  jumpi\n  0x00\n  dup1\n  revert\ntag_1:\n  pop\n  dataSize(sub_0)\n  dup1\n  dataOffset(sub_0)\n  0x00\n  codecopy\n  0x00\n  return\nstop\n\nsub_0: assembly {\n        /* \".learneth/ethereum/remix-workshops/5.4 Functions - Inputs and Outputs/inputsAndOutputs.sol\":57:1757  contract Function {... */\n      mstore(0x40, 0x80)\n      callvalue\n      dup1\n      iszero\n      tag_1\n      jumpi\n      0x00\n      dup1\n      revert\n    tag_1:\n      pop\n      jumpi(tag_2, lt(calldatasize, 0x04))\n      shr(0xe0, calldataload(0x00))\n      dup1\n      0x86887544\n      gt\n      tag_11\n      jumpi\n      dup1\n      0x86887544\n      eq\n      tag_7\n      jumpi\n      dup1\n      0x946e182c\n      eq\n      tag_8\n      jumpi\n      dup1\n      0xadb4d990\n      eq\n      tag_9\n      jumpi\n      dup1\n      0xf4bb6e6b\n      eq\n      tag_10\n      jumpi\n      jump(tag_2)\n    tag_11:\n      dup1\n      0x1990532b\n      eq\n      tag_3\n      jumpi\n      dup1\n      0x45f907a8\n      eq\n      tag_4\n      jumpi\n      dup1\n      0x53a6aadb\n      eq\n      tag_5\n      jumpi\n      dup1\n      0x71e5ee5f\n      eq\n      tag_6\n      jumpi\n    tag_2:\n      0x00\n      dup1\n      revert\n        /* \".learneth/ethereum/remix-workshops/5.4 Functions - Inputs and Outputs/inputsAndOutputs.sol\":1473:1559  function arrayOutput() public view returns (uint[] memory) {... */\n    tag_3:\n      tag_12\n      tag_13\n      jump\t// in\n    tag_12:\n      mload(0x40)\n      tag_14\n      swap2\n      swap1\n      tag_15\n      jump\t// in\n    tag_14:\n      mload(0x40)\n      dup1\n      swap2\n      sub\n      swap1\n      return\n        /* \".learneth/ethereum/remix-workshops/5.4 Functions - Inputs and Outputs/inputsAndOutputs.sol\":338:510  function named()... */\n    tag_4:\n      tag_16\n      tag_17\n      jump\t// in\n    tag_16:\n      mload(0x40)\n      tag_18\n      swap4\n      swap3\n      swap2\n      swap1\n      tag_19\n      jump\t// in\n    tag_18:\n      mload(0x40)\n      dup1\n      swap2\n      sub\n      swap1\n      return\n        /* \".learneth/ethereum/remix-workshops/5.4 Functions - Inputs and Outputs/inputsAndOutputs.sol\":926:1273  function destructingAssigments()... */\n    tag_5:\n      tag_20\n      tag_21\n      jump\t// in\n    tag_20:\n      mload(0x40)\n      tag_22\n      swap6\n      swap5\n      swap4\n      swap3\n      swap2\n      swap1\n      tag_23\n      jump\t// in\n    tag_22:\n      mload(0x40)\n      dup1\n      swap2\n      sub\n      swap1\n      return\n        /* \".learneth/ethereum/remix-workshops/5.4 Functions - Inputs and Outputs/inputsAndOutputs.sol\":1449:1466  uint[] public arr */\n    tag_6:\n      tag_24\n      0x04\n      dup1\n      calldatasize\n      sub\n      dup2\n      add\n      swap1\n      tag_25\n      swap2\n      swap1\n      tag_26\n      jump\t// in\n    tag_25:\n      tag_27\n      jump\t// in\n    tag_24:\n      mload(0x40)\n      tag_28\n      swap2\n      swap1\n      tag_29\n      jump\t// in\n    tag_28:\n      mload(0x40)\n      dup1\n      swap2\n      sub\n      swap1\n      return\n        /* \".learneth/ethereum/remix-workshops/5.4 Functions - Inputs and Outputs/inputsAndOutputs.sol\":126:297  function returnMany()... */\n    tag_7:\n      tag_30\n      tag_31\n      jump\t// in\n    tag_30:\n      mload(0x40)\n      tag_32\n      swap4\n      swap3\n      swap2\n      swap1\n      tag_19\n      jump\t// in\n    tag_32:\n      mload(0x40)\n      dup1\n      swap2\n      sub\n      swap1\n      return\n        /* \".learneth/ethereum/remix-workshops/5.4 Functions - Inputs and Outputs/inputsAndOutputs.sol\":1585:1753  function returnTwo()... */\n    tag_8:\n      tag_33\n      tag_34\n      jump\t// in\n    tag_33:\n      mload(0x40)\n      tag_35\n      swap3\n      swap2\n      swap1\n      tag_36\n      jump\t// in\n    tag_35:\n      mload(0x40)\n      dup1\n      swap2\n      sub\n      swap1\n      return\n        /* \".learneth/ethereum/remix-workshops/5.4 Functions - Inputs and Outputs/inputsAndOutputs.sol\":625:819  function assigned()... */\n    tag_9:\n      tag_37\n      tag_38\n      jump\t// in\n    tag_37:\n      mload(0x40)\n      tag_39\n      swap4\n      swap3\n      swap2\n      swap1\n      tag_19\n      jump\t// in\n    tag_39:\n      mload(0x40)\n      dup1\n      swap2\n      sub\n      swap1\n      return\n        /* \".learneth/ethereum/remix-workshops/5.4 Functions - Inputs and Outputs/inputsAndOutputs.sol\":1362:1411  function arrayInput(uint[] memory _arr) public {} */\n    tag_10:\n      tag_40\n      0x04\n      dup1\n      calldatasize\n      sub\n      dup2\n      add\n      swap1\n      tag_41\n      swap2\n      swap1\n      tag_42\n      jump\t// in\n    tag_41:\n      tag_43\n      jump\t// in\n    tag_40:\n      stop\n        /* \".learneth/ethereum/remix-workshops/5.4 Functions - Inputs and Outputs/inputsAndOutputs.sol\":1473:1559  function arrayOutput() public view returns (uint[] memory) {... */\n    tag_13:\n        /* \".learneth/ethereum/remix-workshops/5.4 Functions - Inputs and Outputs/inputsAndOutputs.sol\":1517:1530  uint[] memory */\n      0x60\n        /* \".learneth/ethereum/remix-workshops/5.4 Functions - Inputs and Outputs/inputsAndOutputs.sol\":1549:1552  arr */\n      0x00\n        /* \".learneth/ethereum/remix-workshops/5.4 Functions - Inputs and Outputs/inputsAndOutputs.sol\":1542:1552  return arr */\n      dup1\n      sload\n      dup1\n      0x20\n      mul\n      0x20\n      add\n      mload(0x40)\n      swap1\n      dup2\n      add\n      0x40\n      mstore\n      dup1\n      swap3\n      swap2\n      swap1\n      dup2\n      dup2\n      mstore\n      0x20\n      add\n      dup3\n      dup1\n      sload\n      dup1\n      iszero\n      tag_45\n      jumpi\n      0x20\n      mul\n      dup3\n      add\n      swap2\n      swap1\n      0x00\n      mstore\n      keccak256(0x00, 0x20)\n      swap1\n    tag_46:\n      dup2\n      sload\n      dup2\n      mstore\n      0x20\n      add\n      swap1\n      0x01\n      add\n      swap1\n      dup1\n      dup4\n      gt\n      tag_46\n      jumpi\n    tag_45:\n      pop\n      pop\n      pop\n      pop\n      pop\n      swap1\n      pop\n        /* \".learneth/ethereum/remix-workshops/5.4 Functions - Inputs and Outputs/inputsAndOutputs.sol\":1473:1559  function arrayOutput() public view returns (uint[] memory) {... */\n      swap1\n      jump\t// out\n        /* \".learneth/ethereum/remix-workshops/5.4 Functions - Inputs and Outputs/inputsAndOutputs.sol\":338:510  function named()... */\n    tag_17:\n        /* \".learneth/ethereum/remix-workshops/5.4 Functions - Inputs and Outputs/inputsAndOutputs.sol\":413:419  uint x */\n      0x00\n        /* \".learneth/ethereum/remix-workshops/5.4 Functions - Inputs and Outputs/inputsAndOutputs.sol\":433:439  bool b */\n      dup1\n        /* \".learneth/ethereum/remix-workshops/5.4 Functions - Inputs and Outputs/inputsAndOutputs.sol\":453:459  uint y */\n      0x00\n        /* \".learneth/ethereum/remix-workshops/5.4 Functions - Inputs and Outputs/inputsAndOutputs.sol\":492:493  1 */\n      0x01\n        /* \".learneth/ethereum/remix-workshops/5.4 Functions - Inputs and Outputs/inputsAndOutputs.sol\":495:499  true */\n      dup1\n        /* \".learneth/ethereum/remix-workshops/5.4 Functions - Inputs and Outputs/inputsAndOutputs.sol\":501:502  2 */\n      0x02\n        /* \".learneth/ethereum/remix-workshops/5.4 Functions - Inputs and Outputs/inputsAndOutputs.sol\":484:503  return (1, true, 2) */\n      swap3\n      pop\n      swap3\n      pop\n      swap3\n      pop\n        /* \".learneth/ethereum/remix-workshops/5.4 Functions - Inputs and Outputs/inputsAndOutputs.sol\":338:510  function named()... */\n      swap1\n      swap2\n      swap3\n      jump\t// out\n        /* \".learneth/ethereum/remix-workshops/5.4 Functions - Inputs and Outputs/inputsAndOutputs.sol\":926:1273  function destructingAssigments()... */\n    tag_21:\n        /* \".learneth/ethereum/remix-workshops/5.4 Functions - Inputs and Outputs/inputsAndOutputs.sol\":1017:1021  uint */\n      0x00\n        /* \".learneth/ethereum/remix-workshops/5.4 Functions - Inputs and Outputs/inputsAndOutputs.sol\":1035:1039  bool */\n      dup1\n        /* \".learneth/ethereum/remix-workshops/5.4 Functions - Inputs and Outputs/inputsAndOutputs.sol\":1053:1057  uint */\n      0x00\n        /* \".learneth/ethereum/remix-workshops/5.4 Functions - Inputs and Outputs/inputsAndOutputs.sol\":1071:1075  uint */\n      dup1\n        /* \".learneth/ethereum/remix-workshops/5.4 Functions - Inputs and Outputs/inputsAndOutputs.sol\":1089:1093  uint */\n      0x00\n        /* \".learneth/ethereum/remix-workshops/5.4 Functions - Inputs and Outputs/inputsAndOutputs.sol\":1119:1125  uint i */\n      dup1\n        /* \".learneth/ethereum/remix-workshops/5.4 Functions - Inputs and Outputs/inputsAndOutputs.sol\":1127:1133  bool b */\n      0x00\n        /* \".learneth/ethereum/remix-workshops/5.4 Functions - Inputs and Outputs/inputsAndOutputs.sol\":1135:1141  uint j */\n      dup1\n        /* \".learneth/ethereum/remix-workshops/5.4 Functions - Inputs and Outputs/inputsAndOutputs.sol\":1145:1157  returnMany() */\n      tag_49\n        /* \".learneth/ethereum/remix-workshops/5.4 Functions - Inputs and Outputs/inputsAndOutputs.sol\":1145:1155  returnMany */\n      tag_31\n        /* \".learneth/ethereum/remix-workshops/5.4 Functions - Inputs and Outputs/inputsAndOutputs.sol\":1145:1157  returnMany() */\n      jump\t// in\n    tag_49:\n        /* \".learneth/ethereum/remix-workshops/5.4 Functions - Inputs and Outputs/inputsAndOutputs.sol\":1118:1157  (uint i, bool b, uint j) = returnMany() */\n      swap3\n      pop\n      swap3\n      pop\n      swap3\n      pop\n        /* \".learneth/ethereum/remix-workshops/5.4 Functions - Inputs and Outputs/inputsAndOutputs.sol\":1204:1210  uint x */\n      0x00\n        /* \".learneth/ethereum/remix-workshops/5.4 Functions - Inputs and Outputs/inputsAndOutputs.sol\":1214:1220  uint y */\n      dup1\n        /* \".learneth/ethereum/remix-workshops/5.4 Functions - Inputs and Outputs/inputsAndOutputs.sol\":1225:1226  4 */\n      0x04\n        /* \".learneth/ethereum/remix-workshops/5.4 Functions - Inputs and Outputs/inputsAndOutputs.sol\":1228:1229  5 */\n      0x05\n        /* \".learneth/ethereum/remix-workshops/5.4 Functions - Inputs and Outputs/inputsAndOutputs.sol\":1231:1232  6 */\n      0x06\n        /* \".learneth/ethereum/remix-workshops/5.4 Functions - Inputs and Outputs/inputsAndOutputs.sol\":1203:1233  (uint x, , uint y) = (4, 5, 6) */\n      swap3\n      pop\n      pop\n      swap2\n      pop\n        /* \".learneth/ethereum/remix-workshops/5.4 Functions - Inputs and Outputs/inputsAndOutputs.sol\":1252:1253  i */\n      dup5\n        /* \".learneth/ethereum/remix-workshops/5.4 Functions - Inputs and Outputs/inputsAndOutputs.sol\":1255:1256  b */\n      dup5\n        /* \".learneth/ethereum/remix-workshops/5.4 Functions - Inputs and Outputs/inputsAndOutputs.sol\":1258:1259  j */\n      dup5\n        /* \".learneth/ethereum/remix-workshops/5.4 Functions - Inputs and Outputs/inputsAndOutputs.sol\":1261:1262  x */\n      dup5\n        /* \".learneth/ethereum/remix-workshops/5.4 Functions - Inputs and Outputs/inputsAndOutputs.sol\":1264:1265  y */\n      dup5\n        /* \".learneth/ethereum/remix-workshops/5.4 Functions - Inputs and Outputs/inputsAndOutputs.sol\":1244:1266  return (i, b, j, x, y) */\n      swap10\n      pop\n      swap10\n      pop\n      swap10\n      pop\n      swap10\n      pop\n      swap10\n      pop\n      pop\n      pop\n      pop\n      pop\n      pop\n        /* \".learneth/ethereum/remix-workshops/5.4 Functions - Inputs and Outputs/inputsAndOutputs.sol\":926:1273  function destructingAssigments()... */\n      swap1\n      swap2\n      swap3\n      swap4\n      swap5\n      jump\t// out\n        /* \".learneth/ethereum/remix-workshops/5.4 Functions - Inputs and Outputs/inputsAndOutputs.sol\":1449:1466  uint[] public arr */\n    tag_27:\n      0x00\n      dup2\n      dup2\n      sload\n      dup2\n      lt\n      tag_50\n      jumpi\n      0x00\n      dup1\n      revert\n    tag_50:\n      swap1\n      0x00\n      mstore\n      keccak256(0x00, 0x20)\n      add\n      0x00\n      swap2\n      pop\n      swap1\n      pop\n      sload\n      dup2\n      jump\t// out\n        /* \".learneth/ethereum/remix-workshops/5.4 Functions - Inputs and Outputs/inputsAndOutputs.sol\":126:297  function returnMany()... */\n    tag_31:\n        /* \".learneth/ethereum/remix-workshops/5.4 Functions - Inputs and Outputs/inputsAndOutputs.sol\":206:210  uint */\n      0x00\n        /* \".learneth/ethereum/remix-workshops/5.4 Functions - Inputs and Outputs/inputsAndOutputs.sol\":224:228  bool */\n      dup1\n        /* \".learneth/ethereum/remix-workshops/5.4 Functions - Inputs and Outputs/inputsAndOutputs.sol\":242:246  uint */\n      0x00\n        /* \".learneth/ethereum/remix-workshops/5.4 Functions - Inputs and Outputs/inputsAndOutputs.sol\":279:280  1 */\n      0x01\n        /* \".learneth/ethereum/remix-workshops/5.4 Functions - Inputs and Outputs/inputsAndOutputs.sol\":282:286  true */\n      dup1\n        /* \".learneth/ethereum/remix-workshops/5.4 Functions - Inputs and Outputs/inputsAndOutputs.sol\":288:289  2 */\n      0x02\n        /* \".learneth/ethereum/remix-workshops/5.4 Functions - Inputs and Outputs/inputsAndOutputs.sol\":271:290  return (1, true, 2) */\n      swap3\n      pop\n      swap3\n      pop\n      swap3\n      pop\n        /* \".learneth/ethereum/remix-workshops/5.4 Functions - Inputs and Outputs/inputsAndOutputs.sol\":126:297  function returnMany()... */\n      swap1\n      swap2\n      swap3\n      jump\t// out\n        /* \".learneth/ethereum/remix-workshops/5.4 Functions - Inputs and Outputs/inputsAndOutputs.sol\":1585:1753  function returnTwo()... */\n    tag_34:\n        /* \".learneth/ethereum/remix-workshops/5.4 Functions - Inputs and Outputs/inputsAndOutputs.sol\":1664:1669  int a */\n      0x00\n        /* \".learneth/ethereum/remix-workshops/5.4 Functions - Inputs and Outputs/inputsAndOutputs.sol\":1683:1689  bool b */\n      dup1\n        /* \".learneth/ethereum/remix-workshops/5.4 Functions - Inputs and Outputs/inputsAndOutputs.sol\":1718:1720  -2 */\n      0xfffffffffffffffffffffffffffffffffffffffffffffffffffffffffffffffe\n        /* \".learneth/ethereum/remix-workshops/5.4 Functions - Inputs and Outputs/inputsAndOutputs.sol\":1714:1720  a = -2 */\n      swap2\n      pop\n        /* \".learneth/ethereum/remix-workshops/5.4 Functions - Inputs and Outputs/inputsAndOutputs.sol\":1738:1742  true */\n      0x01\n        /* \".learneth/ethereum/remix-workshops/5.4 Functions - Inputs and Outputs/inputsAndOutputs.sol\":1734:1742  b = true */\n      swap1\n      pop\n        /* \".learneth/ethereum/remix-workshops/5.4 Functions - Inputs and Outputs/inputsAndOutputs.sol\":1585:1753  function returnTwo()... */\n      swap1\n      swap2\n      jump\t// out\n        /* \".learneth/ethereum/remix-workshops/5.4 Functions - Inputs and Outputs/inputsAndOutputs.sol\":625:819  function assigned()... */\n    tag_38:\n        /* \".learneth/ethereum/remix-workshops/5.4 Functions - Inputs and Outputs/inputsAndOutputs.sol\":703:709  uint x */\n      0x00\n        /* \".learneth/ethereum/remix-workshops/5.4 Functions - Inputs and Outputs/inputsAndOutputs.sol\":723:729  bool b */\n      dup1\n        /* \".learneth/ethereum/remix-workshops/5.4 Functions - Inputs and Outputs/inputsAndOutputs.sol\":743:749  uint y */\n      0x00\n        /* \".learneth/ethereum/remix-workshops/5.4 Functions - Inputs and Outputs/inputsAndOutputs.sol\":778:779  1 */\n      0x01\n        /* \".learneth/ethereum/remix-workshops/5.4 Functions - Inputs and Outputs/inputsAndOutputs.sol\":774:779  x = 1 */\n      swap3\n      pop\n        /* \".learneth/ethereum/remix-workshops/5.4 Functions - Inputs and Outputs/inputsAndOutputs.sol\":793:797  true */\n      0x01\n        /* \".learneth/ethereum/remix-workshops/5.4 Functions - Inputs and Outputs/inputsAndOutputs.sol\":789:797  b = true */\n      swap2\n      pop\n        /* \".learneth/ethereum/remix-workshops/5.4 Functions - Inputs and Outputs/inputsAndOutputs.sol\":811:812  2 */\n      0x02\n        /* \".learneth/ethereum/remix-workshops/5.4 Functions - Inputs and Outputs/inputsAndOutputs.sol\":807:812  y = 2 */\n      swap1\n      pop\n        /* \".learneth/ethereum/remix-workshops/5.4 Functions - Inputs and Outputs/inputsAndOutputs.sol\":625:819  function assigned()... */\n      swap1\n      swap2\n      swap3\n      jump\t// out\n        /* \".learneth/ethereum/remix-workshops/5.4 Functions - Inputs and Outputs/inputsAndOutputs.sol\":1362:1411  function arrayInput(uint[] memory _arr) public {} */\n    tag_43:\n      pop\n      jump\t// out\n        /* \"#utility.yul\":7:121   */\n    tag_56:\n        /* \"#utility.yul\":74:80   */\n      0x00\n        /* \"#utility.yul\":108:113   */\n      dup2\n        /* \"#utility.yul\":102:114   */\n      mload\n        /* \"#utility.yul\":92:114   */\n      swap1\n      pop\n        /* \"#utility.yul\":7:121   */\n      swap2\n      swap1\n      pop\n      jump\t// out\n        /* \"#utility.yul\":127:311   */\n    tag_57:\n        /* \"#utility.yul\":226:237   */\n      0x00\n        /* \"#utility.yul\":260:266   */\n      dup3\n        /* \"#utility.yul\":255:258   */\n      dup3\n        /* \"#utility.yul\":248:267   */\n      mstore\n        /* \"#utility.yul\":300:304   */\n      0x20\n        /* \"#utility.yul\":295:298   */\n      dup3\n        /* \"#utility.yul\":291:305   */\n      add\n        /* \"#utility.yul\":276:305   */\n      swap1\n      pop\n        /* \"#utility.yul\":127:311   */\n      swap3\n      swap2\n      pop\n      pop\n      jump\t// out\n        /* \"#utility.yul\":317:449   */\n    tag_58:\n        /* \"#utility.yul\":384:388   */\n      0x00\n        /* \"#utility.yul\":407:410   */\n      dup2\n        /* \"#utility.yul\":399:410   */\n      swap1\n      pop\n        /* \"#utility.yul\":437:441   */\n      0x20\n        /* \"#utility.yul\":432:435   */\n      dup3\n        /* \"#utility.yul\":428:442   */\n      add\n        /* \"#utility.yul\":420:442   */\n      swap1\n      pop\n        /* \"#utility.yul\":317:449   */\n      swap2\n      swap1\n      pop\n      jump\t// out\n        /* \"#utility.yul\":455:532   */\n    tag_59:\n        /* \"#utility.yul\":492:499   */\n      0x00\n        /* \"#utility.yul\":521:526   */\n      dup2\n        /* \"#utility.yul\":510:526   */\n      swap1\n      pop\n        /* \"#utility.yul\":455:532   */\n      swap2\n      swap1\n      pop\n      jump\t// out\n        /* \"#utility.yul\":538:646   */\n    tag_60:\n        /* \"#utility.yul\":615:639   */\n      tag_89\n        /* \"#utility.yul\":633:638   */\n      dup2\n        /* \"#utility.yul\":615:639   */\n      tag_59\n      jump\t// in\n    tag_89:\n        /* \"#utility.yul\":610:613   */\n      dup3\n        /* \"#utility.yul\":603:640   */\n      mstore\n        /* \"#utility.yul\":538:646   */\n      pop\n      pop\n      jump\t// out\n        /* \"#utility.yul\":652:831   */\n    tag_61:\n        /* \"#utility.yul\":721:731   */\n      0x00\n        /* \"#utility.yul\":742:788   */\n      tag_91\n        /* \"#utility.yul\":784:787   */\n      dup4\n        /* \"#utility.yul\":776:782   */\n      dup4\n        /* \"#utility.yul\":742:788   */\n      tag_60\n      jump\t// in\n    tag_91:\n        /* \"#utility.yul\":820:824   */\n      0x20\n        /* \"#utility.yul\":815:818   */\n      dup4\n        /* \"#utility.yul\":811:825   */\n      add\n        /* \"#utility.yul\":797:825   */\n      swap1\n      pop\n        /* \"#utility.yul\":652:831   */\n      swap3\n      swap2\n      pop\n      pop\n      jump\t// out\n        /* \"#utility.yul\":837:950   */\n    tag_62:\n        /* \"#utility.yul\":907:911   */\n      0x00\n        /* \"#utility.yul\":939:943   */\n      0x20\n        /* \"#utility.yul\":934:937   */\n      dup3\n        /* \"#utility.yul\":930:944   */\n      add\n        /* \"#utility.yul\":922:944   */\n      swap1\n      pop\n        /* \"#utility.yul\":837:950   */\n      swap2\n      swap1\n      pop\n      jump\t// out\n        /* \"#utility.yul\":986:1718   */\n    tag_63:\n        /* \"#utility.yul\":1105:1108   */\n      0x00\n        /* \"#utility.yul\":1134:1188   */\n      tag_94\n        /* \"#utility.yul\":1182:1187   */\n      dup3\n        /* \"#utility.yul\":1134:1188   */\n      tag_56\n      jump\t// in\n    tag_94:\n        /* \"#utility.yul\":1204:1290   */\n      tag_95\n        /* \"#utility.yul\":1283:1289   */\n      dup2\n        /* \"#utility.yul\":1278:1281   */\n      dup6\n        /* \"#utility.yul\":1204:1290   */\n      tag_57\n      jump\t// in\n    tag_95:\n        /* \"#utility.yul\":1197:1290   */\n      swap4\n      pop\n        /* \"#utility.yul\":1314:1370   */\n      tag_96\n        /* \"#utility.yul\":1364:1369   */\n      dup4\n        /* \"#utility.yul\":1314:1370   */\n      tag_58\n      jump\t// in\n    tag_96:\n        /* \"#utility.yul\":1393:1400   */\n      dup1\n        /* \"#utility.yul\":1424:1425   */\n      0x00\n        /* \"#utility.yul\":1409:1693   */\n    tag_97:\n        /* \"#utility.yul\":1434:1440   */\n      dup4\n        /* \"#utility.yul\":1431:1432   */\n      dup2\n        /* \"#utility.yul\":1428:1441   */\n      lt\n        /* \"#utility.yul\":1409:1693   */\n      iszero\n      tag_99\n      jumpi\n        /* \"#utility.yul\":1510:1516   */\n      dup2\n        /* \"#utility.yul\":1504:1517   */\n      mload\n        /* \"#utility.yul\":1537:1600   */\n      tag_100\n        /* \"#utility.yul\":1596:1599   */\n      dup9\n        /* \"#utility.yul\":1581:1594   */\n      dup3\n        /* \"#utility.yul\":1537:1600   */\n      tag_61\n      jump\t// in\n    tag_100:\n        /* \"#utility.yul\":1530:1600   */\n      swap8\n      pop\n        /* \"#utility.yul\":1623:1683   */\n      tag_101\n        /* \"#utility.yul\":1676:1682   */\n      dup4\n        /* \"#utility.yul\":1623:1683   */\n      tag_62\n      jump\t// in\n    tag_101:\n        /* \"#utility.yul\":1613:1683   */\n      swap3\n      pop\n        /* \"#utility.yul\":1469:1693   */\n      pop\n        /* \"#utility.yul\":1456:1457   */\n      0x01\n        /* \"#utility.yul\":1453:1454   */\n      dup2\n        /* \"#utility.yul\":1449:1458   */\n      add\n        /* \"#utility.yul\":1444:1458   */\n      swap1\n      pop\n        /* \"#utility.yul\":1409:1693   */\n      jump(tag_97)\n    tag_99:\n        /* \"#utility.yul\":1413:1427   */\n      pop\n        /* \"#utility.yul\":1709:1712   */\n      dup6\n        /* \"#utility.yul\":1702:1712   */\n      swap4\n      pop\n        /* \"#utility.yul\":1110:1718   */\n      pop\n      pop\n      pop\n        /* \"#utility.yul\":986:1718   */\n      swap3\n      swap2\n      pop\n      pop\n      jump\t// out\n        /* \"#utility.yul\":1724:2097   */\n    tag_15:\n        /* \"#utility.yul\":1867:1871   */\n      0x00\n        /* \"#utility.yul\":1905:1907   */\n      0x20\n        /* \"#utility.yul\":1894:1903   */\n      dup3\n        /* \"#utility.yul\":1890:1908   */\n      add\n        /* \"#utility.yul\":1882:1908   */\n      swap1\n      pop\n        /* \"#utility.yul\":1954:1963   */\n      dup2\n        /* \"#utility.yul\":1948:1952   */\n      dup2\n        /* \"#utility.yul\":1944:1964   */\n      sub\n        /* \"#utility.yul\":1940:1941   */\n      0x00\n        /* \"#utility.yul\":1929:1938   */\n      dup4\n        /* \"#utility.yul\":1925:1942   */\n      add\n        /* \"#utility.yul\":1918:1965   */\n      mstore\n        /* \"#utility.yul\":1982:2090   */\n      tag_103\n        /* \"#utility.yul\":2085:2089   */\n      dup2\n        /* \"#utility.yul\":2076:2082   */\n      dup5\n        /* \"#utility.yul\":1982:2090   */\n      tag_63\n      jump\t// in\n    tag_103:\n        /* \"#utility.yul\":1974:2090   */\n      swap1\n      pop\n        /* \"#utility.yul\":1724:2097   */\n      swap3\n      swap2\n      pop\n      pop\n      jump\t// out\n        /* \"#utility.yul\":2103:2221   */\n    tag_64:\n        /* \"#utility.yul\":2190:2214   */\n      tag_105\n        /* \"#utility.yul\":2208:2213   */\n      dup2\n        /* \"#utility.yul\":2190:2214   */\n      tag_59\n      jump\t// in\n    tag_105:\n        /* \"#utility.yul\":2185:2188   */\n      dup3\n        /* \"#utility.yul\":2178:2215   */\n      mstore\n        /* \"#utility.yul\":2103:2221   */\n      pop\n      pop\n      jump\t// out\n        /* \"#utility.yul\":2227:2317   */\n    tag_65:\n        /* \"#utility.yul\":2261:2268   */\n      0x00\n        /* \"#utility.yul\":2304:2309   */\n      dup2\n        /* \"#utility.yul\":2297:2310   */\n      iszero\n        /* \"#utility.yul\":2290:2311   */\n      iszero\n        /* \"#utility.yul\":2279:2311   */\n      swap1\n      pop\n        /* \"#utility.yul\":2227:2317   */\n      swap2\n      swap1\n      pop\n      jump\t// out\n        /* \"#utility.yul\":2323:2432   */\n    tag_66:\n        /* \"#utility.yul\":2404:2425   */\n      tag_108\n        /* \"#utility.yul\":2419:2424   */\n      dup2\n        /* \"#utility.yul\":2404:2425   */\n      tag_65\n      jump\t// in\n    tag_108:\n        /* \"#utility.yul\":2399:2402   */\n      dup3\n        /* \"#utility.yul\":2392:2426   */\n      mstore\n        /* \"#utility.yul\":2323:2432   */\n      pop\n      pop\n      jump\t// out\n        /* \"#utility.yul\":2438:2868   */\n    tag_19:\n        /* \"#utility.yul\":2581:2585   */\n      0x00\n        /* \"#utility.yul\":2619:2621   */\n      0x60\n        /* \"#utility.yul\":2608:2617   */\n      dup3\n        /* \"#utility.yul\":2604:2622   */\n      add\n        /* \"#utility.yul\":2596:2622   */\n      swap1\n      pop\n        /* \"#utility.yul\":2632:2703   */\n      tag_110\n        /* \"#utility.yul\":2700:2701   */\n      0x00\n        /* \"#utility.yul\":2689:2698   */\n      dup4\n        /* \"#utility.yul\":2685:2702   */\n      add\n        /* \"#utility.yul\":2676:2682   */\n      dup7\n        /* \"#utility.yul\":2632:2703   */\n      tag_64\n      jump\t// in\n    tag_110:\n        /* \"#utility.yul\":2713:2779   */\n      tag_111\n        /* \"#utility.yul\":2775:2777   */\n      0x20\n        /* \"#utility.yul\":2764:2773   */\n      dup4\n        /* \"#utility.yul\":2760:2778   */\n      add\n        /* \"#utility.yul\":2751:2757   */\n      dup6\n        /* \"#utility.yul\":2713:2779   */\n      tag_66\n      jump\t// in\n    tag_111:\n        /* \"#utility.yul\":2789:2861   */\n      tag_112\n        /* \"#utility.yul\":2857:2859   */\n      0x40\n        /* \"#utility.yul\":2846:2855   */\n      dup4\n        /* \"#utility.yul\":2842:2860   */\n      add\n        /* \"#utility.yul\":2833:2839   */\n      dup5\n        /* \"#utility.yul\":2789:2861   */\n      tag_64\n      jump\t// in\n    tag_112:\n        /* \"#utility.yul\":2438:2868   */\n      swap5\n      swap4\n      pop\n      pop\n      pop\n      pop\n      jump\t// out\n        /* \"#utility.yul\":2874:3526   */\n    tag_23:\n        /* \"#utility.yul\":3073:3077   */\n      0x00\n        /* \"#utility.yul\":3111:3114   */\n      0xa0\n        /* \"#utility.yul\":3100:3109   */\n      dup3\n        /* \"#utility.yul\":3096:3115   */\n      add\n        /* \"#utility.yul\":3088:3115   */\n      swap1\n      pop\n        /* \"#utility.yul\":3125:3196   */\n      tag_114\n        /* \"#utility.yul\":3193:3194   */\n      0x00\n        /* \"#utility.yul\":3182:3191   */\n      dup4\n        /* \"#utility.yul\":3178:3195   */\n      add\n        /* \"#utility.yul\":3169:3175   */\n      dup9\n        /* \"#utility.yul\":3125:3196   */\n      tag_64\n      jump\t// in\n    tag_114:\n        /* \"#utility.yul\":3206:3272   */\n      tag_115\n        /* \"#utility.yul\":3268:3270   */\n      0x20\n        /* \"#utility.yul\":3257:3266   */\n      dup4\n        /* \"#utility.yul\":3253:3271   */\n      add\n        /* \"#utility.yul\":3244:3250   */\n      dup8\n        /* \"#utility.yul\":3206:3272   */\n      tag_66\n      jump\t// in\n    tag_115:\n        /* \"#utility.yul\":3282:3354   */\n      tag_116\n        /* \"#utility.yul\":3350:3352   */\n      0x40\n        /* \"#utility.yul\":3339:3348   */\n      dup4\n        /* \"#utility.yul\":3335:3353   */\n      add\n        /* \"#utility.yul\":3326:3332   */\n      dup7\n        /* \"#utility.yul\":3282:3354   */\n      tag_64\n      jump\t// in\n    tag_116:\n        /* \"#utility.yul\":3364:3436   */\n      tag_117\n        /* \"#utility.yul\":3432:3434   */\n      0x60\n        /* \"#utility.yul\":3421:3430   */\n      dup4\n        /* \"#utility.yul\":3417:3435   */\n      add\n        /* \"#utility.yul\":3408:3414   */\n      dup6\n        /* \"#utility.yul\":3364:3436   */\n      tag_64\n      jump\t// in\n    tag_117:\n        /* \"#utility.yul\":3446:3519   */\n      tag_118\n        /* \"#utility.yul\":3514:3517   */\n      0x80\n        /* \"#utility.yul\":3503:3512   */\n      dup4\n        /* \"#utility.yul\":3499:3518   */\n      add\n        /* \"#utility.yul\":3490:3496   */\n      dup5\n        /* \"#utility.yul\":3446:3519   */\n      tag_64\n      jump\t// in\n    tag_118:\n        /* \"#utility.yul\":2874:3526   */\n      swap7\n      swap6\n      pop\n      pop\n      pop\n      pop\n      pop\n      pop\n      jump\t// out\n        /* \"#utility.yul\":3532:3607   */\n    tag_67:\n        /* \"#utility.yul\":3565:3571   */\n      0x00\n        /* \"#utility.yul\":3598:3600   */\n      0x40\n        /* \"#utility.yul\":3592:3601   */\n      mload\n        /* \"#utility.yul\":3582:3601   */\n      swap1\n      pop\n        /* \"#utility.yul\":3532:3607   */\n      swap1\n      jump\t// out\n        /* \"#utility.yul\":3613:3730   */\n    tag_68:\n        /* \"#utility.yul\":3722:3723   */\n      0x00\n        /* \"#utility.yul\":3719:3720   */\n      dup1\n        /* \"#utility.yul\":3712:3724   */\n      revert\n        /* \"#utility.yul\":3736:3853   */\n    tag_69:\n        /* \"#utility.yul\":3845:3846   */\n      0x00\n        /* \"#utility.yul\":3842:3843   */\n      dup1\n        /* \"#utility.yul\":3835:3847   */\n      revert\n        /* \"#utility.yul\":3859:3981   */\n    tag_70:\n        /* \"#utility.yul\":3932:3956   */\n      tag_123\n        /* \"#utility.yul\":3950:3955   */\n      dup2\n        /* \"#utility.yul\":3932:3956   */\n      tag_59\n      jump\t// in\n    tag_123:\n        /* \"#utility.yul\":3925:3930   */\n      dup2\n        /* \"#utility.yul\":3922:3957   */\n      eq\n        /* \"#utility.yul\":3912:3975   */\n      tag_124\n      jumpi\n        /* \"#utility.yul\":3971:3972   */\n      0x00\n        /* \"#utility.yul\":3968:3969   */\n      dup1\n        /* \"#utility.yul\":3961:3973   */\n      revert\n        /* \"#utility.yul\":3912:3975   */\n    tag_124:\n        /* \"#utility.yul\":3859:3981   */\n      pop\n      jump\t// out\n        /* \"#utility.yul\":3987:4126   */\n    tag_71:\n        /* \"#utility.yul\":4033:4038   */\n      0x00\n        /* \"#utility.yul\":4071:4077   */\n      dup2\n        /* \"#utility.yul\":4058:4078   */\n      calldataload\n        /* \"#utility.yul\":4049:4078   */\n      swap1\n      pop\n        /* \"#utility.yul\":4087:4120   */\n      tag_126\n        /* \"#utility.yul\":4114:4119   */\n      dup2\n        /* \"#utility.yul\":4087:4120   */\n      tag_70\n      jump\t// in\n    tag_126:\n        /* \"#utility.yul\":3987:4126   */\n      swap3\n      swap2\n      pop\n      pop\n      jump\t// out\n        /* \"#utility.yul\":4132:4461   */\n    tag_26:\n        /* \"#utility.yul\":4191:4197   */\n      0x00\n        /* \"#utility.yul\":4240:4242   */\n      0x20\n        /* \"#utility.yul\":4228:4237   */\n      dup3\n        /* \"#utility.yul\":4219:4226   */\n      dup5\n        /* \"#utility.yul\":4215:4238   */\n      sub\n        /* \"#utility.yul\":4211:4243   */\n      slt\n        /* \"#utility.yul\":4208:4327   */\n      iszero\n      tag_128\n      jumpi\n        /* \"#utility.yul\":4246:4325   */\n      tag_129\n      tag_68\n      jump\t// in\n    tag_129:\n        /* \"#utility.yul\":4208:4327   */\n    tag_128:\n        /* \"#utility.yul\":4366:4367   */\n      0x00\n        /* \"#utility.yul\":4391:4444   */\n      tag_130\n        /* \"#utility.yul\":4436:4443   */\n      dup5\n        /* \"#utility.yul\":4427:4433   */\n      dup3\n        /* \"#utility.yul\":4416:4425   */\n      dup6\n        /* \"#utility.yul\":4412:4434   */\n      add\n        /* \"#utility.yul\":4391:4444   */\n      tag_71\n      jump\t// in\n    tag_130:\n        /* \"#utility.yul\":4381:4444   */\n      swap2\n      pop\n        /* \"#utility.yul\":4337:4454   */\n      pop\n        /* \"#utility.yul\":4132:4461   */\n      swap3\n      swap2\n      pop\n      pop\n      jump\t// out\n        /* \"#utility.yul\":4467:4689   */\n    tag_29:\n        /* \"#utility.yul\":4560:4564   */\n      0x00\n        /* \"#utility.yul\":4598:4600   */\n      0x20\n        /* \"#utility.yul\":4587:4596   */\n      dup3\n        /* \"#utility.yul\":4583:4601   */\n      add\n        /* \"#utility.yul\":4575:4601   */\n      swap1\n      pop\n        /* \"#utility.yul\":4611:4682   */\n      tag_132\n        /* \"#utility.yul\":4679:4680   */\n      0x00\n        /* \"#utility.yul\":4668:4677   */\n      dup4\n        /* \"#utility.yul\":4664:4681   */\n      add\n        /* \"#utility.yul\":4655:4661   */\n      dup5\n        /* \"#utility.yul\":4611:4682   */\n      tag_64\n      jump\t// in\n    tag_132:\n        /* \"#utility.yul\":4467:4689   */\n      swap3\n      swap2\n      pop\n      pop\n      jump\t// out\n        /* \"#utility.yul\":4695:4771   */\n    tag_72:\n        /* \"#utility.yul\":4731:4738   */\n      0x00\n        /* \"#utility.yul\":4760:4765   */\n      dup2\n        /* \"#utility.yul\":4749:4765   */\n      swap1\n      pop\n        /* \"#utility.yul\":4695:4771   */\n      swap2\n      swap1\n      pop\n      jump\t// out\n        /* \"#utility.yul\":4777:4892   */\n    tag_73:\n        /* \"#utility.yul\":4862:4885   */\n      tag_135\n        /* \"#utility.yul\":4879:4884   */\n      dup2\n        /* \"#utility.yul\":4862:4885   */\n      tag_72\n      jump\t// in\n    tag_135:\n        /* \"#utility.yul\":4857:4860   */\n      dup3\n        /* \"#utility.yul\":4850:4886   */\n      mstore\n        /* \"#utility.yul\":4777:4892   */\n      pop\n      pop\n      jump\t// out\n        /* \"#utility.yul\":4898:5214   */\n    tag_36:\n        /* \"#utility.yul\":5011:5015   */\n      0x00\n        /* \"#utility.yul\":5049:5051   */\n      0x40\n        /* \"#utility.yul\":5038:5047   */\n      dup3\n        /* \"#utility.yul\":5034:5052   */\n      add\n        /* \"#utility.yul\":5026:5052   */\n      swap1\n      pop\n        /* \"#utility.yul\":5062:5131   */\n      tag_137\n        /* \"#utility.yul\":5128:5129   */\n      0x00\n        /* \"#utility.yul\":5117:5126   */\n      dup4\n        /* \"#utility.yul\":5113:5130   */\n      add\n        /* \"#utility.yul\":5104:5110   */\n      dup6\n        /* \"#utility.yul\":5062:5131   */\n      tag_73\n      jump\t// in\n    tag_137:\n        /* \"#utility.yul\":5141:5207   */\n      tag_138\n        /* \"#utility.yul\":5203:5205   */\n      0x20\n        /* \"#utility.yul\":5192:5201   */\n      dup4\n        /* \"#utility.yul\":5188:5206   */\n      add\n        /* \"#utility.yul\":5179:5185   */\n      dup5\n        /* \"#utility.yul\":5141:5207   */\n      tag_66\n      jump\t// in\n    tag_138:\n        /* \"#utility.yul\":4898:5214   */\n      swap4\n      swap3\n      pop\n      pop\n      pop\n      jump\t// out\n        /* \"#utility.yul\":5220:5337   */\n    tag_74:\n        /* \"#utility.yul\":5329:5330   */\n      0x00\n        /* \"#utility.yul\":5326:5327   */\n      dup1\n        /* \"#utility.yul\":5319:5331   */\n      revert\n        /* \"#utility.yul\":5343:5445   */\n    tag_75:\n        /* \"#utility.yul\":5384:5390   */\n      0x00\n        /* \"#utility.yul\":5435:5437   */\n      0x1f\n        /* \"#utility.yul\":5431:5438   */\n      not\n        /* \"#utility.yul\":5426:5428   */\n      0x1f\n        /* \"#utility.yul\":5419:5424   */\n      dup4\n        /* \"#utility.yul\":5415:5429   */\n      add\n        /* \"#utility.yul\":5411:5439   */\n      and\n        /* \"#utility.yul\":5401:5439   */\n      swap1\n      pop\n        /* \"#utility.yul\":5343:5445   */\n      swap2\n      swap1\n      pop\n      jump\t// out\n        /* \"#utility.yul\":5451:5631   */\n    tag_76:\n        /* \"#utility.yul\":5499:5576   */\n      0x4e487b7100000000000000000000000000000000000000000000000000000000\n        /* \"#utility.yul\":5496:5497   */\n      0x00\n        /* \"#utility.yul\":5489:5577   */\n      mstore\n        /* \"#utility.yul\":5596:5600   */\n      0x41\n        /* \"#utility.yul\":5593:5594   */\n      0x04\n        /* \"#utility.yul\":5586:5601   */\n      mstore\n        /* \"#utility.yul\":5620:5624   */\n      0x24\n        /* \"#utility.yul\":5617:5618   */\n      0x00\n        /* \"#utility.yul\":5610:5625   */\n      revert\n        /* \"#utility.yul\":5637:5918   */\n    tag_77:\n        /* \"#utility.yul\":5720:5747   */\n      tag_143\n        /* \"#utility.yul\":5742:5746   */\n      dup3\n        /* \"#utility.yul\":5720:5747   */\n      tag_75\n      jump\t// in\n    tag_143:\n        /* \"#utility.yul\":5712:5718   */\n      dup2\n        /* \"#utility.yul\":5708:5748   */\n      add\n        /* \"#utility.yul\":5850:5856   */\n      dup2\n        /* \"#utility.yul\":5838:5848   */\n      dup2\n        /* \"#utility.yul\":5835:5857   */\n      lt\n        /* \"#utility.yul\":5814:5832   */\n      0xffffffffffffffff\n        /* \"#utility.yul\":5802:5812   */\n      dup3\n        /* \"#utility.yul\":5799:5833   */\n      gt\n        /* \"#utility.yul\":5796:5858   */\n      or\n        /* \"#utility.yul\":5793:5881   */\n      iszero\n      tag_144\n      jumpi\n        /* \"#utility.yul\":5861:5879   */\n      tag_145\n      tag_76\n      jump\t// in\n    tag_145:\n        /* \"#utility.yul\":5793:5881   */\n    tag_144:\n        /* \"#utility.yul\":5901:5911   */\n      dup1\n        /* \"#utility.yul\":5897:5899   */\n      0x40\n        /* \"#utility.yul\":5890:5912   */\n      mstore\n        /* \"#utility.yul\":5680:5918   */\n      pop\n        /* \"#utility.yul\":5637:5918   */\n      pop\n      pop\n      jump\t// out\n        /* \"#utility.yul\":5924:6053   */\n    tag_78:\n        /* \"#utility.yul\":5958:5964   */\n      0x00\n        /* \"#utility.yul\":5985:6005   */\n      tag_147\n      tag_67\n      jump\t// in\n    tag_147:\n        /* \"#utility.yul\":5975:6005   */\n      swap1\n      pop\n        /* \"#utility.yul\":6014:6047   */\n      tag_148\n        /* \"#utility.yul\":6042:6046   */\n      dup3\n        /* \"#utility.yul\":6034:6040   */\n      dup3\n        /* \"#utility.yul\":6014:6047   */\n      tag_77\n      jump\t// in\n    tag_148:\n        /* \"#utility.yul\":5924:6053   */\n      swap2\n      swap1\n      pop\n      jump\t// out\n        /* \"#utility.yul\":6059:6370   */\n    tag_79:\n        /* \"#utility.yul\":6136:6140   */\n      0x00\n        /* \"#utility.yul\":6226:6244   */\n      0xffffffffffffffff\n        /* \"#utility.yul\":6218:6224   */\n      dup3\n        /* \"#utility.yul\":6215:6245   */\n      gt\n        /* \"#utility.yul\":6212:6268   */\n      iszero\n      tag_150\n      jumpi\n        /* \"#utility.yul\":6248:6266   */\n      tag_151\n      tag_76\n      jump\t// in\n    tag_151:\n        /* \"#utility.yul\":6212:6268   */\n    tag_150:\n        /* \"#utility.yul\":6298:6302   */\n      0x20\n        /* \"#utility.yul\":6290:6296   */\n      dup3\n        /* \"#utility.yul\":6286:6303   */\n      mul\n        /* \"#utility.yul\":6278:6303   */\n      swap1\n      pop\n        /* \"#utility.yul\":6358:6362   */\n      0x20\n        /* \"#utility.yul\":6352:6356   */\n      dup2\n        /* \"#utility.yul\":6348:6363   */\n      add\n        /* \"#utility.yul\":6340:6363   */\n      swap1\n      pop\n        /* \"#utility.yul\":6059:6370   */\n      swap2\n      swap1\n      pop\n      jump\t// out\n        /* \"#utility.yul\":6376:6493   */\n    tag_80:\n        /* \"#utility.yul\":6485:6486   */\n      0x00\n        /* \"#utility.yul\":6482:6483   */\n      dup1\n        /* \"#utility.yul\":6475:6487   */\n      revert\n        /* \"#utility.yul\":6516:7226   */\n    tag_81:\n        /* \"#utility.yul\":6612:6617   */\n      0x00\n        /* \"#utility.yul\":6637:6718   */\n      tag_154\n        /* \"#utility.yul\":6653:6717   */\n      tag_155\n        /* \"#utility.yul\":6710:6716   */\n      dup5\n        /* \"#utility.yul\":6653:6717   */\n      tag_79\n      jump\t// in\n    tag_155:\n        /* \"#utility.yul\":6637:6718   */\n      tag_78\n      jump\t// in\n    tag_154:\n        /* \"#utility.yul\":6628:6718   */\n      swap1\n      pop\n        /* \"#utility.yul\":6738:6743   */\n      dup1\n        /* \"#utility.yul\":6767:6773   */\n      dup4\n        /* \"#utility.yul\":6760:6765   */\n      dup3\n        /* \"#utility.yul\":6753:6774   */\n      mstore\n        /* \"#utility.yul\":6801:6805   */\n      0x20\n        /* \"#utility.yul\":6794:6799   */\n      dup3\n        /* \"#utility.yul\":6790:6806   */\n      add\n        /* \"#utility.yul\":6783:6806   */\n      swap1\n      pop\n        /* \"#utility.yul\":6854:6858   */\n      0x20\n        /* \"#utility.yul\":6846:6852   */\n      dup5\n        /* \"#utility.yul\":6842:6859   */\n      mul\n        /* \"#utility.yul\":6834:6840   */\n      dup4\n        /* \"#utility.yul\":6830:6860   */\n      add\n        /* \"#utility.yul\":6883:6886   */\n      dup6\n        /* \"#utility.yul\":6875:6881   */\n      dup2\n        /* \"#utility.yul\":6872:6887   */\n      gt\n        /* \"#utility.yul\":6869:6991   */\n      iszero\n      tag_156\n      jumpi\n        /* \"#utility.yul\":6902:6981   */\n      tag_157\n      tag_80\n      jump\t// in\n    tag_157:\n        /* \"#utility.yul\":6869:6991   */\n    tag_156:\n        /* \"#utility.yul\":7017:7023   */\n      dup4\n        /* \"#utility.yul\":7000:7220   */\n    tag_158:\n        /* \"#utility.yul\":7034:7040   */\n      dup2\n        /* \"#utility.yul\":7029:7032   */\n      dup2\n        /* \"#utility.yul\":7026:7041   */\n      lt\n        /* \"#utility.yul\":7000:7220   */\n      iszero\n      tag_160\n      jumpi\n        /* \"#utility.yul\":7109:7112   */\n      dup1\n        /* \"#utility.yul\":7138:7175   */\n      tag_161\n        /* \"#utility.yul\":7171:7174   */\n      dup9\n        /* \"#utility.yul\":7159:7169   */\n      dup3\n        /* \"#utility.yul\":7138:7175   */\n      tag_71\n      jump\t// in\n    tag_161:\n        /* \"#utility.yul\":7133:7136   */\n      dup5\n        /* \"#utility.yul\":7126:7176   */\n      mstore\n        /* \"#utility.yul\":7205:7209   */\n      0x20\n        /* \"#utility.yul\":7200:7203   */\n      dup5\n        /* \"#utility.yul\":7196:7210   */\n      add\n        /* \"#utility.yul\":7189:7210   */\n      swap4\n      pop\n        /* \"#utility.yul\":7076:7220   */\n      pop\n        /* \"#utility.yul\":7060:7064   */\n      0x20\n        /* \"#utility.yul\":7055:7058   */\n      dup2\n        /* \"#utility.yul\":7051:7065   */\n      add\n        /* \"#utility.yul\":7044:7065   */\n      swap1\n      pop\n        /* \"#utility.yul\":7000:7220   */\n      jump(tag_158)\n    tag_160:\n        /* \"#utility.yul\":7004:7025   */\n      pop\n        /* \"#utility.yul\":6618:7226   */\n      pop\n      pop\n        /* \"#utility.yul\":6516:7226   */\n      swap4\n      swap3\n      pop\n      pop\n      pop\n      jump\t// out\n        /* \"#utility.yul\":7249:7619   */\n    tag_82:\n        /* \"#utility.yul\":7320:7325   */\n      0x00\n        /* \"#utility.yul\":7369:7372   */\n      dup3\n        /* \"#utility.yul\":7362:7366   */\n      0x1f\n        /* \"#utility.yul\":7354:7360   */\n      dup4\n        /* \"#utility.yul\":7350:7367   */\n      add\n        /* \"#utility.yul\":7346:7373   */\n      slt\n        /* \"#utility.yul\":7336:7458   */\n      tag_163\n      jumpi\n        /* \"#utility.yul\":7377:7456   */\n      tag_164\n      tag_74\n      jump\t// in\n    tag_164:\n        /* \"#utility.yul\":7336:7458   */\n    tag_163:\n        /* \"#utility.yul\":7494:7500   */\n      dup2\n        /* \"#utility.yul\":7481:7501   */\n      calldataload\n        /* \"#utility.yul\":7519:7613   */\n      tag_165\n        /* \"#utility.yul\":7609:7612   */\n      dup5\n        /* \"#utility.yul\":7601:7607   */\n      dup3\n        /* \"#utility.yul\":7594:7598   */\n      0x20\n        /* \"#utility.yul\":7586:7592   */\n      dup7\n        /* \"#utility.yul\":7582:7599   */\n      add\n        /* \"#utility.yul\":7519:7613   */\n      tag_81\n      jump\t// in\n    tag_165:\n        /* \"#utility.yul\":7510:7613   */\n      swap2\n      pop\n        /* \"#utility.yul\":7326:7619   */\n      pop\n        /* \"#utility.yul\":7249:7619   */\n      swap3\n      swap2\n      pop\n      pop\n      jump\t// out\n        /* \"#utility.yul\":7625:8164   */\n    tag_42:\n        /* \"#utility.yul\":7709:7715   */\n      0x00\n        /* \"#utility.yul\":7758:7760   */\n      0x20\n        /* \"#utility.yul\":7746:7755   */\n      dup3\n        /* \"#utility.yul\":7737:7744   */\n      dup5\n        /* \"#utility.yul\":7733:7756   */\n      sub\n        /* \"#utility.yul\":7729:7761   */\n      slt\n        /* \"#utility.yul\":7726:7845   */\n      iszero\n      tag_167\n      jumpi\n        /* \"#utility.yul\":7764:7843   */\n      tag_168\n      tag_68\n      jump\t// in\n    tag_168:\n        /* \"#utility.yul\":7726:7845   */\n    tag_167:\n        /* \"#utility.yul\":7912:7913   */\n      0x00\n        /* \"#utility.yul\":7901:7910   */\n      dup3\n        /* \"#utility.yul\":7897:7914   */\n      add\n        /* \"#utility.yul\":7884:7915   */\n      calldataload\n        /* \"#utility.yul\":7942:7960   */\n      0xffffffffffffffff\n        /* \"#utility.yul\":7934:7940   */\n      dup2\n        /* \"#utility.yul\":7931:7961   */\n      gt\n        /* \"#utility.yul\":7928:8045   */\n      iszero\n      tag_169\n      jumpi\n        /* \"#utility.yul\":7964:8043   */\n      tag_170\n      tag_69\n      jump\t// in\n    tag_170:\n        /* \"#utility.yul\":7928:8045   */\n    tag_169:\n        /* \"#utility.yul\":8069:8147   */\n      tag_171\n        /* \"#utility.yul\":8139:8146   */\n      dup5\n        /* \"#utility.yul\":8130:8136   */\n      dup3\n        /* \"#utility.yul\":8119:8128   */\n      dup6\n        /* \"#utility.yul\":8115:8137   */\n      add\n        /* \"#utility.yul\":8069:8147   */\n      tag_82\n      jump\t// in\n    tag_171:\n        /* \"#utility.yul\":8059:8147   */\n      swap2\n      pop\n        /* \"#utility.yul\":7855:8157   */\n      pop\n        /* \"#utility.yul\":7625:8164   */\n      swap3\n      swap2\n      pop\n      pop\n      jump\t// out\n\n    auxdata: 0xa2646970667358221220ac1fa135049e6cfd17751efc6a31b7babaf0955cc746639d63d14589cb8ef65864736f6c634300081a0033\n}\n",
				"bytecode": {
					"linkReferences": {},
					"object": "6080604052348015600e575f80fd5b506106cb8061001c5f395ff3fe608060405234801561000f575f80fd5b5060043610610086575f3560e01c80638688754411610059578063868875441461011a578063946e182c1461013a578063adb4d99014610159578063f4bb6e6b1461017957610086565b80631990532b1461008a57806345f907a8146100a857806353a6aadb146100c857806371e5ee5f146100ea575b5f80fd5b610092610195565b60405161009f9190610371565b60405180910390f35b6100b06101ea565b6040516100bf939291906103ba565b60405180910390f35b6100d06101fd565b6040516100e19594939291906103ef565b60405180910390f35b61010460048036038101906100ff919061047b565b61023b565b60405161011191906104a6565b60405180910390f35b61012261025a565b604051610131939291906103ba565b60405180910390f35b61014261026d565b6040516101509291906104d7565b60405180910390f35b61016161029a565b604051610170939291906103ba565b60405180910390f35b610193600480360381019061018e919061064e565b6102ae565b005b60605f8054806020026020016040519081016040528092919081815260200182805480156101e057602002820191905f5260205f20905b8154815260200190600101908083116101cc575b5050505050905090565b5f805f6001806002925092509250909192565b5f805f805f805f8061020d61025a565b9250925092505f80600460056006925050915084848484849950995099509950995050505050509091929394565b5f8181548110610249575f80fd5b905f5260205f20015f915090505481565b5f805f6001806002925092509250909192565b5f807ffffffffffffffffffffffffffffffffffffffffffffffffffffffffffffffffe9150600190509091565b5f805f600192506001915060029050909192565b50565b5f81519050919050565b5f82825260208201905092915050565b5f819050602082019050919050565b5f819050919050565b6102ec816102da565b82525050565b5f6102fd83836102e3565b60208301905092915050565b5f602082019050919050565b5f61031f826102b1565b61032981856102bb565b9350610334836102cb565b805f5b8381101561036457815161034b88826102f2565b975061035683610309565b925050600181019050610337565b5085935050505092915050565b5f6020820190508181035f8301526103898184610315565b905092915050565b61039a816102da565b82525050565b5f8115159050919050565b6103b4816103a0565b82525050565b5f6060820190506103cd5f830186610391565b6103da60208301856103ab565b6103e76040830184610391565b949350505050565b5f60a0820190506104025f830188610391565b61040f60208301876103ab565b61041c6040830186610391565b6104296060830185610391565b6104366080830184610391565b9695505050505050565b5f604051905090565b5f80fd5b5f80fd5b61045a816102da565b8114610464575f80fd5b50565b5f8135905061047581610451565b92915050565b5f602082840312156104905761048f610449565b5b5f61049d84828501610467565b91505092915050565b5f6020820190506104b95f830184610391565b92915050565b5f819050919050565b6104d1816104bf565b82525050565b5f6040820190506104ea5f8301856104c8565b6104f760208301846103ab565b9392505050565b5f80fd5b5f601f19601f8301169050919050565b7f4e487b71000000000000000000000000000000000000000000000000000000005f52604160045260245ffd5b61054882610502565b810181811067ffffffffffffffff8211171561056757610566610512565b5b80604052505050565b5f610579610440565b9050610585828261053f565b919050565b5f67ffffffffffffffff8211156105a4576105a3610512565b5b602082029050602081019050919050565b5f80fd5b5f6105cb6105c68461058a565b610570565b905080838252602082019050602084028301858111156105ee576105ed6105b5565b5b835b8181101561061757806106038882610467565b8452602084019350506020810190506105f0565b5050509392505050565b5f82601f830112610635576106346104fe565b5b81356106458482602086016105b9565b91505092915050565b5f6020828403121561066357610662610449565b5b5f82013567ffffffffffffffff8111156106805761067f61044d565b5b61068c84828501610621565b9150509291505056fea2646970667358221220ac1fa135049e6cfd17751efc6a31b7babaf0955cc746639d63d14589cb8ef65864736f6c634300081a0033",
					"opcodes": "PUSH1 0x80 PUSH1 0x40 MSTORE CALLVALUE DUP1 ISZERO PUSH1 0xE JUMPI PUSH0 DUP1 REVERT JUMPDEST POP PUSH2 0x6CB DUP1 PUSH2 0x1C PUSH0 CODECOPY PUSH0 RETURN INVALID PUSH1 0x80 PUSH1 0x40 MSTORE CALLVALUE DUP1 ISZERO PUSH2 0xF JUMPI PUSH0 DUP1 REVERT JUMPDEST POP PUSH1 0x4 CALLDATASIZE LT PUSH2 0x86 JUMPI PUSH0 CALLDATALOAD PUSH1 0xE0 SHR DUP1 PUSH4 0x86887544 GT PUSH2 0x59 JUMPI DUP1 PUSH4 0x86887544 EQ PUSH2 0x11A JUMPI DUP1 PUSH4 0x946E182C EQ PUSH2 0x13A JUMPI DUP1 PUSH4 0xADB4D990 EQ PUSH2 0x159 JUMPI DUP1 PUSH4 0xF4BB6E6B EQ PUSH2 0x179 JUMPI PUSH2 0x86 JUMP JUMPDEST DUP1 PUSH4 0x1990532B EQ PUSH2 0x8A JUMPI DUP1 PUSH4 0x45F907A8 EQ PUSH2 0xA8 JUMPI DUP1 PUSH4 0x53A6AADB EQ PUSH2 0xC8 JUMPI DUP1 PUSH4 0x71E5EE5F EQ PUSH2 0xEA JUMPI JUMPDEST PUSH0 DUP1 REVERT JUMPDEST PUSH2 0x92 PUSH2 0x195 JUMP JUMPDEST PUSH1 0x40 MLOAD PUSH2 0x9F SWAP2 SWAP1 PUSH2 0x371 JUMP JUMPDEST PUSH1 0x40 MLOAD DUP1 SWAP2 SUB SWAP1 RETURN JUMPDEST PUSH2 0xB0 PUSH2 0x1EA JUMP JUMPDEST PUSH1 0x40 MLOAD PUSH2 0xBF SWAP4 SWAP3 SWAP2 SWAP1 PUSH2 0x3BA JUMP JUMPDEST PUSH1 0x40 MLOAD DUP1 SWAP2 SUB SWAP1 RETURN JUMPDEST PUSH2 0xD0 PUSH2 0x1FD JUMP JUMPDEST PUSH1 0x40 MLOAD PUSH2 0xE1 SWAP6 SWAP5 SWAP4 SWAP3 SWAP2 SWAP1 PUSH2 0x3EF JUMP JUMPDEST PUSH1 0x40 MLOAD DUP1 SWAP2 SUB SWAP1 RETURN JUMPDEST PUSH2 0x104 PUSH1 0x4 DUP1 CALLDATASIZE SUB DUP2 ADD SWAP1 PUSH2 0xFF SWAP2 SWAP1 PUSH2 0x47B JUMP JUMPDEST PUSH2 0x23B JUMP JUMPDEST PUSH1 0x40 MLOAD PUSH2 0x111 SWAP2 SWAP1 PUSH2 0x4A6 JUMP JUMPDEST PUSH1 0x40 MLOAD DUP1 SWAP2 SUB SWAP1 RETURN JUMPDEST PUSH2 0x122 PUSH2 0x25A JUMP JUMPDEST PUSH1 0x40 MLOAD PUSH2 0x131 SWAP4 SWAP3 SWAP2 SWAP1 PUSH2 0x3BA JUMP JUMPDEST PUSH1 0x40 MLOAD DUP1 SWAP2 SUB SWAP1 RETURN JUMPDEST PUSH2 0x142 PUSH2 0x26D JUMP JUMPDEST PUSH1 0x40 MLOAD PUSH2 0x150 SWAP3 SWAP2 SWAP1 PUSH2 0x4D7 JUMP JUMPDEST PUSH1 0x40 MLOAD DUP1 SWAP2 SUB SWAP1 RETURN JUMPDEST PUSH2 0x161 PUSH2 0x29A JUMP JUMPDEST PUSH1 0x40 MLOAD PUSH2 0x170 SWAP4 SWAP3 SWAP2 SWAP1 PUSH2 0x3BA JUMP JUMPDEST PUSH1 0x40 MLOAD DUP1 SWAP2 SUB SWAP1 RETURN JUMPDEST PUSH2 0x193 PUSH1 0x4 DUP1 CALLDATASIZE SUB DUP2 ADD SWAP1 PUSH2 0x18E SWAP2 SWAP1 PUSH2 0x64E JUMP JUMPDEST PUSH2 0x2AE JUMP JUMPDEST STOP JUMPDEST PUSH1 0x60 PUSH0 DUP1 SLOAD DUP1 PUSH1 0x20 MUL PUSH1 0x20 ADD PUSH1 0x40 MLOAD SWAP1 DUP2 ADD PUSH1 0x40 MSTORE DUP1 SWAP3 SWAP2 SWAP1 DUP2 DUP2 MSTORE PUSH1 0x20 ADD DUP3 DUP1 SLOAD DUP1 ISZERO PUSH2 0x1E0 JUMPI PUSH1 0x20 MUL DUP3 ADD SWAP2 SWAP1 PUSH0 MSTORE PUSH1 0x20 PUSH0 KECCAK256 SWAP1 JUMPDEST DUP2 SLOAD DUP2 MSTORE PUSH1 0x20 ADD SWAP1 PUSH1 0x1 ADD SWAP1 DUP1 DUP4 GT PUSH2 0x1CC JUMPI JUMPDEST POP POP POP POP POP SWAP1 POP SWAP1 JUMP JUMPDEST PUSH0 DUP1 PUSH0 PUSH1 0x1 DUP1 PUSH1 0x2 SWAP3 POP SWAP3 POP SWAP3 POP SWAP1 SWAP2 SWAP3 JUMP JUMPDEST PUSH0 DUP1 PUSH0 DUP1 PUSH0 DUP1 PUSH0 DUP1 PUSH2 0x20D PUSH2 0x25A JUMP JUMPDEST SWAP3 POP SWAP3 POP SWAP3 POP PUSH0 DUP1 PUSH1 0x4 PUSH1 0x5 PUSH1 0x6 SWAP3 POP POP SWAP2 POP DUP5 DUP5 DUP5 DUP5 DUP5 SWAP10 POP SWAP10 POP SWAP10 POP SWAP10 POP SWAP10 POP POP POP POP POP POP SWAP1 SWAP2 SWAP3 SWAP4 SWAP5 JUMP JUMPDEST PUSH0 DUP2 DUP2 SLOAD DUP2 LT PUSH2 0x249 JUMPI PUSH0 DUP1 REVERT JUMPDEST SWAP1 PUSH0 MSTORE PUSH1 0x20 PUSH0 KECCAK256 ADD PUSH0 SWAP2 POP SWAP1 POP SLOAD DUP2 JUMP JUMPDEST PUSH0 DUP1 PUSH0 PUSH1 0x1 DUP1 PUSH1 0x2 SWAP3 POP SWAP3 POP SWAP3 POP SWAP1 SWAP2 SWAP3 JUMP JUMPDEST PUSH0 DUP1 PUSH32 0xFFFFFFFFFFFFFFFFFFFFFFFFFFFFFFFFFFFFFFFFFFFFFFFFFFFFFFFFFFFFFFFE SWAP2 POP PUSH1 0x1 SWAP1 POP SWAP1 SWAP2 JUMP JUMPDEST PUSH0 DUP1 PUSH0 PUSH1 0x1 SWAP3 POP PUSH1 0x1 SWAP2 POP PUSH1 0x2 SWAP1 POP SWAP1 SWAP2 SWAP3 JUMP JUMPDEST POP JUMP JUMPDEST PUSH0 DUP2 MLOAD SWAP1 POP SWAP2 SWAP1 POP JUMP JUMPDEST PUSH0 DUP3 DUP3 MSTORE PUSH1 0x20 DUP3 ADD SWAP1 POP SWAP3 SWAP2 POP POP JUMP JUMPDEST PUSH0 DUP2 SWAP1 POP PUSH1 0x20 DUP3 ADD SWAP1 POP SWAP2 SWAP1 POP JUMP JUMPDEST PUSH0 DUP2 SWAP1 POP SWAP2 SWAP1 POP JUMP JUMPDEST PUSH2 0x2EC DUP2 PUSH2 0x2DA JUMP JUMPDEST DUP3 MSTORE POP POP JUMP JUMPDEST PUSH0 PUSH2 0x2FD DUP4 DUP4 PUSH2 0x2E3 JUMP JUMPDEST PUSH1 0x20 DUP4 ADD SWAP1 POP SWAP3 SWAP2 POP POP JUMP JUMPDEST PUSH0 PUSH1 0x20 DUP3 ADD SWAP1 POP SWAP2 SWAP1 POP JUMP JUMPDEST PUSH0 PUSH2 0x31F DUP3 PUSH2 0x2B1 JUMP JUMPDEST PUSH2 0x329 DUP2 DUP6 PUSH2 0x2BB JUMP JUMPDEST SWAP4 POP PUSH2 0x334 DUP4 PUSH2 0x2CB JUMP JUMPDEST DUP1 PUSH0 JUMPDEST DUP4 DUP2 LT ISZERO PUSH2 0x364 JUMPI DUP2 MLOAD PUSH2 0x34B DUP9 DUP3 PUSH2 0x2F2 JUMP JUMPDEST SWAP8 POP PUSH2 0x356 DUP4 PUSH2 0x309 JUMP JUMPDEST SWAP3 POP POP PUSH1 0x1 DUP2 ADD SWAP1 POP PUSH2 0x337 JUMP JUMPDEST POP DUP6 SWAP4 POP POP POP POP SWAP3 SWAP2 POP POP JUMP JUMPDEST PUSH0 PUSH1 0x20 DUP3 ADD SWAP1 POP DUP2 DUP2 SUB PUSH0 DUP4 ADD MSTORE PUSH2 0x389 DUP2 DUP5 PUSH2 0x315 JUMP JUMPDEST SWAP1 POP SWAP3 SWAP2 POP POP JUMP JUMPDEST PUSH2 0x39A DUP2 PUSH2 0x2DA JUMP JUMPDEST DUP3 MSTORE POP POP JUMP JUMPDEST PUSH0 DUP2 ISZERO ISZERO SWAP1 POP SWAP2 SWAP1 POP JUMP JUMPDEST PUSH2 0x3B4 DUP2 PUSH2 0x3A0 JUMP JUMPDEST DUP3 MSTORE POP POP JUMP JUMPDEST PUSH0 PUSH1 0x60 DUP3 ADD SWAP1 POP PUSH2 0x3CD PUSH0 DUP4 ADD DUP7 PUSH2 0x391 JUMP JUMPDEST PUSH2 0x3DA PUSH1 0x20 DUP4 ADD DUP6 PUSH2 0x3AB JUMP JUMPDEST PUSH2 0x3E7 PUSH1 0x40 DUP4 ADD DUP5 PUSH2 0x391 JUMP JUMPDEST SWAP5 SWAP4 POP POP POP POP JUMP JUMPDEST PUSH0 PUSH1 0xA0 DUP3 ADD SWAP1 POP PUSH2 0x402 PUSH0 DUP4 ADD DUP9 PUSH2 0x391 JUMP JUMPDEST PUSH2 0x40F PUSH1 0x20 DUP4 ADD DUP8 PUSH2 0x3AB JUMP JUMPDEST PUSH2 0x41C PUSH1 0x40 DUP4 ADD DUP7 PUSH2 0x391 JUMP JUMPDEST PUSH2 0x429 PUSH1 0x60 DUP4 ADD DUP6 PUSH2 0x391 JUMP JUMPDEST PUSH2 0x436 PUSH1 0x80 DUP4 ADD DUP5 PUSH2 0x391 JUMP JUMPDEST SWAP7 SWAP6 POP POP POP POP POP POP JUMP JUMPDEST PUSH0 PUSH1 0x40 MLOAD SWAP1 POP SWAP1 JUMP JUMPDEST PUSH0 DUP1 REVERT JUMPDEST PUSH0 DUP1 REVERT JUMPDEST PUSH2 0x45A DUP2 PUSH2 0x2DA JUMP JUMPDEST DUP2 EQ PUSH2 0x464 JUMPI PUSH0 DUP1 REVERT JUMPDEST POP JUMP JUMPDEST PUSH0 DUP2 CALLDATALOAD SWAP1 POP PUSH2 0x475 DUP2 PUSH2 0x451 JUMP JUMPDEST SWAP3 SWAP2 POP POP JUMP JUMPDEST PUSH0 PUSH1 0x20 DUP3 DUP5 SUB SLT ISZERO PUSH2 0x490 JUMPI PUSH2 0x48F PUSH2 0x449 JUMP JUMPDEST JUMPDEST PUSH0 PUSH2 0x49D DUP5 DUP3 DUP6 ADD PUSH2 0x467 JUMP JUMPDEST SWAP2 POP POP SWAP3 SWAP2 POP POP JUMP JUMPDEST PUSH0 PUSH1 0x20 DUP3 ADD SWAP1 POP PUSH2 0x4B9 PUSH0 DUP4 ADD DUP5 PUSH2 0x391 JUMP JUMPDEST SWAP3 SWAP2 POP POP JUMP JUMPDEST PUSH0 DUP2 SWAP1 POP SWAP2 SWAP1 POP JUMP JUMPDEST PUSH2 0x4D1 DUP2 PUSH2 0x4BF JUMP JUMPDEST DUP3 MSTORE POP POP JUMP JUMPDEST PUSH0 PUSH1 0x40 DUP3 ADD SWAP1 POP PUSH2 0x4EA PUSH0 DUP4 ADD DUP6 PUSH2 0x4C8 JUMP JUMPDEST PUSH2 0x4F7 PUSH1 0x20 DUP4 ADD DUP5 PUSH2 0x3AB JUMP JUMPDEST SWAP4 SWAP3 POP POP POP JUMP JUMPDEST PUSH0 DUP1 REVERT JUMPDEST PUSH0 PUSH1 0x1F NOT PUSH1 0x1F DUP4 ADD AND SWAP1 POP SWAP2 SWAP1 POP JUMP JUMPDEST PUSH32 0x4E487B7100000000000000000000000000000000000000000000000000000000 PUSH0 MSTORE PUSH1 0x41 PUSH1 0x4 MSTORE PUSH1 0x24 PUSH0 REVERT JUMPDEST PUSH2 0x548 DUP3 PUSH2 0x502 JUMP JUMPDEST DUP2 ADD DUP2 DUP2 LT PUSH8 0xFFFFFFFFFFFFFFFF DUP3 GT OR ISZERO PUSH2 0x567 JUMPI PUSH2 0x566 PUSH2 0x512 JUMP JUMPDEST JUMPDEST DUP1 PUSH1 0x40 MSTORE POP POP POP JUMP JUMPDEST PUSH0 PUSH2 0x579 PUSH2 0x440 JUMP JUMPDEST SWAP1 POP PUSH2 0x585 DUP3 DUP3 PUSH2 0x53F JUMP JUMPDEST SWAP2 SWAP1 POP JUMP JUMPDEST PUSH0 PUSH8 0xFFFFFFFFFFFFFFFF DUP3 GT ISZERO PUSH2 0x5A4 JUMPI PUSH2 0x5A3 PUSH2 0x512 JUMP JUMPDEST JUMPDEST PUSH1 0x20 DUP3 MUL SWAP1 POP PUSH1 0x20 DUP2 ADD SWAP1 POP SWAP2 SWAP1 POP JUMP JUMPDEST PUSH0 DUP1 REVERT JUMPDEST PUSH0 PUSH2 0x5CB PUSH2 0x5C6 DUP5 PUSH2 0x58A JUMP JUMPDEST PUSH2 0x570 JUMP JUMPDEST SWAP1 POP DUP1 DUP4 DUP3 MSTORE PUSH1 0x20 DUP3 ADD SWAP1 POP PUSH1 0x20 DUP5 MUL DUP4 ADD DUP6 DUP2 GT ISZERO PUSH2 0x5EE JUMPI PUSH2 0x5ED PUSH2 0x5B5 JUMP JUMPDEST JUMPDEST DUP4 JUMPDEST DUP2 DUP2 LT ISZERO PUSH2 0x617 JUMPI DUP1 PUSH2 0x603 DUP9 DUP3 PUSH2 0x467 JUMP JUMPDEST DUP5 MSTORE PUSH1 0x20 DUP5 ADD SWAP4 POP POP PUSH1 0x20 DUP2 ADD SWAP1 POP PUSH2 0x5F0 JUMP JUMPDEST POP POP POP SWAP4 SWAP3 POP POP POP JUMP JUMPDEST PUSH0 DUP3 PUSH1 0x1F DUP4 ADD SLT PUSH2 0x635 JUMPI PUSH2 0x634 PUSH2 0x4FE JUMP JUMPDEST JUMPDEST DUP2 CALLDATALOAD PUSH2 0x645 DUP5 DUP3 PUSH1 0x20 DUP7 ADD PUSH2 0x5B9 JUMP JUMPDEST SWAP2 POP POP SWAP3 SWAP2 POP POP JUMP JUMPDEST PUSH0 PUSH1 0x20 DUP3 DUP5 SUB SLT ISZERO PUSH2 0x663 JUMPI PUSH2 0x662 PUSH2 0x449 JUMP JUMPDEST JUMPDEST PUSH0 DUP3 ADD CALLDATALOAD PUSH8 0xFFFFFFFFFFFFFFFF DUP2 GT ISZERO PUSH2 0x680 JUMPI PUSH2 0x67F PUSH2 0x44D JUMP JUMPDEST JUMPDEST PUSH2 0x68C DUP5 DUP3 DUP6 ADD PUSH2 0x621 JUMP JUMPDEST SWAP2 POP POP SWAP3 SWAP2 POP POP JUMP INVALID LOG2 PUSH5 0x6970667358 0x22 SLT KECCAK256 0xAC 0x1F LOG1 CALLDATALOAD DIV SWAP15 PUSH13 0xFD17751EFC6A31B7BABAF0955C 0xC7 CHAINID PUSH4 0x9D63D145 DUP10 0xCB DUP15 0xF6 PC PUSH5 0x736F6C6343 STOP ADDMOD BYTE STOP CALLER "
				},
				"gasEstimates": {
					"creation": {
						"codeDepositCost": "347800",
						"executionCost": "384",
						"totalCost": "348184"
					},
					"external": {
						"arr(uint256)": "infinite",
						"arrayInput(uint256[])": "infinite",
						"arrayOutput()": "infinite",
						"assigned()": "infinite",
						"destructingAssigments()": "infinite",
						"named()": "infinite",
						"returnMany()": "infinite",
						"returnTwo()": "473"
					}
				},
				"methodIdentifiers": {
					"arr(uint256)": "71e5ee5f",
					"arrayInput(uint256[])": "f4bb6e6b",
					"arrayOutput()": "1990532b",
					"assigned()": "adb4d990",
					"destructingAssigments()": "53a6aadb",
					"named()": "45f907a8",
					"returnMany()": "86887544",
					"returnTwo()": "946e182c"
				}
			},
			"storageLayout": {
				"storage": [
					{
						"astId": 102,
						"contract": ".learneth/ethereum/remix-workshops/5.4 Functions - Inputs and Outputs/inputsAndOutputs.sol:Function",
						"label": "arr",
						"offset": 0,
						"slot": "0",
						"type": "t_array(t_uint256)dyn_storage"
					}
				],
				"types": {
					"t_array(t_uint256)dyn_storage": {
						"base": "t_uint256",
						"encoding": "dynamic_array",
						"label": "uint256[]",
						"numberOfBytes": "32"
					},
					"t_uint256": {
						"encoding": "inplace",
						"label": "uint256",
						"numberOfBytes": "32"
					}
				}
			},
			"userdoc": {
				"kind": "user",
				"methods": {},
				"version": 1
			}
		}
	}
}