{
	".learneth/ethereum/remix-workshops/8.2 Data Structures - Mappings/mappings.sol": {
		"NestedMapping": {
			"abi": [
				{
					"inputs": [
						{
							"internalType": "address",
							"name": "_addr1",
							"type": "address"
						},
						{
							"internalType": "uint256",
							"name": "_i",
							"type": "uint256"
						}
					],
					"name": "get",
					"outputs": [
						{
							"internalType": "bool",
							"name": "",
							"type": "bool"
						}
					],
					"stateMutability": "view",
					"type": "function"
				},
				{
					"inputs": [
						{
							"internalType": "address",
							"name": "",
							"type": "address"
						},
						{
							"internalType": "uint256",
							"name": "",
							"type": "uint256"
						}
					],
					"name": "nested",
					"outputs": [
						{
							"internalType": "bool",
							"name": "",
							"type": "bool"
						}
					],
					"stateMutability": "view",
					"type": "function"
				},
				{
					"inputs": [
						{
							"internalType": "address",
							"name": "_addr1",
							"type": "address"
						},
						{
							"internalType": "uint256",
							"name": "_i",
							"type": "uint256"
						}
					],
					"name": "remove",
					"outputs": [],
					"stateMutability": "nonpayable",
					"type": "function"
				},
				{
					"inputs": [
						{
							"internalType": "address",
							"name": "_addr1",
							"type": "address"
						},
						{
							"internalType": "uint256",
							"name": "_i",
							"type": "uint256"
						},
						{
							"internalType": "bool",
							"name": "_boo",
							"type": "bool"
						}
					],
					"name": "set",
					"outputs": [],
					"stateMutability": "nonpayable",
					"type": "function"
				}
			],
			"devdoc": {
				"kind": "dev",
				"methods": {},
				"version": 1
			},
			"evm": {
				"assembly": "    /* \".learneth/ethereum/remix-workshops/8.2 Data Structures - Mappings/mappings.sol\":648:1237  contract NestedMapping {... */\n  mstore(0x40, 0x80)\n  callvalue\n  dup1\n  iszero\n  tag_1\n  jumpi\n  0x00\n  dup1\n  revert\ntag_1:\n  pop\n  dataSize(sub_0)\n  dup1\n  dataOffset(sub_0)\n  0x00\n  codecopy\n  0x00\n  return\nstop\n\nsub_0: assembly {\n        /* \".learneth/ethereum/remix-workshops/8.2 Data Structures - Mappings/mappings.sol\":648:1237  contract NestedMapping {... */\n      mstore(0x40, 0x80)\n      callvalue\n      dup1\n      iszero\n      tag_1\n      jumpi\n      0x00\n      dup1\n      revert\n    tag_1:\n      pop\n      jumpi(tag_2, lt(calldatasize, 0x04))\n      shr(0xe0, calldataload(0x00))\n      dup1\n      0x0b139194\n      eq\n      tag_3\n      jumpi\n      dup1\n      0x14bd0a7b\n      eq\n      tag_4\n      jumpi\n      dup1\n      0xabe7f1ab\n      eq\n      tag_5\n      jumpi\n      dup1\n      0xb464631b\n      eq\n      tag_6\n      jumpi\n    tag_2:\n      0x00\n      dup1\n      revert\n        /* \".learneth/ethereum/remix-workshops/8.2 Data Structures - Mappings/mappings.sol\":1011:1139  function set(... */\n    tag_3:\n      tag_7\n      0x04\n      dup1\n      calldatasize\n      sub\n      dup2\n      add\n      swap1\n      tag_8\n      swap2\n      swap1\n      tag_9\n      jump\t// in\n    tag_8:\n      tag_10\n      jump\t// in\n    tag_7:\n      stop\n        /* \".learneth/ethereum/remix-workshops/8.2 Data Structures - Mappings/mappings.sol\":741:796  mapping(address => mapping(uint => bool)) public nested */\n    tag_4:\n      tag_11\n      0x04\n      dup1\n      calldatasize\n      sub\n      dup2\n      add\n      swap1\n      tag_12\n      swap2\n      swap1\n      tag_13\n      jump\t// in\n    tag_12:\n      tag_14\n      jump\t// in\n    tag_11:\n      mload(0x40)\n      tag_15\n      swap2\n      swap1\n      tag_16\n      jump\t// in\n    tag_15:\n      mload(0x40)\n      dup1\n      swap2\n      sub\n      swap1\n      return\n        /* \".learneth/ethereum/remix-workshops/8.2 Data Structures - Mappings/mappings.sol\":1145:1235  function remove(address _addr1, uint _i) public {... */\n    tag_5:\n      tag_17\n      0x04\n      dup1\n      calldatasize\n      sub\n      dup2\n      add\n      swap1\n      tag_18\n      swap2\n      swap1\n      tag_13\n      jump\t// in\n    tag_18:\n      tag_19\n      jump\t// in\n    tag_17:\n      stop\n        /* \".learneth/ethereum/remix-workshops/8.2 Data Structures - Mappings/mappings.sol\":803:1005  function get(address _addr1, uint _i) public view returns (bool) {... */\n    tag_6:\n      tag_20\n      0x04\n      dup1\n      calldatasize\n      sub\n      dup2\n      add\n      swap1\n      tag_21\n      swap2\n      swap1\n      tag_13\n      jump\t// in\n    tag_21:\n      tag_22\n      jump\t// in\n    tag_20:\n      mload(0x40)\n      tag_23\n      swap2\n      swap1\n      tag_16\n      jump\t// in\n    tag_23:\n      mload(0x40)\n      dup1\n      swap2\n      sub\n      swap1\n      return\n        /* \".learneth/ethereum/remix-workshops/8.2 Data Structures - Mappings/mappings.sol\":1011:1139  function set(... */\n    tag_10:\n        /* \".learneth/ethereum/remix-workshops/8.2 Data Structures - Mappings/mappings.sol\":1128:1132  _boo */\n      dup1\n        /* \".learneth/ethereum/remix-workshops/8.2 Data Structures - Mappings/mappings.sol\":1107:1113  nested */\n      0x00\n        /* \".learneth/ethereum/remix-workshops/8.2 Data Structures - Mappings/mappings.sol\":1107:1121  nested[_addr1] */\n      dup1\n        /* \".learneth/ethereum/remix-workshops/8.2 Data Structures - Mappings/mappings.sol\":1114:1120  _addr1 */\n      dup6\n        /* \".learneth/ethereum/remix-workshops/8.2 Data Structures - Mappings/mappings.sol\":1107:1121  nested[_addr1] */\n      0xffffffffffffffffffffffffffffffffffffffff\n      and\n      0xffffffffffffffffffffffffffffffffffffffff\n      and\n      dup2\n      mstore\n      0x20\n      add\n      swap1\n      dup2\n      mstore\n      0x20\n      add\n      0x00\n      keccak256\n        /* \".learneth/ethereum/remix-workshops/8.2 Data Structures - Mappings/mappings.sol\":1107:1125  nested[_addr1][_i] */\n      0x00\n        /* \".learneth/ethereum/remix-workshops/8.2 Data Structures - Mappings/mappings.sol\":1122:1124  _i */\n      dup5\n        /* \".learneth/ethereum/remix-workshops/8.2 Data Structures - Mappings/mappings.sol\":1107:1125  nested[_addr1][_i] */\n      dup2\n      mstore\n      0x20\n      add\n      swap1\n      dup2\n      mstore\n      0x20\n      add\n      0x00\n      keccak256\n      0x00\n        /* \".learneth/ethereum/remix-workshops/8.2 Data Structures - Mappings/mappings.sol\":1107:1132  nested[_addr1][_i] = _boo */\n      0x0100\n      exp\n      dup2\n      sload\n      dup2\n      0xff\n      mul\n      not\n      and\n      swap1\n      dup4\n      iszero\n      iszero\n      mul\n      or\n      swap1\n      sstore\n      pop\n        /* \".learneth/ethereum/remix-workshops/8.2 Data Structures - Mappings/mappings.sol\":1011:1139  function set(... */\n      pop\n      pop\n      pop\n      jump\t// out\n        /* \".learneth/ethereum/remix-workshops/8.2 Data Structures - Mappings/mappings.sol\":741:796  mapping(address => mapping(uint => bool)) public nested */\n    tag_14:\n      mstore(0x20, 0x00)\n      dup2\n      0x00\n      mstore\n      mstore(0x20, keccak256(0x00, 0x40))\n      dup1\n      0x00\n      mstore\n      keccak256(0x00, 0x40)\n      0x00\n      swap2\n      pop\n      swap2\n      pop\n      swap1\n      sload\n      swap1\n      0x0100\n      exp\n      swap1\n      div\n      0xff\n      and\n      dup2\n      jump\t// out\n        /* \".learneth/ethereum/remix-workshops/8.2 Data Structures - Mappings/mappings.sol\":1145:1235  function remove(address _addr1, uint _i) public {... */\n    tag_19:\n        /* \".learneth/ethereum/remix-workshops/8.2 Data Structures - Mappings/mappings.sol\":1210:1216  nested */\n      0x00\n        /* \".learneth/ethereum/remix-workshops/8.2 Data Structures - Mappings/mappings.sol\":1210:1224  nested[_addr1] */\n      dup1\n        /* \".learneth/ethereum/remix-workshops/8.2 Data Structures - Mappings/mappings.sol\":1217:1223  _addr1 */\n      dup4\n        /* \".learneth/ethereum/remix-workshops/8.2 Data Structures - Mappings/mappings.sol\":1210:1224  nested[_addr1] */\n      0xffffffffffffffffffffffffffffffffffffffff\n      and\n      0xffffffffffffffffffffffffffffffffffffffff\n      and\n      dup2\n      mstore\n      0x20\n      add\n      swap1\n      dup2\n      mstore\n      0x20\n      add\n      0x00\n      keccak256\n        /* \".learneth/ethereum/remix-workshops/8.2 Data Structures - Mappings/mappings.sol\":1210:1228  nested[_addr1][_i] */\n      0x00\n        /* \".learneth/ethereum/remix-workshops/8.2 Data Structures - Mappings/mappings.sol\":1225:1227  _i */\n      dup3\n        /* \".learneth/ethereum/remix-workshops/8.2 Data Structures - Mappings/mappings.sol\":1210:1228  nested[_addr1][_i] */\n      dup2\n      mstore\n      0x20\n      add\n      swap1\n      dup2\n      mstore\n      0x20\n      add\n      0x00\n      keccak256\n      0x00\n        /* \".learneth/ethereum/remix-workshops/8.2 Data Structures - Mappings/mappings.sol\":1203:1228  delete nested[_addr1][_i] */\n      0x0100\n      exp\n      dup2\n      sload\n      swap1\n      0xff\n      mul\n      not\n      and\n      swap1\n      sstore\n        /* \".learneth/ethereum/remix-workshops/8.2 Data Structures - Mappings/mappings.sol\":1145:1235  function remove(address _addr1, uint _i) public {... */\n      pop\n      pop\n      jump\t// out\n        /* \".learneth/ethereum/remix-workshops/8.2 Data Structures - Mappings/mappings.sol\":803:1005  function get(address _addr1, uint _i) public view returns (bool) {... */\n    tag_22:\n        /* \".learneth/ethereum/remix-workshops/8.2 Data Structures - Mappings/mappings.sol\":862:866  bool */\n      0x00\n        /* \".learneth/ethereum/remix-workshops/8.2 Data Structures - Mappings/mappings.sol\":980:986  nested */\n      dup1\n        /* \".learneth/ethereum/remix-workshops/8.2 Data Structures - Mappings/mappings.sol\":980:994  nested[_addr1] */\n      0x00\n        /* \".learneth/ethereum/remix-workshops/8.2 Data Structures - Mappings/mappings.sol\":987:993  _addr1 */\n      dup5\n        /* \".learneth/ethereum/remix-workshops/8.2 Data Structures - Mappings/mappings.sol\":980:994  nested[_addr1] */\n      0xffffffffffffffffffffffffffffffffffffffff\n      and\n      0xffffffffffffffffffffffffffffffffffffffff\n      and\n      dup2\n      mstore\n      0x20\n      add\n      swap1\n      dup2\n      mstore\n      0x20\n      add\n      0x00\n      keccak256\n        /* \".learneth/ethereum/remix-workshops/8.2 Data Structures - Mappings/mappings.sol\":980:998  nested[_addr1][_i] */\n      0x00\n        /* \".learneth/ethereum/remix-workshops/8.2 Data Structures - Mappings/mappings.sol\":995:997  _i */\n      dup4\n        /* \".learneth/ethereum/remix-workshops/8.2 Data Structures - Mappings/mappings.sol\":980:998  nested[_addr1][_i] */\n      dup2\n      mstore\n      0x20\n      add\n      swap1\n      dup2\n      mstore\n      0x20\n      add\n      0x00\n      keccak256\n      0x00\n      swap1\n      sload\n      swap1\n      0x0100\n      exp\n      swap1\n      div\n      0xff\n      and\n        /* \".learneth/ethereum/remix-workshops/8.2 Data Structures - Mappings/mappings.sol\":973:998  return nested[_addr1][_i] */\n      swap1\n      pop\n        /* \".learneth/ethereum/remix-workshops/8.2 Data Structures - Mappings/mappings.sol\":803:1005  function get(address _addr1, uint _i) public view returns (bool) {... */\n      swap3\n      swap2\n      pop\n      pop\n      jump\t// out\n        /* \"#utility.yul\":88:205   */\n    tag_28:\n        /* \"#utility.yul\":197:198   */\n      0x00\n        /* \"#utility.yul\":194:195   */\n      dup1\n        /* \"#utility.yul\":187:199   */\n      revert\n        /* \"#utility.yul\":334:460   */\n    tag_30:\n        /* \"#utility.yul\":371:378   */\n      0x00\n        /* \"#utility.yul\":411:453   */\n      0xffffffffffffffffffffffffffffffffffffffff\n        /* \"#utility.yul\":404:409   */\n      dup3\n        /* \"#utility.yul\":400:454   */\n      and\n        /* \"#utility.yul\":389:454   */\n      swap1\n      pop\n        /* \"#utility.yul\":334:460   */\n      swap2\n      swap1\n      pop\n      jump\t// out\n        /* \"#utility.yul\":466:562   */\n    tag_31:\n        /* \"#utility.yul\":503:510   */\n      0x00\n        /* \"#utility.yul\":532:556   */\n      tag_47\n        /* \"#utility.yul\":550:555   */\n      dup3\n        /* \"#utility.yul\":532:556   */\n      tag_30\n      jump\t// in\n    tag_47:\n        /* \"#utility.yul\":521:556   */\n      swap1\n      pop\n        /* \"#utility.yul\":466:562   */\n      swap2\n      swap1\n      pop\n      jump\t// out\n        /* \"#utility.yul\":568:690   */\n    tag_32:\n        /* \"#utility.yul\":641:665   */\n      tag_49\n        /* \"#utility.yul\":659:664   */\n      dup2\n        /* \"#utility.yul\":641:665   */\n      tag_31\n      jump\t// in\n    tag_49:\n        /* \"#utility.yul\":634:639   */\n      dup2\n        /* \"#utility.yul\":631:666   */\n      eq\n        /* \"#utility.yul\":621:684   */\n      tag_50\n      jumpi\n        /* \"#utility.yul\":680:681   */\n      0x00\n        /* \"#utility.yul\":677:678   */\n      dup1\n        /* \"#utility.yul\":670:682   */\n      revert\n        /* \"#utility.yul\":621:684   */\n    tag_50:\n        /* \"#utility.yul\":568:690   */\n      pop\n      jump\t// out\n        /* \"#utility.yul\":696:835   */\n    tag_33:\n        /* \"#utility.yul\":742:747   */\n      0x00\n        /* \"#utility.yul\":780:786   */\n      dup2\n        /* \"#utility.yul\":767:787   */\n      calldataload\n        /* \"#utility.yul\":758:787   */\n      swap1\n      pop\n        /* \"#utility.yul\":796:829   */\n      tag_52\n        /* \"#utility.yul\":823:828   */\n      dup2\n        /* \"#utility.yul\":796:829   */\n      tag_32\n      jump\t// in\n    tag_52:\n        /* \"#utility.yul\":696:835   */\n      swap3\n      swap2\n      pop\n      pop\n      jump\t// out\n        /* \"#utility.yul\":841:918   */\n    tag_34:\n        /* \"#utility.yul\":878:885   */\n      0x00\n        /* \"#utility.yul\":907:912   */\n      dup2\n        /* \"#utility.yul\":896:912   */\n      swap1\n      pop\n        /* \"#utility.yul\":841:918   */\n      swap2\n      swap1\n      pop\n      jump\t// out\n        /* \"#utility.yul\":924:1046   */\n    tag_35:\n        /* \"#utility.yul\":997:1021   */\n      tag_55\n        /* \"#utility.yul\":1015:1020   */\n      dup2\n        /* \"#utility.yul\":997:1021   */\n      tag_34\n      jump\t// in\n    tag_55:\n        /* \"#utility.yul\":990:995   */\n      dup2\n        /* \"#utility.yul\":987:1022   */\n      eq\n        /* \"#utility.yul\":977:1040   */\n      tag_56\n      jumpi\n        /* \"#utility.yul\":1036:1037   */\n      0x00\n        /* \"#utility.yul\":1033:1034   */\n      dup1\n        /* \"#utility.yul\":1026:1038   */\n      revert\n        /* \"#utility.yul\":977:1040   */\n    tag_56:\n        /* \"#utility.yul\":924:1046   */\n      pop\n      jump\t// out\n        /* \"#utility.yul\":1052:1191   */\n    tag_36:\n        /* \"#utility.yul\":1098:1103   */\n      0x00\n        /* \"#utility.yul\":1136:1142   */\n      dup2\n        /* \"#utility.yul\":1123:1143   */\n      calldataload\n        /* \"#utility.yul\":1114:1143   */\n      swap1\n      pop\n        /* \"#utility.yul\":1152:1185   */\n      tag_58\n        /* \"#utility.yul\":1179:1184   */\n      dup2\n        /* \"#utility.yul\":1152:1185   */\n      tag_35\n      jump\t// in\n    tag_58:\n        /* \"#utility.yul\":1052:1191   */\n      swap3\n      swap2\n      pop\n      pop\n      jump\t// out\n        /* \"#utility.yul\":1197:1287   */\n    tag_37:\n        /* \"#utility.yul\":1231:1238   */\n      0x00\n        /* \"#utility.yul\":1274:1279   */\n      dup2\n        /* \"#utility.yul\":1267:1280   */\n      iszero\n        /* \"#utility.yul\":1260:1281   */\n      iszero\n        /* \"#utility.yul\":1249:1281   */\n      swap1\n      pop\n        /* \"#utility.yul\":1197:1287   */\n      swap2\n      swap1\n      pop\n      jump\t// out\n        /* \"#utility.yul\":1293:1409   */\n    tag_38:\n        /* \"#utility.yul\":1363:1384   */\n      tag_61\n        /* \"#utility.yul\":1378:1383   */\n      dup2\n        /* \"#utility.yul\":1363:1384   */\n      tag_37\n      jump\t// in\n    tag_61:\n        /* \"#utility.yul\":1356:1361   */\n      dup2\n        /* \"#utility.yul\":1353:1385   */\n      eq\n        /* \"#utility.yul\":1343:1403   */\n      tag_62\n      jumpi\n        /* \"#utility.yul\":1399:1400   */\n      0x00\n        /* \"#utility.yul\":1396:1397   */\n      dup1\n        /* \"#utility.yul\":1389:1401   */\n      revert\n        /* \"#utility.yul\":1343:1403   */\n    tag_62:\n        /* \"#utility.yul\":1293:1409   */\n      pop\n      jump\t// out\n        /* \"#utility.yul\":1415:1548   */\n    tag_39:\n        /* \"#utility.yul\":1458:1463   */\n      0x00\n        /* \"#utility.yul\":1496:1502   */\n      dup2\n        /* \"#utility.yul\":1483:1503   */\n      calldataload\n        /* \"#utility.yul\":1474:1503   */\n      swap1\n      pop\n        /* \"#utility.yul\":1512:1542   */\n      tag_64\n        /* \"#utility.yul\":1536:1541   */\n      dup2\n        /* \"#utility.yul\":1512:1542   */\n      tag_38\n      jump\t// in\n    tag_64:\n        /* \"#utility.yul\":1415:1548   */\n      swap3\n      swap2\n      pop\n      pop\n      jump\t// out\n        /* \"#utility.yul\":1554:2167   */\n    tag_9:\n        /* \"#utility.yul\":1628:1634   */\n      0x00\n        /* \"#utility.yul\":1636:1642   */\n      dup1\n        /* \"#utility.yul\":1644:1650   */\n      0x00\n        /* \"#utility.yul\":1693:1695   */\n      0x60\n        /* \"#utility.yul\":1681:1690   */\n      dup5\n        /* \"#utility.yul\":1672:1679   */\n      dup7\n        /* \"#utility.yul\":1668:1691   */\n      sub\n        /* \"#utility.yul\":1664:1696   */\n      slt\n        /* \"#utility.yul\":1661:1780   */\n      iszero\n      tag_66\n      jumpi\n        /* \"#utility.yul\":1699:1778   */\n      tag_67\n      tag_28\n      jump\t// in\n    tag_67:\n        /* \"#utility.yul\":1661:1780   */\n    tag_66:\n        /* \"#utility.yul\":1819:1820   */\n      0x00\n        /* \"#utility.yul\":1844:1897   */\n      tag_68\n        /* \"#utility.yul\":1889:1896   */\n      dup7\n        /* \"#utility.yul\":1880:1886   */\n      dup3\n        /* \"#utility.yul\":1869:1878   */\n      dup8\n        /* \"#utility.yul\":1865:1887   */\n      add\n        /* \"#utility.yul\":1844:1897   */\n      tag_33\n      jump\t// in\n    tag_68:\n        /* \"#utility.yul\":1834:1897   */\n      swap4\n      pop\n        /* \"#utility.yul\":1790:1907   */\n      pop\n        /* \"#utility.yul\":1946:1948   */\n      0x20\n        /* \"#utility.yul\":1972:2025   */\n      tag_69\n        /* \"#utility.yul\":2017:2024   */\n      dup7\n        /* \"#utility.yul\":2008:2014   */\n      dup3\n        /* \"#utility.yul\":1997:2006   */\n      dup8\n        /* \"#utility.yul\":1993:2015   */\n      add\n        /* \"#utility.yul\":1972:2025   */\n      tag_36\n      jump\t// in\n    tag_69:\n        /* \"#utility.yul\":1962:2025   */\n      swap3\n      pop\n        /* \"#utility.yul\":1917:2035   */\n      pop\n        /* \"#utility.yul\":2074:2076   */\n      0x40\n        /* \"#utility.yul\":2100:2150   */\n      tag_70\n        /* \"#utility.yul\":2142:2149   */\n      dup7\n        /* \"#utility.yul\":2133:2139   */\n      dup3\n        /* \"#utility.yul\":2122:2131   */\n      dup8\n        /* \"#utility.yul\":2118:2140   */\n      add\n        /* \"#utility.yul\":2100:2150   */\n      tag_39\n      jump\t// in\n    tag_70:\n        /* \"#utility.yul\":2090:2150   */\n      swap2\n      pop\n        /* \"#utility.yul\":2045:2160   */\n      pop\n        /* \"#utility.yul\":1554:2167   */\n      swap3\n      pop\n      swap3\n      pop\n      swap3\n      jump\t// out\n        /* \"#utility.yul\":2173:2647   */\n    tag_13:\n        /* \"#utility.yul\":2241:2247   */\n      0x00\n        /* \"#utility.yul\":2249:2255   */\n      dup1\n        /* \"#utility.yul\":2298:2300   */\n      0x40\n        /* \"#utility.yul\":2286:2295   */\n      dup4\n        /* \"#utility.yul\":2277:2284   */\n      dup6\n        /* \"#utility.yul\":2273:2296   */\n      sub\n        /* \"#utility.yul\":2269:2301   */\n      slt\n        /* \"#utility.yul\":2266:2385   */\n      iszero\n      tag_72\n      jumpi\n        /* \"#utility.yul\":2304:2383   */\n      tag_73\n      tag_28\n      jump\t// in\n    tag_73:\n        /* \"#utility.yul\":2266:2385   */\n    tag_72:\n        /* \"#utility.yul\":2424:2425   */\n      0x00\n        /* \"#utility.yul\":2449:2502   */\n      tag_74\n        /* \"#utility.yul\":2494:2501   */\n      dup6\n        /* \"#utility.yul\":2485:2491   */\n      dup3\n        /* \"#utility.yul\":2474:2483   */\n      dup7\n        /* \"#utility.yul\":2470:2492   */\n      add\n        /* \"#utility.yul\":2449:2502   */\n      tag_33\n      jump\t// in\n    tag_74:\n        /* \"#utility.yul\":2439:2502   */\n      swap3\n      pop\n        /* \"#utility.yul\":2395:2512   */\n      pop\n        /* \"#utility.yul\":2551:2553   */\n      0x20\n        /* \"#utility.yul\":2577:2630   */\n      tag_75\n        /* \"#utility.yul\":2622:2629   */\n      dup6\n        /* \"#utility.yul\":2613:2619   */\n      dup3\n        /* \"#utility.yul\":2602:2611   */\n      dup7\n        /* \"#utility.yul\":2598:2620   */\n      add\n        /* \"#utility.yul\":2577:2630   */\n      tag_36\n      jump\t// in\n    tag_75:\n        /* \"#utility.yul\":2567:2630   */\n      swap2\n      pop\n        /* \"#utility.yul\":2522:2640   */\n      pop\n        /* \"#utility.yul\":2173:2647   */\n      swap3\n      pop\n      swap3\n      swap1\n      pop\n      jump\t// out\n        /* \"#utility.yul\":2653:2762   */\n    tag_40:\n        /* \"#utility.yul\":2734:2755   */\n      tag_77\n        /* \"#utility.yul\":2749:2754   */\n      dup2\n        /* \"#utility.yul\":2734:2755   */\n      tag_37\n      jump\t// in\n    tag_77:\n        /* \"#utility.yul\":2729:2732   */\n      dup3\n        /* \"#utility.yul\":2722:2756   */\n      mstore\n        /* \"#utility.yul\":2653:2762   */\n      pop\n      pop\n      jump\t// out\n        /* \"#utility.yul\":2768:2978   */\n    tag_16:\n        /* \"#utility.yul\":2855:2859   */\n      0x00\n        /* \"#utility.yul\":2893:2895   */\n      0x20\n        /* \"#utility.yul\":2882:2891   */\n      dup3\n        /* \"#utility.yul\":2878:2896   */\n      add\n        /* \"#utility.yul\":2870:2896   */\n      swap1\n      pop\n        /* \"#utility.yul\":2906:2971   */\n      tag_79\n        /* \"#utility.yul\":2968:2969   */\n      0x00\n        /* \"#utility.yul\":2957:2966   */\n      dup4\n        /* \"#utility.yul\":2953:2970   */\n      add\n        /* \"#utility.yul\":2944:2950   */\n      dup5\n        /* \"#utility.yul\":2906:2971   */\n      tag_40\n      jump\t// in\n    tag_79:\n        /* \"#utility.yul\":2768:2978   */\n      swap3\n      swap2\n      pop\n      pop\n      jump\t// out\n\n    auxdata: 0xa26469706673582212209e82248e76d3a56c141fac42fea57ed19e6a6a6eace9b610953ae3aed1c1897264736f6c634300081a0033\n}\n",
				"bytecode": {
					"linkReferences": {},
					"object": "6080604052348015600e575f80fd5b506103e78061001c5f395ff3fe608060405234801561000f575f80fd5b506004361061004a575f3560e01c80630b1391941461004e57806314bd0a7b1461006a578063abe7f1ab1461009a578063b464631b146100b6575b5f80fd5b610068600480360381019061006391906102fb565b6100e6565b005b610084600480360381019061007f919061034b565b61014d565b6040516100919190610398565b60405180910390f35b6100b460048036038101906100af919061034b565b610176565b005b6100d060048036038101906100cb919061034b565b6101d4565b6040516100dd9190610398565b60405180910390f35b805f808573ffffffffffffffffffffffffffffffffffffffff1673ffffffffffffffffffffffffffffffffffffffff1681526020019081526020015f205f8481526020019081526020015f205f6101000a81548160ff021916908315150217905550505050565b5f602052815f5260405f20602052805f5260405f205f915091509054906101000a900460ff1681565b5f808373ffffffffffffffffffffffffffffffffffffffff1673ffffffffffffffffffffffffffffffffffffffff1681526020019081526020015f205f8281526020019081526020015f205f6101000a81549060ff02191690555050565b5f805f8473ffffffffffffffffffffffffffffffffffffffff1673ffffffffffffffffffffffffffffffffffffffff1681526020019081526020015f205f8381526020019081526020015f205f9054906101000a900460ff16905092915050565b5f80fd5b5f73ffffffffffffffffffffffffffffffffffffffff82169050919050565b5f61026282610239565b9050919050565b61027281610258565b811461027c575f80fd5b50565b5f8135905061028d81610269565b92915050565b5f819050919050565b6102a581610293565b81146102af575f80fd5b50565b5f813590506102c08161029c565b92915050565b5f8115159050919050565b6102da816102c6565b81146102e4575f80fd5b50565b5f813590506102f5816102d1565b92915050565b5f805f6060848603121561031257610311610235565b5b5f61031f8682870161027f565b9350506020610330868287016102b2565b9250506040610341868287016102e7565b9150509250925092565b5f806040838503121561036157610360610235565b5b5f61036e8582860161027f565b925050602061037f858286016102b2565b9150509250929050565b610392816102c6565b82525050565b5f6020820190506103ab5f830184610389565b9291505056fea26469706673582212209e82248e76d3a56c141fac42fea57ed19e6a6a6eace9b610953ae3aed1c1897264736f6c634300081a0033",
					"opcodes": "PUSH1 0x80 PUSH1 0x40 MSTORE CALLVALUE DUP1 ISZERO PUSH1 0xE JUMPI PUSH0 DUP1 REVERT JUMPDEST POP PUSH2 0x3E7 DUP1 PUSH2 0x1C PUSH0 CODECOPY PUSH0 RETURN INVALID PUSH1 0x80 PUSH1 0x40 MSTORE CALLVALUE DUP1 ISZERO PUSH2 0xF JUMPI PUSH0 DUP1 REVERT JUMPDEST POP PUSH1 0x4 CALLDATASIZE LT PUSH2 0x4A JUMPI PUSH0 CALLDATALOAD PUSH1 0xE0 SHR DUP1 PUSH4 0xB139194 EQ PUSH2 0x4E JUMPI DUP1 PUSH4 0x14BD0A7B EQ PUSH2 0x6A JUMPI DUP1 PUSH4 0xABE7F1AB EQ PUSH2 0x9A JUMPI DUP1 PUSH4 0xB464631B EQ PUSH2 0xB6 JUMPI JUMPDEST PUSH0 DUP1 REVERT JUMPDEST PUSH2 0x68 PUSH1 0x4 DUP1 CALLDATASIZE SUB DUP2 ADD SWAP1 PUSH2 0x63 SWAP2 SWAP1 PUSH2 0x2FB JUMP JUMPDEST PUSH2 0xE6 JUMP JUMPDEST STOP JUMPDEST PUSH2 0x84 PUSH1 0x4 DUP1 CALLDATASIZE SUB DUP2 ADD SWAP1 PUSH2 0x7F SWAP2 SWAP1 PUSH2 0x34B JUMP JUMPDEST PUSH2 0x14D JUMP JUMPDEST PUSH1 0x40 MLOAD PUSH2 0x91 SWAP2 SWAP1 PUSH2 0x398 JUMP JUMPDEST PUSH1 0x40 MLOAD DUP1 SWAP2 SUB SWAP1 RETURN JUMPDEST PUSH2 0xB4 PUSH1 0x4 DUP1 CALLDATASIZE SUB DUP2 ADD SWAP1 PUSH2 0xAF SWAP2 SWAP1 PUSH2 0x34B JUMP JUMPDEST PUSH2 0x176 JUMP JUMPDEST STOP JUMPDEST PUSH2 0xD0 PUSH1 0x4 DUP1 CALLDATASIZE SUB DUP2 ADD SWAP1 PUSH2 0xCB SWAP2 SWAP1 PUSH2 0x34B JUMP JUMPDEST PUSH2 0x1D4 JUMP JUMPDEST PUSH1 0x40 MLOAD PUSH2 0xDD SWAP2 SWAP1 PUSH2 0x398 JUMP JUMPDEST PUSH1 0x40 MLOAD DUP1 SWAP2 SUB SWAP1 RETURN JUMPDEST DUP1 PUSH0 DUP1 DUP6 PUSH20 0xFFFFFFFFFFFFFFFFFFFFFFFFFFFFFFFFFFFFFFFF AND PUSH20 0xFFFFFFFFFFFFFFFFFFFFFFFFFFFFFFFFFFFFFFFF AND DUP2 MSTORE PUSH1 0x20 ADD SWAP1 DUP2 MSTORE PUSH1 0x20 ADD PUSH0 KECCAK256 PUSH0 DUP5 DUP2 MSTORE PUSH1 0x20 ADD SWAP1 DUP2 MSTORE PUSH1 0x20 ADD PUSH0 KECCAK256 PUSH0 PUSH2 0x100 EXP DUP2 SLOAD DUP2 PUSH1 0xFF MUL NOT AND SWAP1 DUP4 ISZERO ISZERO MUL OR SWAP1 SSTORE POP POP POP POP JUMP JUMPDEST PUSH0 PUSH1 0x20 MSTORE DUP2 PUSH0 MSTORE PUSH1 0x40 PUSH0 KECCAK256 PUSH1 0x20 MSTORE DUP1 PUSH0 MSTORE PUSH1 0x40 PUSH0 KECCAK256 PUSH0 SWAP2 POP SWAP2 POP SWAP1 SLOAD SWAP1 PUSH2 0x100 EXP SWAP1 DIV PUSH1 0xFF AND DUP2 JUMP JUMPDEST PUSH0 DUP1 DUP4 PUSH20 0xFFFFFFFFFFFFFFFFFFFFFFFFFFFFFFFFFFFFFFFF AND PUSH20 0xFFFFFFFFFFFFFFFFFFFFFFFFFFFFFFFFFFFFFFFF AND DUP2 MSTORE PUSH1 0x20 ADD SWAP1 DUP2 MSTORE PUSH1 0x20 ADD PUSH0 KECCAK256 PUSH0 DUP3 DUP2 MSTORE PUSH1 0x20 ADD SWAP1 DUP2 MSTORE PUSH1 0x20 ADD PUSH0 KECCAK256 PUSH0 PUSH2 0x100 EXP DUP2 SLOAD SWAP1 PUSH1 0xFF MUL NOT AND SWAP1 SSTORE POP POP JUMP JUMPDEST PUSH0 DUP1 PUSH0 DUP5 PUSH20 0xFFFFFFFFFFFFFFFFFFFFFFFFFFFFFFFFFFFFFFFF AND PUSH20 0xFFFFFFFFFFFFFFFFFFFFFFFFFFFFFFFFFFFFFFFF AND DUP2 MSTORE PUSH1 0x20 ADD SWAP1 DUP2 MSTORE PUSH1 0x20 ADD PUSH0 KECCAK256 PUSH0 DUP4 DUP2 MSTORE PUSH1 0x20 ADD SWAP1 DUP2 MSTORE PUSH1 0x20 ADD PUSH0 KECCAK256 PUSH0 SWAP1 SLOAD SWAP1 PUSH2 0x100 EXP SWAP1 DIV PUSH1 0xFF AND SWAP1 POP SWAP3 SWAP2 POP POP JUMP JUMPDEST PUSH0 DUP1 REVERT JUMPDEST PUSH0 PUSH20 0xFFFFFFFFFFFFFFFFFFFFFFFFFFFFFFFFFFFFFFFF DUP3 AND SWAP1 POP SWAP2 SWAP1 POP JUMP JUMPDEST PUSH0 PUSH2 0x262 DUP3 PUSH2 0x239 JUMP JUMPDEST SWAP1 POP SWAP2 SWAP1 POP JUMP JUMPDEST PUSH2 0x272 DUP2 PUSH2 0x258 JUMP JUMPDEST DUP2 EQ PUSH2 0x27C JUMPI PUSH0 DUP1 REVERT JUMPDEST POP JUMP JUMPDEST PUSH0 DUP2 CALLDATALOAD SWAP1 POP PUSH2 0x28D DUP2 PUSH2 0x269 JUMP JUMPDEST SWAP3 SWAP2 POP POP JUMP JUMPDEST PUSH0 DUP2 SWAP1 POP SWAP2 SWAP1 POP JUMP JUMPDEST PUSH2 0x2A5 DUP2 PUSH2 0x293 JUMP JUMPDEST DUP2 EQ PUSH2 0x2AF JUMPI PUSH0 DUP1 REVERT JUMPDEST POP JUMP JUMPDEST PUSH0 DUP2 CALLDATALOAD SWAP1 POP PUSH2 0x2C0 DUP2 PUSH2 0x29C JUMP JUMPDEST SWAP3 SWAP2 POP POP JUMP JUMPDEST PUSH0 DUP2 ISZERO ISZERO SWAP1 POP SWAP2 SWAP1 POP JUMP JUMPDEST PUSH2 0x2DA DUP2 PUSH2 0x2C6 JUMP JUMPDEST DUP2 EQ PUSH2 0x2E4 JUMPI PUSH0 DUP1 REVERT JUMPDEST POP JUMP JUMPDEST PUSH0 DUP2 CALLDATALOAD SWAP1 POP PUSH2 0x2F5 DUP2 PUSH2 0x2D1 JUMP JUMPDEST SWAP3 SWAP2 POP POP JUMP JUMPDEST PUSH0 DUP1 PUSH0 PUSH1 0x60 DUP5 DUP7 SUB SLT ISZERO PUSH2 0x312 JUMPI PUSH2 0x311 PUSH2 0x235 JUMP JUMPDEST JUMPDEST PUSH0 PUSH2 0x31F DUP7 DUP3 DUP8 ADD PUSH2 0x27F JUMP JUMPDEST SWAP4 POP POP PUSH1 0x20 PUSH2 0x330 DUP7 DUP3 DUP8 ADD PUSH2 0x2B2 JUMP JUMPDEST SWAP3 POP POP PUSH1 0x40 PUSH2 0x341 DUP7 DUP3 DUP8 ADD PUSH2 0x2E7 JUMP JUMPDEST SWAP2 POP POP SWAP3 POP SWAP3 POP SWAP3 JUMP JUMPDEST PUSH0 DUP1 PUSH1 0x40 DUP4 DUP6 SUB SLT ISZERO PUSH2 0x361 JUMPI PUSH2 0x360 PUSH2 0x235 JUMP JUMPDEST JUMPDEST PUSH0 PUSH2 0x36E DUP6 DUP3 DUP7 ADD PUSH2 0x27F JUMP JUMPDEST SWAP3 POP POP PUSH1 0x20 PUSH2 0x37F DUP6 DUP3 DUP7 ADD PUSH2 0x2B2 JUMP JUMPDEST SWAP2 POP POP SWAP3 POP SWAP3 SWAP1 POP JUMP JUMPDEST PUSH2 0x392 DUP2 PUSH2 0x2C6 JUMP JUMPDEST DUP3 MSTORE POP POP JUMP JUMPDEST PUSH0 PUSH1 0x20 DUP3 ADD SWAP1 POP PUSH2 0x3AB PUSH0 DUP4 ADD DUP5 PUSH2 0x389 JUMP JUMPDEST SWAP3 SWAP2 POP POP JUMP INVALID LOG2 PUSH5 0x6970667358 0x22 SLT KECCAK256 SWAP15 DUP3 0x24 DUP15 PUSH23 0xD3A56C141FAC42FEA57ED19E6A6A6EACE9B610953AE3AE 0xD1 0xC1 DUP10 PUSH19 0x64736F6C634300081A00330000000000000000 "
				},
				"gasEstimates": {
					"creation": {
						"codeDepositCost": "199800",
						"executionCost": "243",
						"totalCost": "200043"
					},
					"external": {
						"get(address,uint256)": "3161",
						"nested(address,uint256)": "3070",
						"remove(address,uint256)": "25047",
						"set(address,uint256,bool)": "25201"
					}
				},
				"methodIdentifiers": {
					"get(address,uint256)": "b464631b",
					"nested(address,uint256)": "14bd0a7b",
					"remove(address,uint256)": "abe7f1ab",
					"set(address,uint256,bool)": "0b139194"
				}
			},
			"storageLayout": {
				"storage": [
					{
						"astId": 53,
						"contract": ".learneth/ethereum/remix-workshops/8.2 Data Structures - Mappings/mappings.sol:NestedMapping",
						"label": "nested",
						"offset": 0,
						"slot": "0",
						"type": "t_mapping(t_address,t_mapping(t_uint256,t_bool))"
					}
				],
				"types": {
					"t_address": {
						"encoding": "inplace",
						"label": "address",
						"numberOfBytes": "20"
					},
					"t_bool": {
						"encoding": "inplace",
						"label": "bool",
						"numberOfBytes": "1"
					},
					"t_mapping(t_address,t_mapping(t_uint256,t_bool))": {
						"encoding": "mapping",
						"key": "t_address",
						"label": "mapping(address => mapping(uint256 => bool))",
						"numberOfBytes": "32",
						"value": "t_mapping(t_uint256,t_bool)"
					},
					"t_mapping(t_uint256,t_bool)": {
						"encoding": "mapping",
						"key": "t_uint256",
						"label": "mapping(uint256 => bool)",
						"numberOfBytes": "32",
						"value": "t_bool"
					},
					"t_uint256": {
						"encoding": "inplace",
						"label": "uint256",
						"numberOfBytes": "32"
					}
				}
			},
			"userdoc": {
				"kind": "user",
				"methods": {},
				"version": 1
			}
		}
	}
}