{
	".learneth/ethereum/remix-workshops/7.2 Control Flow - Loops/loops.sol": {
		"Loop": {
			"abi": [
				{
					"inputs": [],
					"name": "count",
					"outputs": [
						{
							"internalType": "uint256",
							"name": "",
							"type": "uint256"
						}
					],
					"stateMutability": "view",
					"type": "function"
				},
				{
					"inputs": [],
					"name": "loop",
					"outputs": [],
					"stateMutability": "nonpayable",
					"type": "function"
				}
			],
			"devdoc": {
				"kind": "dev",
				"methods": {},
				"version": 1
			},
			"evm": {
				"assembly": "    /* \".learneth/ethereum/remix-workshops/7.2 Control Flow - Loops/loops.sol\":57:594  contract Loop {... */\n  mstore(0x40, 0x80)\n    /* \".learneth/ethereum/remix-workshops/7.2 Control Flow - Loops/loops.sol\":98:99  0 */\n  0x00\n    /* \".learneth/ethereum/remix-workshops/7.2 Control Flow - Loops/loops.sol\":78:99  uint public count = 0 */\n  dup1\n  sstore\n    /* \".learneth/ethereum/remix-workshops/7.2 Control Flow - Loops/loops.sol\":57:594  contract Loop {... */\n  callvalue\n  dup1\n  iszero\n  tag_1\n  jumpi\n  0x00\n  dup1\n  revert\ntag_1:\n  pop\n  dataSize(sub_0)\n  dup1\n  dataOffset(sub_0)\n  0x00\n  codecopy\n  0x00\n  return\nstop\n\nsub_0: assembly {\n        /* \".learneth/ethereum/remix-workshops/7.2 Control Flow - Loops/loops.sol\":57:594  contract Loop {... */\n      mstore(0x40, 0x80)\n      callvalue\n      dup1\n      iszero\n      tag_1\n      jumpi\n      0x00\n      dup1\n      revert\n    tag_1:\n      pop\n      jumpi(tag_2, lt(calldatasize, 0x04))\n      shr(0xe0, calldataload(0x00))\n      dup1\n      0x06661abd\n      eq\n      tag_3\n      jumpi\n      dup1\n      0xa92100cb\n      eq\n      tag_4\n      jumpi\n    tag_2:\n      0x00\n      dup1\n      revert\n        /* \".learneth/ethereum/remix-workshops/7.2 Control Flow - Loops/loops.sol\":78:99  uint public count = 0 */\n    tag_3:\n      tag_5\n      tag_6\n      jump\t// in\n    tag_5:\n      mload(0x40)\n      tag_7\n      swap2\n      swap1\n      tag_8\n      jump\t// in\n    tag_7:\n      mload(0x40)\n      dup1\n      swap2\n      sub\n      swap1\n      return\n        /* \".learneth/ethereum/remix-workshops/7.2 Control Flow - Loops/loops.sol\":106:592  function loop() public {... */\n    tag_4:\n      tag_9\n      tag_10\n      jump\t// in\n    tag_9:\n      stop\n        /* \".learneth/ethereum/remix-workshops/7.2 Control Flow - Loops/loops.sol\":78:99  uint public count = 0 */\n    tag_6:\n      sload(0x00)\n      dup2\n      jump\t// out\n        /* \".learneth/ethereum/remix-workshops/7.2 Control Flow - Loops/loops.sol\":106:592  function loop() public {... */\n    tag_10:\n        /* \".learneth/ethereum/remix-workshops/7.2 Control Flow - Loops/loops.sol\":164:170  uint i */\n      0x00\n        /* \".learneth/ethereum/remix-workshops/7.2 Control Flow - Loops/loops.sol\":159:447  for (uint i = 0; i < 10; i++) {... */\n    tag_12:\n        /* \".learneth/ethereum/remix-workshops/7.2 Control Flow - Loops/loops.sol\":180:182  10 */\n      0x0a\n        /* \".learneth/ethereum/remix-workshops/7.2 Control Flow - Loops/loops.sol\":176:177  i */\n      dup2\n        /* \".learneth/ethereum/remix-workshops/7.2 Control Flow - Loops/loops.sol\":176:182  i < 10 */\n      lt\n        /* \".learneth/ethereum/remix-workshops/7.2 Control Flow - Loops/loops.sol\":159:447  for (uint i = 0; i < 10; i++) {... */\n      iszero\n      tag_13\n      jumpi\n        /* \".learneth/ethereum/remix-workshops/7.2 Control Flow - Loops/loops.sol\":212:213  3 */\n      0x03\n        /* \".learneth/ethereum/remix-workshops/7.2 Control Flow - Loops/loops.sol\":207:208  i */\n      dup2\n        /* \".learneth/ethereum/remix-workshops/7.2 Control Flow - Loops/loops.sol\":207:213  i == 3 */\n      sub\n        /* \".learneth/ethereum/remix-workshops/7.2 Control Flow - Loops/loops.sol\":203:312  if (i == 3) {... */\n      iszero\n        /* \".learneth/ethereum/remix-workshops/7.2 Control Flow - Loops/loops.sol\":289:297  continue */\n      tag_14\n        /* \".learneth/ethereum/remix-workshops/7.2 Control Flow - Loops/loops.sol\":203:312  if (i == 3) {... */\n      jumpi\n        /* \".learneth/ethereum/remix-workshops/7.2 Control Flow - Loops/loops.sol\":334:335  5 */\n      0x05\n        /* \".learneth/ethereum/remix-workshops/7.2 Control Flow - Loops/loops.sol\":329:330  i */\n      dup2\n        /* \".learneth/ethereum/remix-workshops/7.2 Control Flow - Loops/loops.sol\":329:335  i == 5 */\n      sub\n        /* \".learneth/ethereum/remix-workshops/7.2 Control Flow - Loops/loops.sol\":325:415  if (i == 5) {... */\n      iszero\n        /* \".learneth/ethereum/remix-workshops/7.2 Control Flow - Loops/loops.sol\":395:400  break */\n      tag_13\n        /* \".learneth/ethereum/remix-workshops/7.2 Control Flow - Loops/loops.sol\":325:415  if (i == 5) {... */\n      jumpi\n        /* \".learneth/ethereum/remix-workshops/7.2 Control Flow - Loops/loops.sol\":429:434  count */\n      0x00\n      dup1\n        /* \".learneth/ethereum/remix-workshops/7.2 Control Flow - Loops/loops.sol\":429:436  count++ */\n      dup2\n      sload\n      dup1\n      swap3\n      swap2\n      swap1\n      tag_17\n      swap1\n      tag_18\n      jump\t// in\n    tag_17:\n      swap2\n      swap1\n      pop\n      sstore\n      pop\n        /* \".learneth/ethereum/remix-workshops/7.2 Control Flow - Loops/loops.sol\":159:447  for (uint i = 0; i < 10; i++) {... */\n    tag_14:\n        /* \".learneth/ethereum/remix-workshops/7.2 Control Flow - Loops/loops.sol\":184:187  i++ */\n      dup1\n      dup1\n      0x01\n      add\n      swap2\n      pop\n      pop\n        /* \".learneth/ethereum/remix-workshops/7.2 Control Flow - Loops/loops.sol\":159:447  for (uint i = 0; i < 10; i++) {... */\n      jump(tag_12)\n    tag_13:\n      pop\n        /* \".learneth/ethereum/remix-workshops/7.2 Control Flow - Loops/loops.sol\":479:485  uint j */\n      0x00\n        /* \".learneth/ethereum/remix-workshops/7.2 Control Flow - Loops/loops.sol\":495:586  while (j < 10) {... */\n    tag_19:\n        /* \".learneth/ethereum/remix-workshops/7.2 Control Flow - Loops/loops.sol\":506:508  10 */\n      0x0a\n        /* \".learneth/ethereum/remix-workshops/7.2 Control Flow - Loops/loops.sol\":502:503  j */\n      dup2\n        /* \".learneth/ethereum/remix-workshops/7.2 Control Flow - Loops/loops.sol\":502:508  j < 10 */\n      lt\n        /* \".learneth/ethereum/remix-workshops/7.2 Control Flow - Loops/loops.sol\":495:586  while (j < 10) {... */\n      iszero\n      tag_20\n      jumpi\n        /* \".learneth/ethereum/remix-workshops/7.2 Control Flow - Loops/loops.sol\":532:533  5 */\n      0x05\n        /* \".learneth/ethereum/remix-workshops/7.2 Control Flow - Loops/loops.sol\":527:528  j */\n      dup2\n        /* \".learneth/ethereum/remix-workshops/7.2 Control Flow - Loops/loops.sol\":527:533  j >= 5 */\n      lt\n        /* \".learneth/ethereum/remix-workshops/7.2 Control Flow - Loops/loops.sol\":524:558  if(j >= 5)... */\n      tag_21\n      jumpi\n        /* \".learneth/ethereum/remix-workshops/7.2 Control Flow - Loops/loops.sol\":551:556  count */\n      0x00\n      dup1\n        /* \".learneth/ethereum/remix-workshops/7.2 Control Flow - Loops/loops.sol\":551:558  count++ */\n      dup2\n      sload\n      dup1\n      swap3\n      swap2\n      swap1\n      tag_22\n      swap1\n      tag_18\n      jump\t// in\n    tag_22:\n      swap2\n      swap1\n      pop\n      sstore\n      pop\n        /* \".learneth/ethereum/remix-workshops/7.2 Control Flow - Loops/loops.sol\":524:558  if(j >= 5)... */\n    tag_21:\n        /* \".learneth/ethereum/remix-workshops/7.2 Control Flow - Loops/loops.sol\":572:575  j++ */\n      dup1\n      dup1\n      tag_23\n      swap1\n      tag_18\n      jump\t// in\n    tag_23:\n      swap2\n      pop\n      pop\n        /* \".learneth/ethereum/remix-workshops/7.2 Control Flow - Loops/loops.sol\":495:586  while (j < 10) {... */\n      jump(tag_19)\n    tag_20:\n        /* \".learneth/ethereum/remix-workshops/7.2 Control Flow - Loops/loops.sol\":129:592  {... */\n      pop\n        /* \".learneth/ethereum/remix-workshops/7.2 Control Flow - Loops/loops.sol\":106:592  function loop() public {... */\n      jump\t// out\n        /* \"#utility.yul\":7:84   */\n    tag_24:\n        /* \"#utility.yul\":44:51   */\n      0x00\n        /* \"#utility.yul\":73:78   */\n      dup2\n        /* \"#utility.yul\":62:78   */\n      swap1\n      pop\n        /* \"#utility.yul\":7:84   */\n      swap2\n      swap1\n      pop\n      jump\t// out\n        /* \"#utility.yul\":90:208   */\n    tag_25:\n        /* \"#utility.yul\":177:201   */\n      tag_30\n        /* \"#utility.yul\":195:200   */\n      dup2\n        /* \"#utility.yul\":177:201   */\n      tag_24\n      jump\t// in\n    tag_30:\n        /* \"#utility.yul\":172:175   */\n      dup3\n        /* \"#utility.yul\":165:202   */\n      mstore\n        /* \"#utility.yul\":90:208   */\n      pop\n      pop\n      jump\t// out\n        /* \"#utility.yul\":214:436   */\n    tag_8:\n        /* \"#utility.yul\":307:311   */\n      0x00\n        /* \"#utility.yul\":345:347   */\n      0x20\n        /* \"#utility.yul\":334:343   */\n      dup3\n        /* \"#utility.yul\":330:348   */\n      add\n        /* \"#utility.yul\":322:348   */\n      swap1\n      pop\n        /* \"#utility.yul\":358:429   */\n      tag_32\n        /* \"#utility.yul\":426:427   */\n      0x00\n        /* \"#utility.yul\":415:424   */\n      dup4\n        /* \"#utility.yul\":411:428   */\n      add\n        /* \"#utility.yul\":402:408   */\n      dup5\n        /* \"#utility.yul\":358:429   */\n      tag_25\n      jump\t// in\n    tag_32:\n        /* \"#utility.yul\":214:436   */\n      swap3\n      swap2\n      pop\n      pop\n      jump\t// out\n        /* \"#utility.yul\":442:622   */\n    tag_26:\n        /* \"#utility.yul\":490:567   */\n      0x4e487b7100000000000000000000000000000000000000000000000000000000\n        /* \"#utility.yul\":487:488   */\n      0x00\n        /* \"#utility.yul\":480:568   */\n      mstore\n        /* \"#utility.yul\":587:591   */\n      0x11\n        /* \"#utility.yul\":584:585   */\n      0x04\n        /* \"#utility.yul\":577:592   */\n      mstore\n        /* \"#utility.yul\":611:615   */\n      0x24\n        /* \"#utility.yul\":608:609   */\n      0x00\n        /* \"#utility.yul\":601:616   */\n      revert\n        /* \"#utility.yul\":628:861   */\n    tag_18:\n        /* \"#utility.yul\":667:670   */\n      0x00\n        /* \"#utility.yul\":690:714   */\n      tag_35\n        /* \"#utility.yul\":708:713   */\n      dup3\n        /* \"#utility.yul\":690:714   */\n      tag_24\n      jump\t// in\n    tag_35:\n        /* \"#utility.yul\":681:714   */\n      swap2\n      pop\n        /* \"#utility.yul\":736:802   */\n      0xffffffffffffffffffffffffffffffffffffffffffffffffffffffffffffffff\n        /* \"#utility.yul\":729:734   */\n      dup3\n        /* \"#utility.yul\":726:803   */\n      sub\n        /* \"#utility.yul\":723:826   */\n      tag_36\n      jumpi\n        /* \"#utility.yul\":806:824   */\n      tag_37\n      tag_26\n      jump\t// in\n    tag_37:\n        /* \"#utility.yul\":723:826   */\n    tag_36:\n        /* \"#utility.yul\":853:854   */\n      0x01\n        /* \"#utility.yul\":846:851   */\n      dup3\n        /* \"#utility.yul\":842:855   */\n      add\n        /* \"#utility.yul\":835:855   */\n      swap1\n      pop\n        /* \"#utility.yul\":628:861   */\n      swap2\n      swap1\n      pop\n      jump\t// out\n\n    auxdata: 0xa2646970667358221220caf79bace54ed2f398f6e24c5b4bee97fdf8c6fd79f0821862b02874addd633d64736f6c634300081a0033\n}\n",
				"bytecode": {
					"linkReferences": {},
					"object": "60806040525f80553480156011575f80fd5b506101c28061001f5f395ff3fe608060405234801561000f575f80fd5b5060043610610034575f3560e01c806306661abd14610038578063a92100cb14610056575b5f80fd5b610040610060565b60405161004d91906100ff565b60405180910390f35b61005e610065565b005b5f5481565b5f5b600a8110156100a65760038103156100995760058103156100a6575f8081548092919061009390610145565b91905055505b8080600101915050610067565b505f5b600a8110156100e457600581106100d1575f808154809291906100cb90610145565b91905055505b80806100dc90610145565b9150506100a9565b50565b5f819050919050565b6100f9816100e7565b82525050565b5f6020820190506101125f8301846100f0565b92915050565b7f4e487b71000000000000000000000000000000000000000000000000000000005f52601160045260245ffd5b5f61014f826100e7565b91507fffffffffffffffffffffffffffffffffffffffffffffffffffffffffffffffff820361018157610180610118565b5b60018201905091905056fea2646970667358221220caf79bace54ed2f398f6e24c5b4bee97fdf8c6fd79f0821862b02874addd633d64736f6c634300081a0033",
					"opcodes": "PUSH1 0x80 PUSH1 0x40 MSTORE PUSH0 DUP1 SSTORE CALLVALUE DUP1 ISZERO PUSH1 0x11 JUMPI PUSH0 DUP1 REVERT JUMPDEST POP PUSH2 0x1C2 DUP1 PUSH2 0x1F PUSH0 CODECOPY PUSH0 RETURN INVALID PUSH1 0x80 PUSH1 0x40 MSTORE CALLVALUE DUP1 ISZERO PUSH2 0xF JUMPI PUSH0 DUP1 REVERT JUMPDEST POP PUSH1 0x4 CALLDATASIZE LT PUSH2 0x34 JUMPI PUSH0 CALLDATALOAD PUSH1 0xE0 SHR DUP1 PUSH4 0x6661ABD EQ PUSH2 0x38 JUMPI DUP1 PUSH4 0xA92100CB EQ PUSH2 0x56 JUMPI JUMPDEST PUSH0 DUP1 REVERT JUMPDEST PUSH2 0x40 PUSH2 0x60 JUMP JUMPDEST PUSH1 0x40 MLOAD PUSH2 0x4D SWAP2 SWAP1 PUSH2 0xFF JUMP JUMPDEST PUSH1 0x40 MLOAD DUP1 SWAP2 SUB SWAP1 RETURN JUMPDEST PUSH2 0x5E PUSH2 0x65 JUMP JUMPDEST STOP JUMPDEST PUSH0 SLOAD DUP2 JUMP JUMPDEST PUSH0 JUMPDEST PUSH1 0xA DUP2 LT ISZERO PUSH2 0xA6 JUMPI PUSH1 0x3 DUP2 SUB ISZERO PUSH2 0x99 JUMPI PUSH1 0x5 DUP2 SUB ISZERO PUSH2 0xA6 JUMPI PUSH0 DUP1 DUP2 SLOAD DUP1 SWAP3 SWAP2 SWAP1 PUSH2 0x93 SWAP1 PUSH2 0x145 JUMP JUMPDEST SWAP2 SWAP1 POP SSTORE POP JUMPDEST DUP1 DUP1 PUSH1 0x1 ADD SWAP2 POP POP PUSH2 0x67 JUMP JUMPDEST POP PUSH0 JUMPDEST PUSH1 0xA DUP2 LT ISZERO PUSH2 0xE4 JUMPI PUSH1 0x5 DUP2 LT PUSH2 0xD1 JUMPI PUSH0 DUP1 DUP2 SLOAD DUP1 SWAP3 SWAP2 SWAP1 PUSH2 0xCB SWAP1 PUSH2 0x145 JUMP JUMPDEST SWAP2 SWAP1 POP SSTORE POP JUMPDEST DUP1 DUP1 PUSH2 0xDC SWAP1 PUSH2 0x145 JUMP JUMPDEST SWAP2 POP POP PUSH2 0xA9 JUMP JUMPDEST POP JUMP JUMPDEST PUSH0 DUP2 SWAP1 POP SWAP2 SWAP1 POP JUMP JUMPDEST PUSH2 0xF9 DUP2 PUSH2 0xE7 JUMP JUMPDEST DUP3 MSTORE POP POP JUMP JUMPDEST PUSH0 PUSH1 0x20 DUP3 ADD SWAP1 POP PUSH2 0x112 PUSH0 DUP4 ADD DUP5 PUSH2 0xF0 JUMP JUMPDEST SWAP3 SWAP2 POP POP JUMP JUMPDEST PUSH32 0x4E487B7100000000000000000000000000000000000000000000000000000000 PUSH0 MSTORE PUSH1 0x11 PUSH1 0x4 MSTORE PUSH1 0x24 PUSH0 REVERT JUMPDEST PUSH0 PUSH2 0x14F DUP3 PUSH2 0xE7 JUMP JUMPDEST SWAP2 POP PUSH32 0xFFFFFFFFFFFFFFFFFFFFFFFFFFFFFFFFFFFFFFFFFFFFFFFFFFFFFFFFFFFFFFFF DUP3 SUB PUSH2 0x181 JUMPI PUSH2 0x180 PUSH2 0x118 JUMP JUMPDEST JUMPDEST PUSH1 0x1 DUP3 ADD SWAP1 POP SWAP2 SWAP1 POP JUMP INVALID LOG2 PUSH5 0x6970667358 0x22 SLT KECCAK256 0xCA 0xF7 SWAP12 0xAC 0xE5 0x4E 0xD2 RETURN SWAP9 0xF6 0xE2 0x4C JUMPDEST 0x4B 0xEE SWAP8 REVERT 0xF8 0xC6 REVERT PUSH26 0xF0821862B02874ADDD633D64736F6C634300081A003300000000 "
				},
				"gasEstimates": {
					"creation": {
						"codeDepositCost": "90000",
						"executionCost": "5144",
						"totalCost": "95144"
					},
					"external": {
						"count()": "2402",
						"loop()": "infinite"
					}
				},
				"methodIdentifiers": {
					"count()": "06661abd",
					"loop()": "a92100cb"
				}
			},
			"storageLayout": {
				"storage": [
					{
						"astId": 4,
						"contract": ".learneth/ethereum/remix-workshops/7.2 Control Flow - Loops/loops.sol:Loop",
						"label": "count",
						"offset": 0,
						"slot": "0",
						"type": "t_uint256"
					}
				],
				"types": {
					"t_uint256": {
						"encoding": "inplace",
						"label": "uint256",
						"numberOfBytes": "32"
					}
				}
			},
			"userdoc": {
				"kind": "user",
				"methods": {},
				"version": 1
			}
		}
	}
}